:100000000C9484000C9470050C9449050C94AC007D
:100010000C94AC000C94AC000C94AC000C94AC00B0
:100020000C94AC000C94AC000C94AC000C94AC00A0
:100030000C94AC000C94AC000C94AC000C94AC0090
:100040000C94FF040C94AC000C94BD050C94970523
:100050000C94AC000C94AC000C94AC000C94AC0070
:100060000C94AC000C94AC00084AD73B3BCE016E1C
:1000700084BCBFFDC12F3D6C74319ABD56833DDAFF
:100080003D00C77F11BED9E4BB4C3E916BAAAABE0E
:10009000000000803F05A84CCDB2D44EB93836A937
:1000A000020C50B9918688083CA6AAAA2ABE000074
:1000B00000803F0000000000240027002A0000000C
:1000C0000000250028002B00040404040404040498
:1000D00002020202020203030303030301020408F3
:1000E00010204080010204081020010204081020A2
:1000F00000000008000201000003040700000000E7
:1001000000000000EF05BB1011241FBECFEFD8E0A8
:10011000DEBFCDBF11E0A0E0B1E0E4E4FDE202C04B
:1001200005900D92AC36B107D9F723E0ACE6B1E00B
:1001300001C01D92AA33B207E1F710E0C3E8D0E096
:1001400004C02197FE010E941C11C238D107C9F7D3
:100150000E94DA070C9495160C9400008230B8F4D3
:10016000E82FF0E0EE0FFF1FE050FF4F7183608338
:10017000813039F080916900836080936900E89A4A
:100180000895809169008C6080936900E99A0895D0
:1001900090E0FC01E051FF4F2491FC01E452FF4F3D
:1001A0003491FC01E853FF4FE491EE23C9F0222380
:1001B00039F0233001F1A8F4213019F1223029F16E
:1001C000F0E0EE0FFF1FE254FF4FA591B4918FB7FF
:1001D000F894EC91611126C030953E233C938FBF7B
:1001E00008952730A9F02830C9F0243049F78091CC
:1001F00080008F7D03C0809180008F778093800086
:10020000DFCF84B58F7784BDDBCF84B58F7DFBCF07
:100210008091B0008F778093B000D2CF8091B000F2
:100220008F7DF9CF3E2BDACFCF93DF9390E0FC01A7
:10023000E452FF4F249188539F4FFC0184918823FF
:10024000D1F090E0880F991FFC01EC54FF4FA5916D
:10025000B491FC01E254FF4FC591D49161110EC0DD
:100260009FB7F8948C91E22FE0958E238C93288190
:10027000E223E8839FBFDF91CF9108958FB7F89471
:10028000EC91E22BEC938FBFF6CF0895AF92BF9223
:10029000CF92DF92EF92FF920F931F93CF93DF9352
:1002A0006C017B018B01040F151FEB015E01AE1881
:1002B000BF08C017D10759F06991D601ED91FC91A3
:1002C0000190F081E02DC6010995892B79F7C501D0
:1002D000DF91CF911F910F91FF90EF90DF90CF9022
:1002E000BF90AF900895FC01538D448D252F30E0D1
:1002F000842F90E0821B930B541710F0CF96089533
:1003000001970895FC01918D828D981761F0A28D5F
:10031000AE0FBF2FB11D5D968C91928D9F5F9F7325
:10032000928F90E008958FEF9FEF0895FC01918DDB
:10033000828D981731F0828DE80FF11D858D90E048
:1003400008958FEF9FEF0895FC01918D228D892FE5
:1003500090E0805C9F4F821B91098F7399270895CD
:1003600081E791E00E94A40121E0892B09F420E0BB
:10037000822F089580E090E0892B29F00E94B0013F
:1003800081110C9400000895FC01A48DA80FB92FD1
:10039000B11DA35ABF4F2C91848D90E001968F73AD
:1003A0009927848FA689B7892C93A089B1898C91CC
:1003B000837080648C93938D848D981306C002881B
:1003C000F389E02D80818F7D80830895EF92FF92E5
:1003D0000F931F93CF93DF93EC0181E0888F9B8D68
:1003E0008C8D98131AC0E889F989808185FF15C022
:1003F0009FB7F894EE89FF896083E889F989808145
:100400008370806480839FBF81E090E0DF91CF9113
:100410001F910F91FF90EF900895F62E0B8D10E035
:100420000F5F1F4F0F731127E02E8C8D8E110CC0A4
:100430000FB607FCFACFE889F989808185FFF5CFEF
:10044000CE010E94C401F1CFEB8DEC0FFD2FF11D09
:10045000E35AFF4FF0829FB7F8940B8FEA89FB892C
:1004600080818062CFCFCF93DF93EC01888D88238A
:10047000B9F0AA89BB89E889F9898C9185FD03C007
:10048000808186FD0DC00FB607FCF7CF8C9185FFEC
:10049000F2CF808185FFEDCFCE010E94C401E9CF6C
:1004A000DF91CF9108956F3FB1F0E62FE295EF70A5
:1004B00044E0E49F90011124DC01ED91FC91E20FF6
:1004C000F31F6F70B8E06B9FC001112462817381CC
:1004D000860F971F089590E080E00895FC019289AF
:1004E000915084E0989F90011124A089B189A20FB6
:1004F000B31F1296ED91FC9113973097E9F0119686
:100500002C9111978C912817B8F481E0820F1196E5
:100510008C9388E0289FA0011124E40FF51F3097E9
:1005200059F014828FEF858317821682BF01892FBD
:100530008295807F820F089560E070E08FEF0895CC
:10054000CF93DF93EC01A881B981F0E0E0E0109750
:1005500041F1CD01049668177907F1F412969C9148
:100560001297915012969C93129791111AC08D91E7
:100570009C911197309769F091838083EA01E8811B
:10058000F9810280F381E02DBD01CA01DF91CF9195
:10059000099499838883F2CFFD010D90BC91A02D21
:1005A000D6CFDF91CF9108958F929F92AF92BF9255
:1005B000CF92DF92EF92FF920F931F93CF93DF932F
:1005C0008C01EB01FC01848180FF0AC048815981C4
:1005D000608171816C5F7F4FCE0103960E94A00203
:1005E000F8018481807681F10115110569F1D080CF
:1005F0005E01F5E1AF0EB11C4E0183E0880E911C47
:10060000EFEFDE16F1F06D2DC5010E9453027C0163
:10061000FC01C580848187FF07C0488159816681BC
:100620007781C4010E94A002BE01C7010E94D402CA
:10063000F701848180788483898D8583D98EDC2C31
:10064000DFCFF801D082D182DF91CF911F910F913E
:10065000FF90EF90DF90CF90BF90AF909F908F90E2
:1006600008950F931F93CF93DF93D62F062F10E09B
:10067000FC01C28561E08C2F0E9414010115110557
:1006800041F460E08C2FDF91CF911F910F910C947A
:10069000C8000F3F110511F461E0F4CFEC2FF0E03A
:1006A000E051FF4FE491E33039F140F4E130B1F033
:1006B000E230E9F0003811057CF7E3CFE73031F1A3
:1006C000E83061F1E430B1F780918000806280937E
:1006D000800010938B0000938A0004C084B580686A
:1006E00084BDD7BDDF91CF911F910F91089584B53F
:1006F000806284BDD8BDF6CF8091800080688093F1
:1007000080001093890000938800ECCF8091B000A6
:1007100080688093B000D093B300E4CF8091B000A4
:1007200080628093B000D093B400DCCFE2E1F2E0CD
:1007300085859685A785B0890196A11DB11D858700
:100740009687A787B08B0895E2E1F2E082819381DA
:10075000A481B5810196A11DB11D82839383A483D9
:10076000B58308953F924F925F926F927F928F92DE
:100770009F92AF92BF92CF92DF92EF92FF920F9330
:100780001F93CF93DF933C012B01DC010D911C9152
:10079000063EBFEF1B0709F1FC01E280F380E11484
:1007A000F104D9F0D8015E968C915E97982F9F77CF
:1007B00091F4807880625E968C935E978FEF5A9664
:1007C0008C935A975B968C935801B5E1AB0EB11C94
:1007D000F801628D43C085FDF7CFD301ED91FC9107
:1007E00080E0309719F0828191E08927DF91CF91E5
:1007F0001F910F91FF90EF90DF90CF90BF90AF903F
:100800009F908F907F906F905F904F903F90089552
:100810006D81209749F1EE81FF81D7010D90002075
:10082000E9F7CD0101978E199F09B0E0A0E030975C
:1008300039F0DF010D900020E9F71197AE1BBF0BD7
:100840008A179B0759F4D7019C012E0D3F1D2A17CB
:100850003B0799F18D9191918917C9F3C5010E94C8
:100860005302EC01892BA1F6D8015996DC90BFEF19
:10087000DB16A9F16D2DC5010E945302EC018D819B
:10088000F801818F209709F4A8C01C828FEF8D8317
:100890001F821E82D8015B966C916F3F09F4A1C044
:1008A000C5010E945302FC01D582D8015B96DC92FF
:1008B0008C818F778C83FF82EE82F201C080D180A1
:1008C000E280F380B801CE010E94D4028C8180784E
:1008D0008C608C83C882D982EA82FB827ECF4801F9
:1008E000F5E08F0E911CD801CD90DC9011975796B2
:1008F0008C91882349F0C4010E946E02C62FD72F25
:10090000209711F0D82EC6CFF801C789908DC91352
:1009100025C0C03109F461C0CC0F65897689D60144
:10092000ED91FC91B4E0CB9FA001112486169706AF
:1009300009F04BC00190F081E02DBA01C601099584
:10094000009709F44AC020E1F401DC0101900D9206
:100950002A95E1F7F801968B858BC08FD8015596C3
:10096000CD91DC91569757968C91579721E0280F9F
:1009700057962C93B4E08B9FC0011124C80FD91F48
:1009800090E1392E203111F48FE0382EE8E03E9EC0
:10099000B0011124D601ED91FC910190F081E02D80
:1009A000C60109959B838A83892B09F4312C3882EF
:1009B0001982CD2B91F0C4010E946E02C62FD72F51
:1009C000D82E209709F066CF08C00480F581E02D6D
:1009D000C6010995009709F0BDCF81E0F801828337
:1009E000FCCEF801D28ED38E63CFCB01BA010C942A
:1009F0009815CB010C940F15CB010C9473141F9216
:100A00000F920FB60F9211242F933F938F939F93C2
:100A1000AF93BF9380910E0290910F02A0911002AC
:100A2000B09111023091700123E0230F2D3758F55A
:100A30000196A11DB11D2093700180930E02909329
:100A40000F02A0931002B093110280916C0190915B
:100A50006D01A0916E01B0916F010196A11DB11DB4
:100A600080936C0190936D01A0936E01B0936F0120
:100A7000BF91AF919F918F913F912F910F900FBE9A
:100A80000F901F90189526E8230F0296A11DB11D07
:100A9000D2CF1F920F920FB60F9211242F933F9334
:100AA0004F935F936F937F938F939F93AF93BF9376
:100AB000EF93FF93E0910201F09103010995FF91FB
:100AC000EF91BF91AF919F918F917F916F915F91C6
:100AD0004F913F912F910F900FBE0F901F9018953F
:100AE0001F920F920FB60F9211242F933F934F93A3
:100AF0005F936F937F938F939F93AF93BF93EF9386
:100B0000FF93E0910001F09101010995FF91EF91B0
:100B1000BF91AF919F918F917F916F915F914F9115
:100B20003F912F910F900FBE0F901F9018951F921D
:100B30000F920FB60F9211242F933F934F935F9311
:100B40006F937F938F939F93AF93BF93EF93FF9395
:100B500081E791E00E94C401FF91EF91BF91AF91B5
:100B60009F918F917F916F915F914F913F912F91C5
:100B70000F900FBE0F901F9018951F920F920FB6F7
:100B80000F9211242F938F939F93EF93FF93E091F4
:100B90008101F09182018081E0918701F0918801CB
:100BA00082FD1BC0908180918A018F5F8F7320919D
:100BB0008B01821741F0E0918A01F0E0EF58FE4F7F
:100BC000958F80938A01FF91EF919F918F912F9143
:100BD0000F900FBE0F901F9018958081F4CFBF9299
:100BE000CF92DF92EF92FF920F931F93CF93DF93F9
:100BF000E1E7F1E01382128288EE93E0A0E0B0E03A
:100C000084839583A683B7838EE391E09183808369
:100C100085EC90E09587848784EC90E097878687C1
:100C200080EC90E0918B808B81EC90E0938B828BB9
:100C300082EC90E0958B848B86EC90E0978B868B92
:100C4000118E128E138E148E08E211E0F80180814D
:100C5000C2E1D2E0282F30E0398328831A821B8238
:100C60001C821D8260E00E941401F80181818A8744
:100C700060E00E94140106E211E0F8018081282F53
:100C800030E03C872B871D861E861F86188A60E011
:100C90000E941401F80181818D8B60E00E94140193
:100CA0008CE3B82EBE8A1DAA1EAA1FAA18AE19AEC2
:100CB0001AAE1BAE1CAE10924F0210925002109250
:100CC000510210925202109253021092540210924A
:100CD000550210925602109257021092580210922A
:100CE000590210925A02C12CD12C90E8E92E9FE3B0
:100CF000F92EC0925B02D0925C02E0925D02F0920B
:100D00005E0210925F0210926002109261021092D5
:100D100062021092630210926402109265021092B5
:100D20006602109267021092680210926902109295
:100D30006A0210926B0210926C0210926D02109275
:100D40006E0202E111E020E030E040E05FE3F801F4
:100D500064817581868197810E94D813698F7A8F0B
:100D60008B8F9C8FF80180819181A281B38189ABA7
:100D70009AABABABBCABC0927302D0927402E09260
:100D80007502F0927602C0926F02D0927002E092E9
:100D90007102F092720284E091E090937802809365
:100DA00077021092790210927B0210927A028CE7FD
:100DB00092E090938D0280938C0210928E0284E0D8
:100DC00080938F028FEF8093900210929502109281
:100DD000D8021092D9021092DA021092DB0210921D
:100DE000DC021092DD021092DE021092DF021092FD
:100DF000EC021092ED021092EE021092EF021092AD
:100E0000F0021092F1021092F2021092F30210928C
:100E10000003109201031092020310920303109238
:100E20000403109205031092060310920703E6E0F4
:100E3000F1E080859185A285B385448155816681E5
:100E40007781C080D180E280F380C0921E03D0926F
:100E50001F03E0922003F09221034093220350935A
:100E600023036093240370932503809326039093B8
:100E70002703A0932803B093290310922A0310920A
:100E80002B0310922C0310922D0310922E0310921C
:100E90002F031092300310923103109232031092FC
:100EA000330310923403109235032FB7F8948091D6
:100EB0000E0290910F02A0911002B09111022FBF6B
:100EC00080939B0290939C02A0939D02B0939E02FC
:100ED0006A817B818C819D810E94B5120E947D1266
:100EE0006093AB027093AC028093AD029093AE021C
:100EF0006D857E858F8598890E94B5120E947D122E
:100F00006093AF027093B0028093B1029093B202EB
:100F10002BED3FE049E450E4F80164857585868552
:100F200097850E94D813F801208931894289538915
:100F30000E940B126093A7027093A8028093A902EB
:100F40009093AA02B092CB021092F4021092F50292
:100F50001092F6021092F7021092F8021092F90223
:100F60001092FA021092FB0280E090E0AEEDB2E443
:100F70008093970290939802A0939902B0939A025B
:100F80001092BB021092BC021092BD021092BE02DF
:100F900060E0CE010E94310360E08DE192E0DF91DC
:100FA000CF911F910F91FF90EF90DF90CF90BF9066
:100FB0000C943103CF93DF93CDB7DEB768970FB6AC
:100FC000F894DEBF0FBECDBF789484B5826084BD37
:100FD00084B5816084BD85B5826085BD85B581603D
:100FE00085BD80916E00816080936E0010928100BB
:100FF0008091810082608093810080918100816076
:101000008093810080918000816080938000809136
:10101000B10084608093B1008091B00081608093C2
:10102000B00080917A00846080937A0080917A0089
:10103000826080937A0080917A00816080937A0048
:1010400080917A00806880937A001092C100E091CC
:101050008101F091820182E08083E0917D01F09135
:101060007E011082E0917F01F09180018FEC8083FE
:1010700010928901E0918501F091860186E08083DC
:10108000E0918301F0918401808180618083E0910F
:101090008301F0918401808188608083E0918301E5
:1010A000F0918401808180688083E0918301F091D8
:1010B000840180818F7D808380912801823009F4B2
:1010C0007CC2833009F07BC281E064EA73E00E9455
:1010D000AE0080912601823009F473C2833009F09A
:1010E00072C281E066E973E00E94AE0087E7282EB5
:1010F00082E0382E81E791E00E94A40118161906BB
:1011000034F481E791E00E9482018093960260911D
:10111000960220E030E04EED52E46F3609F45BC2F7
:10112000683209F052C280E090E0A0E2B2E480931D
:10113000970290939802A0939902B0939A022FB7C6
:10114000F89480910E0290910F02A0911002B0913C
:1011500011022FBF8093A1029093A202A093A30239
:10116000B093A40220919B0230919C02AC01421BDF
:10117000530B5093A00240939F0280939B02909345
:101180009C02A0939D02B0939E0260911402709104
:10119000150280911602909117020E94B5126B0100
:1011A0007C016091AB027091AC028091AD02909194
:1011B000AE020E94B5129B01AC01C701B6010E94AC
:1011C00022110E948412062F60911F02709120024A
:1011D00080912102909122020E94B5126B017C0144
:1011E0006091AF027091B0028091B1029091B20211
:1011F0000E94B5129B01AC01C701B6010E942211E9
:101200000E948412162F8090A7029090A802A090AE
:10121000A902B090AA02602F70E090E080E00E94E6
:10122000B512A50194010E94D8136B017C01C092F4
:10123000B302D092B402E092B502F092B602612FEE
:1012400070E090E080E00E94B512A50194010E9438
:10125000D8134B015C018092B7029092B802A09221
:10126000B902B092BA026091140270911502809195
:101270001602909117020E94B5120E947D1260938F
:10128000AB027093AC028093AD029093AE0260917A
:101290001F027091200280912102909122020E94EF
:1012A000B5120E947D126093AF027093B0028093DA
:1012B000B1029093B202A5019401C701B6010E9448
:1012C000011220915B0230915C0240915D025091CD
:1012D0005E022D833E834F83588787FF9BC1C09258
:1012E0003702D0923802E0923902F0923A028092AC
:1012F0003B0290923C02A0923D02B0923E0211E06D
:1013000080903B0290903C02A0903D02B0903E0243
:101310008091370290913802A0913902B0913A023F
:1013200089879A87AB87BC879C01AD01C501B40151
:101330000E9422116D877E878F87988BC0902B0229
:10134000D0902C02E0902D02F0902E02A701960181
:10135000C701B6010E9423119B01AC016D857E85FA
:101360008F8598890E940B122B013C014092330219
:1013700050923402609235027092360229853A8585
:101380004B855C85C501B4010E942311A70196011C
:101390000E94D8132D853E854F8558890E940B12D7
:1013A0004B015C0180922F0290923002A092310298
:1013B000B092320220915702309158024091590266
:1013C00050915A0229873A874B875C8750582D875E
:1013D0003E874F87588B8D819E81AF81B8858093E2
:1013E000470290934802A0934902B0934A02209387
:1013F0004B0230934C0240934D0250934E0229858C
:101400003A854B855C8520934F0230935002409380
:101410005102509352028093530290935402A0932E
:101420005502B0935602C301B2010E9445146B01EC
:101430007C01A50194010E94D813698B7A8B8B8B58
:101440009C8BC301B2010E9406122B013C011123A7
:1014500009F447C320E030E040E85FE30E94221136
:10146000A50194010E94D81360935F0270936002FB
:101470008093610290936202F7FAF094F7F8F09487
:10148000C0925702D0925802E0925902F0925A024A
:10149000C0905F02D0906002E0906102F090620222
:1014A000A70196016D817E818F8198850E94D81356
:1014B0004B015C0129853A854B855C8569897A8970
:1014C0008B899C890E94D8139B01AC01C501B40192
:1014D0000E94231160935F02709360028093610207
:1014E00090936202A70196016D857E858F8598890C
:1014F0000E94D8136B017C012D813E814F8158855C
:1015000069897A898B899C890E94D8139B01AC01D7
:10151000C701B6010E9423116093630270936402B5
:101520008093650290936602C0905702D090580253
:10153000E0905902F0905A02A70196016D817E81D8
:101540008F8198850E94D8134B015C0129853A85CB
:101550004B855C85C301B2010E94D8139B01AC018D
:10156000C501B4010E942311609357027093580281
:101570008093590290935A02A70196016D857E854A
:101580008F8598890E94D8136B017C012D813E8143
:101590004F815885C301B2010E94D8139B01AC0151
:1015A000C701B6010E94231160935B0270935C0235
:1015B00080935D0290935E026BC080E086CD8FEFDA
:1015C00084CD80E08FCD8FEF8DCD683D69F420E034
:1015D00030E040E252EC209397023093980240931F
:1015E000990250939A02ABCD062E000C770B880B14
:1015F000990B0E94B51220E030E040E251E40E94D5
:101600000B126093970270939802809399029093C3
:101610009A0295CDA5019401C701B6010E94CB1392
:10162000181694F48092370290923802A0923902F0
:10163000B0923A02C0923B02D0923C02E0923D024C
:10164000F0923E0210E05CCEA70196016091570235
:10165000709158028091590290915A020E94D813B9
:1016600060935F02709360028093610290936202C4
:10167000A70196016D817E818F8198850E94D81384
:101680006093630270936402809365029093660294
:101690008091970290919802A0919902B0919A023C
:1016A0008D839E83AF83B88720E030E04EED52E417
:1016B000BC01CD010E940112811128C220E030E05E
:1016C0004EED52E420936702309368024093690222
:1016D00050936A0220936B0230936C0240936D0228
:1016E00050936E028090630290906402A090650215
:1016F000B09066022091D8023091D9024091DA026E
:101700005091DB0260915F027091600280916102F2
:10171000909162020E9423116B017C01C092D80259
:10172000D092D902E092DA02F092DB022091DC0240
:101730003091DD024091DE025091DF02C501B4011B
:101740000E9423114B015C018092DC029092DD0229
:10175000A092DE02B092DF02C092CC02D092CD0203
:10176000E092CE02F092CF028092D0029092D1020B
:10177000A092D202B092D30288E0E7E6F2E0A0E0C5
:10178000B3E001900D928A95E1F7409000035090EC
:101790000103609002037090030320E030E04EEDFF
:1017A00052E4C301B2010E9401128823A1F1A701F2
:1017B0009601C301B2010E9423112B013C0140920A
:1017C0000003509201036092020370920303209180
:1017D0000403309105034091060350910703C501AE
:1017E000B4010E9423116093040370930503809356
:1017F0000603909307034092F4025092F502609220
:10180000F6027092F7026093F8027093F9028093E7
:10181000FA029093FB0288E0E7E5F2E0ACEEB2E07A
:1018200001900D928A95E1F78091EC029091ED0282
:10183000A091EE02B091EF0289879A87AB87BC87AF
:101840008093E0029093E102A093E202B093E3025E
:101850004090F0025090F1026090F2027090F3021A
:101860004092E4025092E5026092E6027092E70232
:1018700020E030E04EED52E46D817E818F819885CD
:101880000E9401128111A1C181E080931503809112
:101890001503882309F47FC0C0901603D090170366
:1018A000E0901803F090190320E030E040E85FE397
:1018B000C701B6010E940112811157C2C090E00217
:1018C000D090E102E090E202F090E3028091BF024A
:1018D0009091C002A091C102B091C2028D839E83FB
:1018E000AF83B8872091E4023091E5024091E6028F
:1018F0005091E70229873A874B875C878090C30223
:101900009090C402A090C502B090C6029C01AD01A7
:10191000C701B6010E94D8132B013C01A501940117
:1019200069857A858B859C850E94D8139B01AC01C3
:10193000C301B2010E9423112B013C01A5019401B6
:10194000C701B6010E94D8136B017C0129853A8535
:101950004B855C856D817E818F8198850E94D8132F
:101960009B01AC01C701B6010E942211A3019201A3
:101970000E94A2116B017C0120E030E0A9010E94CD
:10198000011287FDE1C1C092BB02D092BC02E0927D
:10199000BD02F092BE022091A5023091A602809174
:1019A0001A0390911B03A0911C03B0911D03820F99
:1019B000931FA11DB11D4091A1025091A2026091FF
:1019C000A3027091A402481759076A077B07A0F188
:1019D000C0909702D0909802E0909902F0909A02FD
:1019E0001091CB0220E030E040E252E4C701B601A2
:1019F0000E940112811142C2612F82E192E00E9495
:101A0000310360E08DE192E00E9431038091A102F8
:101A10009091A202A091A302B091A40280931A0314
:101A200090931B03A0931C03B0931D0344EF51E05C
:101A30005093A6024093A5023A822982ACE4B1E019
:101A4000BC83AB836CEC72E0CE0101960E94B203C2
:101A50003A82298221E531E03C832B8360ED72E0FC
:101A6000CE0101960E94B2033A82298246E551E0F6
:101A70005C834B8360EE72E0CE0101960E94B2035C
:101A80003A8229828BE591E09C838B8364EE72E03D
:101A9000CE0101960E94B2033A822982A0E6B1E00B
:101AA000BC83AB8364EF72E0CE0101960E94B20367
:101AB0003A82298226E631E03C832B8368EF72E08C
:101AC000CE0101960E94B20380E090E0892B09F4D8
:101AD00011CB0E94B001882309F40CCB0E940000B6
:101AE00009CBAC019B0160E070E080E89FE30E94BD
:101AF0002211A50194010E94D81360935F02709394
:101B000060028093610290936202BACCC09043025B
:101B1000D0904402E0904502F090460220914B02A2
:101B200030914C0240914D0250914E026D817E8168
:101B30008F8198850E94D8134B015C01209153023C
:101B4000309154024091550250915602C701B6019E
:101B50000E94D8139B01AC01C501B4010E9423115E
:101B60004B015C01209147023091480240914902AB
:101B700050914A026D817E818F8198850E94D81391
:101B80002B013C0120914F023091500240915102B3
:101B900050915202C701B6010E94D8139B01AC01BB
:101BA000C301B2010E94231160936702709368021F
:101BB0008093690290936A0280926B0290926C0209
:101BC000A0926D02B0926E028DCD1092150320E0AE
:101BD00030E040E051E469857A858B859C850E94E0
:101BE000D813A70196010E9423116B017C01C092BA
:101BF0000803D0920903E0920A03F0920B0320E05D
:101C000030E040E051E4C301B2010E94D813A501C5
:101C100094010E9423114B015C0180920C0390926D
:101C20000D03A0920E03B0920F03A70196016091DD
:101C3000F4027091F5028091F6029091F7020E94F1
:101C400022116B017C01C092BF02D092C002E092CF
:101C5000C102F092C202A50194016091F802709154
:101C6000F9028091FA029091FB020E9422114B012D
:101C70005C018092C3029092C402A092C502B0920D
:101C8000C60229853A854B855C85C701B6010E944D
:101C9000D8136D837E838F839887A3019201C5013A
:101CA000B4010E94D8139B01AC016D817E818F81AC
:101CB00098850E9423116D837E838F839887298561
:101CC0003A854B855C85C501B4010E94D8134B0150
:101CD0005C01A3019201C701B6010E94D8139B01C8
:101CE000AC01C501B4010E9422112D813E814F81BA
:101CF00058850E94A2116093BB027093BC0280932E
:101D0000BD029093BE0220E030E0A9010E94CB13F7
:101D100087FD0DC080E090E0A0E8BFE3809316034C
:101D200090931703A0931803B0931903B0CD20E04C
:101D300030E040E85FEB20931603309317034093A5
:101D4000180350931903A3CD2BED3FE049EC50E469
:101D5000C701B6010E9423116093BB027093BC02BD
:101D60008093BD029093BE0216CE20E030E040E8A2
:101D70005FEBC701B6010E94011281110CCEC09029
:101D8000E002D090E102E090E202F090E302809164
:101D9000BF029091C002A091C102B091C2028D8396
:101DA0009E83AF83B8872091E4023091E502409191
:101DB000E6025091E70229873A874B875C8780903B
:101DC000C3029090C402A090C502B090C6029C01CC
:101DD000AD01C701B6010E94D8132B013C01A5013A
:101DE000940169857A858B859C850E94D8139B0117
:101DF000AC01C301B2010E9423112B013C01A501DA
:101E00009401C701B6010E94D8136B017C0129859A
:101E10003A854B855C856D817E818F8198850E9496
:101E2000D8139B01AC01C701B6010E942211A30186
:101E300092010E94A2116B017C012BED3FE049EC65
:101E400050E40E9423114B015C0120E030E0A90125
:101E50000E94CB1318164CF08092BB029092BC02E9
:101E6000A092BD02B092BE0296CD2BED3FE049ECB0
:101E700050E4C701B6010E9422116ECF20E030E08D
:101E800040E252ECC701B6010E940112811121C04B
:101E9000612F8DE192E00E94310360E082E192E0E7
:101EA0000E9431038091A1029091A202A091A3020D
:101EB000B091A40280931A0390931B03A0931C0378
:101EC000B0931D0384EF91E09093A6028093A50246
:101ED000B3CD60919F027091A00290E080E00E94DB
:101EE000B3122B013C012091BB023091BC02409106
:101EF000BD025091BE0260E070E0CB010E94221151
:101F00004B015C0120911E0330911F03409120037F
:101F1000509121030E94D8136D8B7E8B8F8B988FED
:101F2000A5019401C301B2010E94D813209122039C
:101F30003091230340912403509125030E94D8132C
:101F400020912E0330912F034091300350913103A3
:101F50000E9423116B017C0120E030E0A901C30144
:101F6000B2010E94CB1318160CF0DEC02091320390
:101F7000309133034091340350913503C501B401CE
:101F80000E942211A30192010E940B1220912603AC
:101F90003091270340912803509129030E94D813C0
:101FA000698B7A8B8B8B9C8B40902A0350902B03F0
:101FB00060902C0370902D0320E030E0A901C30154
:101FC000B2010E940112882309F1A3019201C70105
:101FD000B6010E94CB1318160CF4ABC0CD82D98683
:101FE0000E2DFD8673016201F7FAF094F7F8F09474
:101FF0002D813985402F5D85C701B6010E94CB1325
:10200000181624F0CD80D984E02EFD84C0922E03D2
:10201000D0922F03E0923003F0923103809232038A
:1020200090923303A0923403B0923503A701960136
:102030006D897E898F89988D0E94231129893A891B
:102040004B895C890E9423116D837E838F839887DF
:10205000612F70E090E080E00E94B5122B013C01FE
:102060002D813E814F8158850E94D8136B017C01E0
:10207000AC019B01C301B2010E9423114B015C0121
:10208000A7019601C301B2010E9422116B017C01DC
:1020900020E030E0A901C501B4010E94011287FDD2
:1020A0004DC0A5019401C301B2010E94011287FF36
:1020B00008C0612F70E090E080E00E94B3124B01F5
:1020C0005C0120E030E0A901C701B6010E940112C5
:1020D00087FD38C0A7019601C301B2010E94011219
:1020E00087FF08C0612F70E090E080E00E94B3128B
:1020F0006B017C0120E030E0A9016D817E818F8140
:1021000098850E94011287FF21C0C501B4010E9479
:10211000841282E192E00E9431036091CB028DE152
:1021200092E00E94310388CC198A1A8A1B8A1C8A81
:102130003BCF4D825986062D7D8654CF812C912C24
:102140005401BFCFC12CD12C7601D4CF20E030E098
:10215000A9016D817E818F8198850E94CB1387FDB7
:102160006BCC612F82E192E00E943103C701B6017E
:102170000E948412D4CFFF920F931F93CF93DF93CB
:10218000C0917702D091780260917A0270917B02BF
:102190006115710579F0DB018D919C9190937B0223
:1021A00080937A02E881F9810280F381E02DCE01EB
:1021B0000995EACF0091770210917802F12C609195
:1021C0008C0270918D0280918E02F816C8F4B4E0F2
:1021D000FB9EE0011124C60FD71F6A817B81611528
:1021E000710541F0D801ED91FC910280F381E02D61
:1021F000C80109951B821A8218821982F394DFCFD5
:1022000010928E028FEF80939002B2E06C377B07C2
:1022100069F0D801ED91FC910280F381E02DC801B5
:10222000DF91CF911F910F91FF900994DF91CF9192
:102230001F910F91FF900895EE0FFF1F0590F491ED
:10224000E02D09945058BB27AA270E943A110C94FC
:102250007D130E94441338F00E944B1320F039F490
:102260009F3F19F426F40C941A130EF4E095E7FB43
:102270000C941413E92F0E94A21358F3BA176207A3
:1022800073078407950720F079F4A6F50C94C4131E
:102290000EF4E0950B2EBA2FA02D0B01B901900181
:1022A0000C01CA01A0011124FF27591B99F0593FC5
:1022B00050F4503E68F11A16F040A22F232F342F0D
:1022C0004427585FF3CF469537952795A795F0405B
:1022D0005395C9F77EF41F16BA0B620B730B840B70
:1022E000BAF09150A1F0FF0FBB1F661F771F881F28
:1022F000C2F70EC0BA0F621F731F841F48F4879580
:1023000077956795B795F7959E3F08F0B0CF939571
:10231000880F08F09927EE0F9795879508950E94EA
:10232000441360F080E891E009F49EEF0E944B13A3
:1023300028F040E851E071F45EEF0CC00C941A13E1
:102340000C94C413E92FE0780E94A21340F3092EE5
:10235000052AB1F3261737074807590738F00E2E1C
:1023600007F8E02569F0E025E0640AC0EF6307F8AC
:10237000009407FADB01B9019D01DC01CA01AD013E
:10238000EF930E9422120E947D130E94D2115F914E
:10239000552339F02BED3FE049E450FD49EC0C9416
:1023A00023110895DF93DD27B92FBF7740E85FE35E
:1023B0001616170648075B0718F4D92F0E94D0138A
:1023C0009F938F937F936F930E944D14E8E6F0E004
:1023D0000E941D130E947D132F913F914F915F9199
:1023E0000E94EB13DD2351F09058A2EA2AED3FE062
:1023F00049EC5FE3D0785D270E943A11DF910C949D
:102400007D130E94F01208F481E008950E94541395
:10241000E3950C948E130E941F120C947D130E945E
:102420004B1358F00E94441340F029F45F3F29F009
:102430000C94141351110C94C5130C941A130E948C
:10244000A21368F39923B1F3552391F3951B550B10
:10245000BB27AA2762177307840738F09F5F5F4F77
:10246000220F331F441FAA1FA9F335D00E2E3AF0B6
:10247000E0E832D091505040E695001CCAF72BD0CE
:10248000FE2F29D0660F771F881FBB1F261737071F
:102490004807AB07B0E809F0BB0B802DBF01FF2751
:1024A00093585F4F3AF09E3F510578F00C94141307
:1024B0000C94C5135F3FE4F3983ED4F3869577956B
:1024C0006795B795F7959F5FC9F7880F911D96950A
:1024D000879597F90895E1E0660F771F881FBB1F66
:1024E000621773078407BA0720F0621B730B840B13
:1024F000BA0BEE1F88F7E09508950E948412689445
:10250000B1110C94C51308950E94AA1388F09F5727
:1025100098F0B92F9927B751B0F0E1F0660F771F07
:10252000881F991F1AF0BA95C9F714C0B13091F0FD
:102530000E94C413B1E008950C94C413672F782F40
:102540008827B85F39F0B93FCCF3869577956795C2
:10255000B395D9F73EF490958095709561957F4F2E
:102560008F4F9F4F0895E89409C097FB3EF49095D4
:102570008095709561957F4F8F4F9F4F9923A9F05C
:10258000F92F96E9BB279395F695879577956795EB
:10259000B795F111F8CFFAF4BB0F11F460FF1BC02F
:1025A0006F5F7F4F8F4F9F4F16C0882311F096E9C2
:1025B00011C0772321F09EE8872F762F05C0662370
:1025C00071F096E8862F70E060E02AF09A95660F29
:1025D000771F881FDAF7880F9695879597F90895E2
:1025E000990F0008550FAA0BE0E8FEEF1616170624
:1025F000E807F907C0F012161306E407F50798F08C
:10260000621B730B840B950B39F40A2661F0232BA4
:10261000242B252B21F408950A2609F4A140A69520
:102620008FEF811D811D089597F99F6780E870E005
:1026300060E008959FEF80EC0895DF93CF931F93A0
:102640000F93FF92EF92DF927B018C01689406C09A
:10265000DA2EEF010E94EB13FE01E894A59125917B
:10266000359145915591A6F3EF010E943A11FE0173
:102670009701A801DA9469F7DF90EF90FF900F912E
:102680001F91CF91DF91089500240A941616170622
:1026900018060906089500240A9412161306140653
:1026A000050608950C941A130E94AA13D8F3E8940F
:1026B000E0E0BB279F57F0F02AED3FE049EC06C071
:1026C000EE0FBB0F661F771F881F28F0B23A620714
:1026D0007307840728F0B25A620B730B840BE395DF
:1026E0009A9572F7803830F49A95BB0F661F771F62
:1026F000881FD2F790480C945314092E0394000CB1
:1027000011F4882352F0BB0F40F4BF2B11F460FF8B
:1027100004C06F5F7F4F8F4F9F4F0895EF93E0FF8F
:1027200007C0A2EA2AED3FE049EC5FEB0E943A11B4
:102730000E947D130F90039401FC9058E5E9F0E0AE
:102740000C945F1457FD9058440F551F59F05F3F8C
:1027500071F04795880F97FB991F61F09F3F79F0C3
:1027600087950895121613061406551FF2CF469545
:10277000F1DF08C0161617061806991FF1CF8695C7
:102780007105610508940895E894BB2766277727AB
:10279000CB0197F908950E94F01208F48FEF089585
:1027A0009B01AC0160E070E080E89FE30C940B12A9
:1027B0000E94EB130C947D130E94441338F00E9486
:1027C0004B1320F0952311F00C9414130C941A134E
:1027D00011240C94C5130E94A21370F3959FC1F3AA
:1027E000950F50E0551F629FF001729FBB27F00DBF
:1027F000B11D639FAA27F00DB11DAA1F649F662714
:10280000B00DA11D661F829F2227B00DA11D621F62
:10281000739FB00DA11D621F839FA00D611D221F1C
:10282000749F3327A00D611D231F849F600D211D00
:10283000822F762F6A2F11249F5750409AF0F1F083
:1028400088234AF0EE0FFF1FBB1F661F771F881FEC
:1028500091505040A9F79E3F510580F00C941413FD
:102860000C94C5135F3FE4F3983ED4F386957795B7
:102870006795B795F795E7959F5FC1F7FE2B880F92
:10288000911D9695879597F908959F930E945413EB
:102890000F9007FCEE5F0C948E139B01AC010C941F
:1028A000D8139F3F31F0915020F487957795679525
:1028B000B795880F911D9695879597F908959F93E1
:1028C0008F937F936F93FF93EF939B01AC010E94D3
:1028D000D813EF91FF910E941D132F913F914F91BB
:1028E0005F910C94D8130F931F93CF93DF93823093
:1028F000910510F482E090E0E0913803F091390303
:1029000030E020E0B0E0A0E0309799F421153105E7
:1029100009F44AC0281B390B24303105D8F58A81C7
:102920009B816115710589F1FB0193838283FE010F
:1029300011C0408151810281138148175907E0F08D
:102940004817590799F4109761F012960C93129753
:1029500013961C933296CF01DF91CF911F910F9167
:1029600008950093380310933903F4CF21153105EE
:1029700051F04217530738F0A901DB019A01BD015C
:10298000DF01F801C1CFEF01F9CF909339038093B4
:102990003803CDCFFE01E20FF31F819391932250B4
:1029A000310939832883D7CF2091360330913703FB
:1029B000232B41F420912C0130912D0130933703CA
:1029C0002093360320912A0130912B0121153105E6
:1029D00041F42DB73EB740912E0150912F01241B99
:1029E000350BE0913603F0913703E217F307A0F4BB
:1029F0002E1B3F0B2817390778F0AC014E5F5F4F55
:102A00002417350748F04E0F5F1F5093370340934C
:102A10003603819391939FCFF0E0E0E09CCFCF937A
:102A2000DF930097E9F0FC01329713821282A091A4
:102A30003803B0913903ED0130E020E01097A1F4A4
:102A400020813181820F931F20913603309137030B
:102A50002817390709F061C0F0933703E093360374
:102A6000DF91CF910895EA01CE17DF07E8F54A819B
:102A70005B819E0141155105B1F7E901FB83EA83B2
:102A800049915991C40FD51FEC17FD0761F480815E
:102A900091810296840F951FE90199838883828131
:102AA00093819B838A83F0E0E0E012968D919C9164
:102AB00013970097B9F52D913C911197CD0102968E
:102AC000820F931F2091360330913703281739075F
:102AD00039F6309751F51092390310923803B093BC
:102AE0003703A0933603BCCFD383C2834081518187
:102AF000840F951FC817D90761F44E5F5F4F888117
:102B00009981480F591F518340838A819B81938308
:102B100082832115310509F0B0CFF0933903E0939A
:102B200038039ECFFD01DC01C0CF13821282D7CFC4
:102B3000B0E0A0E0EEE9F5E10C9460168C0100979E
:102B400051F4CB010E9473148C01C801CDB7DEB7DC
:102B5000E0E10C947C16FC01E60FF71F9C0122506B
:102B60003109E217F30708F49DC0D901CD91DC913A
:102B70001197C617D70798F0C530D10530F3CE01AD
:102B800004978617970708F3C61BD70B2297C193A4
:102B9000D1936D937C93CF010E940F15D6CF5B012B
:102BA000AC1ABD0A4C018C0E9D1EA0913803B09149
:102BB0003903512C412CF12CE12C109731F58091E7
:102BC0003603909137038815990509F05CC04616C5
:102BD000570608F058C080912A0190912B01009768
:102BE00041F48DB79EB740912E0150912F01841B67
:102BF000950BE817F90708F055C0F0933703E093F9
:102C00003603F90171836083A0CF8D919C91119758
:102C100012966C90129713967C901397A815B9058D
:102C200059F56C0142E0C40ED11CCA14DB0420F13A
:102C3000AC014A195B09DA011296159780F062829D
:102C4000738251834083D9016D937C93E114F10425
:102C500071F0D7011396FC93EE93129776CF2296DC
:102C60008C0F9D1FF90191838083F301EFCFF093C7
:102C70003903E093380369CF4816590608F42C014C
:102C80007D01D3019ACFCB010E9473147C01009780
:102C900049F0AE01B8010E945516C8010E940F15F7
:102CA000870153CF10E000E050CFFB01DC0102C0F0
:102CB00001900D9241505040D8F708952F923F92C5
:102CC0004F925F926F927F928F929F92AF92BF923C
:102CD000CF92DF92EF92FF920F931F93CF93DF93E8
:102CE000CDB7DEB7CA1BDB0B0FB6F894DEBF0FBE45
:102CF000CDBF09942A88398848885F846E847D8492
:102D00008C849B84AA84B984C884DF80EE80FD8093
:102D10000C811B81AA81B981CE0FD11D0FB6F89409
:102D2000DEBF0FBECDBFED01089510E0C3E8D0E0D7
:102D300004C0FE010E941C112196C438D107C9F7B6
:042D4000F894FFCF35
:102D4400450145013401000040400000000000003E
:102D5400000000004041000080410000000000002D
:102D640000400000E8410209030A00003A03800021
:102D740000000000FC04F904F50400000000E60172
:102D8400460173013302A401820196016361725802
:102D94000063617259006469725800646972590071
:0C2DA4006C696E6558006C696E65590022
:00000001FF
