:100000000C946C000C94A9030C9482030C9494003F
:100010000C9494000C9494000C9494000C94940010
:100020000C9494000C9494000C9494000C94940000
:100030000C9494000C9494000C9494000C949400F0
:100040000C9438030C9494000C94F6030C94D00395
:100050000C9494000C9494000C9494000C949400D0
:100060000C9494000C94940005A84CCDB2D44EB9D5
:100070003836A9020C50B9918688083CA6AAAA2A4B
:10008000BE000000803F00000000240027002A007E
:1000900000000000250028002B00040404040404D0
:1000A0000404020202020202030303030303010227
:1000B00004081020408001020408102001020408F6
:1000C00010200000000800020100000304070000E7
:1000D000000000000000D10411241FBECFEFD8E0C3
:1000E000DEBFCDBF11E0A0E0B1E0E2E1FDE102C082
:1000F00005900D92A234B107D9F722E0A2E4B1E055
:1001000001C01D92AE3BB207E1F710E0CCE6D0E0B3
:1001100004C02197FE010E94A90BCB36D107C9F775
:100120000E9422060C94870E0C9400008230B8F4D2
:10013000E82FF0E0EE0FFF1FE050FF4F7183608368
:10014000813039F080916900836080936900E89A7A
:100150000895809169008C6080936900E99A089500
:10016000CF93DF9390E0FC01E255FF4F2491865638
:100170009F4FFC0184918823D1F090E0880F991F54
:10018000FC01EA57FF4FA591B491FC01E057FF4FE6
:10019000C591D49161110EC09FB7F8948C91E22F54
:1001A000E0958E238C932881E223E8839FBFDF9123
:1001B000CF9108958FB7F894EC91E22BEC938FBF19
:1001C000F6CF0895AF92BF92CF92DF92EF92FF9257
:1001D0000F931F93CF93DF936C017B018B01040F6F
:1001E000151FEB015E01AE18BF08C017D10759F00B
:1001F0006991D601ED91FC910190F081E02DC6014D
:100200000995892B79F7C501DF91CF911F910F9146
:10021000FF90EF90DF90CF90BF90AF900895FC01DA
:10022000538D448D252F30E0842F90E0821B930B5B
:10023000541710F0CF96089501970895FC01918D01
:10024000828D981761F0A28DAE0FBF2FB11D5D9604
:100250008C91928D9F5F9F73928F90E008958FEFA6
:100260009FEF0895FC01918D828D981731F0828D5A
:10027000E80FF11D858D90E008958FEF9FEF0895B1
:10028000FC01918D228D892F90E0805C9F4F821B15
:1002900091098F739927089587E491E00E944001A6
:1002A00021E0892B09F420E0822F089580E090E07E
:1002B000892B29F00E944C0181110C9400000895B3
:1002C000FC01A48DA80FB92FB11DA35ABF4F2C91CB
:1002D000848D90E001968F739927848FA689B789C2
:1002E0002C93A089B1898C91837080648C93938DB9
:1002F000848D981306C00288F389E02D80818F7D5C
:1003000080830895EF92FF920F931F93CF93DF9313
:10031000EC0181E0888F9B8D8C8D98131AC0E88941
:10032000F989808185FF15C09FB7F894EE89FF8910
:100330006083E889F98980818370806480839FBFAE
:1003400081E090E0DF91CF911F910F91FF90EF90AE
:100350000895F62E0B8D10E00F5F1F4F0F731127BE
:10036000E02E8C8D8E110CC00FB607FCFACFE889F9
:10037000F989808185FFF5CFCE010E946001F1CF20
:10038000EB8DEC0FFD2FF11DE35AFF4FF0829FB76D
:10039000F8940B8FEA89FB8980818062CFCFCF935D
:1003A000DF93EC01888D8823B9F0AA89BB89E8899D
:1003B000F9898C9185FD03C0808186FD0DC00FB643
:1003C00007FCF7CF8C9185FFF2CF808185FFEDCFC1
:1003D000CE010E946001E9CFDF91CF910895E8EE50
:1003E000F1E085859685A785B0890196A11DB11D8F
:1003F00085879687A787B08B0895E8EEF1E0828124
:100400009381A481B5810196A11DB11D828393833F
:10041000A483B5830895FC0101900020E9F731978A
:10042000AF01481B590BBC0187E491E00C94E2003A
:100430008F929F92AF92BF920F931F93CF93DF93B0
:10044000CDB7DEB7A1970FB6F894DEBF0FBECDBF14
:1004500019A2423008F44AE08E010F5D1F4F842E2E
:10046000912CB12CA12CA50194010E947B0BE62FAD
:10047000B901CA01EA30F4F4E05DD801EE938D01D0
:10048000232B242B252B79F790E080E0109719F08F
:10049000CD010E940B02A1960FB6F894DEBF0FBEED
:1004A000CDBFDF91CF911F910F91BF90AF909F90E3
:1004B0008F900895E95CE1CF4F925F926F927F92A7
:1004C0008F929F92AF92BF92CF92DF92EF92FF9264
:1004D0000F931F93CF936B017C01742EAC019B0192
:1004E0000E94390E882399F08EE291E0CF911F91FE
:1004F0000F91FF90EF90DF90CF90BF90AF909F90C3
:100500008F907F906F905F904F900C940B024601FC
:100510005701E894B7F82FEF3FEF4FE75FE7C501CA
:10052000B4010E94390E81110DC02FEF3FEF4FE74C
:100530005FE7C501B4010E941C0C18161CF482E38D
:1005400091E0D4CF2FEF3FEF4FE75FE4C701B60153
:100550000E94BF0D18161CF486E391E0C7CF2FEF61
:100560003FEF4FE75FECC701B6010E941C0C87FD0F
:10057000F3CF20E030E0A901C701B6010E941C0CB6
:1005800010E000E087FF0AC06DE287E491E00E947E
:1005900082018C01F7FAF094F7F8F094C0E060E083
:1005A00070E080E09FE37C1641F020E030E040E224
:1005B00051E40E94260CCF5FF6CFA70196010E945E
:1005C000B00B2B013C010E949F0C4B015C014AE0E7
:1005D0000E9418027C01E00EF11ECC23C1F1C5017E
:1005E000B4010E94CE0C9B01AC01C301B2010E9478
:1005F000AF0B4B015C016EE287E491E00E94820147
:10060000E80EF91EC15018F120E030E040E251E45C
:10061000C501B4010E94C40D2B013C010E949F0C36
:100620004B01B12CA12C4AE0C501B4010E94180273
:10063000E80EF91EC501B4010E94CE0C9B01AC016D
:10064000C301B2010E94AF0B4B015C01DBCFC701BC
:10065000CF911F910F91FF90EF90DF90CF90BF90BF
:10066000AF909F908F907F906F905F904F90089584
:100670001F920F920FB60F9211242F933F938F93D7
:100680009F93AF93BF938091E4019091E501A09176
:10069000E601B091E7013091460123E0230F2D37A9
:1006A00058F50196A11DB11D209346018093E401E8
:1006B0009093E501A093E601B093E7018091420198
:1006C00090914301A0914401B09145010196A11D73
:1006D000B11D8093420190934301A0934401B093D4
:1006E0004501BF91AF919F918F913F912F910F90B5
:1006F0000FBE0F901F90189526E8230F0296A11D9C
:10070000B11DD2CF1F920F920FB60F9211242F93CB
:100710003F934F935F936F937F938F939F93AF9389
:10072000BF93EF93FF93E0910201F09103010995CC
:10073000FF91EF91BF91AF919F918F917F916F91B9
:100740005F914F913F912F910F900FBE0F901F908F
:1007500018951F920F920FB60F9211242F933F936B
:100760004F935F936F937F938F939F93AF93BF93B9
:10077000EF93FF93E0910001F09101010995FF9142
:10078000EF91BF91AF919F918F917F916F915F9109
:100790004F913F912F910F900FBE0F901F90189582
:1007A0001F920F920FB60F9211242F933F934F93E6
:1007B0005F936F937F938F939F93AF93BF93EF93C9
:1007C000FF9387E491E00E946001FF91EF91BF9158
:1007D000AF919F918F917F916F915F914F913F91D9
:1007E0002F910F900FBE0F901F9018951F920F9290
:1007F0000FB60F9211242F938F939F93EF93FF9334
:10080000E0915701F09158018081E0915D01F091F4
:100810005E0182FD1BC09081809160018F5F8F73AC
:1008200020916101821741F0E0916001F0E0E95B05
:10083000FE4F958F80936001FF91EF919F918F9173
:100840002F910F900FBE0F901F9018958081F4CFBD
:1008500090E0FC01EE53FF4F2491FC01E255FF4F65
:100860003491FC01E656FF4FE491EE23C9F02223B8
:1008700039F0233001F1A8F4213019F1223029F1A7
:10088000F0E0EE0FFF1FE057FF4FA591B4918FB737
:10089000F894EC91611126C030953E233C938FBFB4
:1008A00008952730A9F02830C9F0243049F7809105
:1008B00080008F7D03C0809180008F7780938000BF
:1008C000DFCF84B58F7784BDDBCF84B58F7DFBCF41
:1008D0008091B0008F778093B000D2CF8091B0002C
:1008E0008F7DF9CF3E2BDACF1F93CF93DF93182F55
:1008F000EB0161E00E94B000209739F460E0812FA5
:10090000DF91CF911F910C942804CF3FD10511F4B2
:1009100061E0F5CFE12FF0E0EE53FF4FE491E330DB
:1009200031F140F4E130B1F0E230E1F0C038D1050E
:100930007CF7E4CFE73029F1E83059F1E430B1F742
:1009400080918000806280938000D0938B00C09360
:100950008A0004C084B5806884BDC7BDDF91CF9193
:100960001F91089584B5806284BDC8BDF7CF809182
:100970008000806880938000D0938900C0938800B5
:10098000EDCF8091B00080688093B000C093B30039
:10099000E5CF8091B00080628093B000C093B40036
:1009A000DDCF0F931F93CF93DF93E7E4F1E0138242
:1009B000128288EE93E0A0E0B0E084839583A68362
:1009C000B78380E291E09183808385EC90E0958706
:1009D000848784EC90E09787868780EC90E0918B09
:1009E000808B81EC90E0938B828B82EC90E0958BF6
:1009F000848B86EC90E0978B868B118E128E138EF3
:100A0000148E0AE111E0F8018081C8EED1E0282FB0
:100A100030E0398328831A821B821C821D8260E0A9
:100A20000E94B000F80181818A8760E00E94B000D6
:100A300008E111E0F8018081282F30E03C872B8706
:100A40001D861E861F86188A60E00E94B000F8018D
:100A500081818D8B60E00E94B00084E68E8B1DAAA0
:100A60001EAA1FAA18AE19AE1AAE1BAE1CAE10926B
:100A7000250210922602109227021092280210924C
:100A8000290210922A0210922B0210922C0210922C
:100A90002D0210922E0210922F021092300280E04E
:100AA00090E0A0E8BFE38093310290933202A093DC
:100AB0003302B09334021092350210923602109233
:100AC0003702109238021092390210923A021092B4
:100AD0003B0210923C0210923D0210923E02109294
:100AE0003F02109240021092410210924202109274
:100AF00043021092440204E011E020E030E040E0C4
:100B00005FE3F80164817581868197810E94C40D3D
:100B1000698F7A8F8B8F9C8FF80180819181A28160
:100B2000B38189AB9AABABABBCAB10928E02109287
:100B30008F021092900210929102109292021092E3
:100B4000930210929402109295021092A2021092B7
:100B5000A3021092A4021092A5021092A602109273
:100B6000A7021092A8021092A9021092B602109247
:100B7000B7021092B8021092B9021092BA02109203
:100B8000BB021092BC021092BD022FB7F894609184
:100B9000E4017091E5018091E6019091E7012FBF9A
:100BA0000E94CE0C60936202709363028093640291
:100BB000909365026A817B818C819D810E94D00C1B
:100BC0000E94980C60937202709373028093740277
:100BD000909375026D857E858F8598890E94D00CD3
:100BE0000E94980C6093760270937702809378024B
:100BF000909379022BED3FE049E450E4F8016485DD
:100C00007585868597850E94C40DF80120893189F4
:100C1000428953890E94260C60936E0270936F0282
:100C2000809370029093710270E060E08A850E9468
:100C3000740470E060E08D89DF91CF911F910F9176
:100C40000C947404CF93DF93CDB7DEB761970FB6E2
:100C5000F894DEBF0FBECDBF789484B5826084BDAA
:100C600084B5816084BD85B5826085BD85B58160B0
:100C700085BD80916E00816080936E00109281002E
:100C800080918100826080938100809181008160E9
:100C900080938100809180008160809380008091AA
:100CA000B10084608093B1008091B0008160809336
:100CB000B00080917A00846080937A0080917A00FD
:100CC000826080937A0080917A00816080937A00BC
:100CD00080917A00806880937A001092C100E09140
:100CE0005701F091580182E08083E0915301F09127
:100CF00054011082E0915501F09156018FEC8083F0
:100D000010925F01E0915B01F0915C0186E08083CD
:100D1000E0915901F0915A01808180618083E091D6
:100D20005901F0915A01808188608083E0915901D6
:100D3000F0915A01808180688083E0915901F0919F
:100D40005A0180818F7D808380911A01823009F45D
:100D50008BC2833009F08AC281E06DEF71E00E949E
:100D6000960080911801823009F482C2833009F024
:100D700081C281E06FEE71E00E94960000E010E019
:100D800087E491E00E9440011816190634F487E4C4
:100D900091E00E941E0180935D0280915D026AE0F5
:100DA0000E946D0B682F880F770B880B990B0E94A0
:100DB000D00C60935E0270935F0280936002909308
:100DC000610242E00E945C028AE391E00E940B0211
:100DD0002FB7F8946091E4017091E5018091E601EC
:100DE0009091E7012FBF0E94CE0C6B017C01C09255
:100DF0006A02D0926B02E0926C02F0926D02209136
:100E000062023091630240916402509165020E9437
:100E1000AF0B6093660270936702809368029093B1
:100E20006902C0926202D0926302E0926402F09280
:100E300065026091EA017091EB018091EC01909163
:100E4000ED010E94D00C6B017C01609172027091E7
:100E5000730280917402909175020E94D00C9B01E4
:100E6000AC01C701B6010E94AF0B0E949F0CF62E89
:100E70006091F5017091F6018091F7019091F80170
:100E80000E94D00C4B015C01609176027091770258
:100E900080917802909179020E94D00C9B01AC0164
:100EA000C501B4010E94AF0B0E949F0C6983809022
:100EB0006E0290906F02A0907002B09071026F2D40
:100EC00070E090E080E00E94D00CA50194010E94A7
:100ED000C40D6B017C01C0927A02D0927B02E09239
:100EE0007C02F0927D022981622F70E090E080E028
:100EF0000E94D00CA50194010E94C40D4B015C011D
:100F000080927E0290927F02A0928002B092810233
:100F10006091EA017091EB018091EC019091ED01FB
:100F20000E94D00C0E94980C60937202709373021E
:100F300080937402909375026091F5017091F601AF
:100F40008091F7019091F8010E94D00C0E94980CBA
:100F5000609376027093770280937802909379027F
:100F6000A5019401C701B6010E941C0C2091310219
:100F700030913202409133025091340229833A83F6
:100F80004B835C8387FF78C1C0920D02D0920E0222
:100F9000E0920F02F09210028092110290921202DF
:100FA000A0921302B092140231E0398B80901102AA
:100FB00090901202A0901302B090140280910D0242
:100FC00090910E02A0910F02B09110028D839E832A
:100FD000AF83B8879C01AD01C501B4010E94AF0B7E
:100FE00069877A878B879C87C0900102D090020224
:100FF000E0900302F0900402A7019601C701B60138
:101000000E94B00B9B01AC0169857A858B859C851C
:101010000E94260C2B013C014092090250920A02C8
:1010200060920B0270920C022D813E814F81588597
:10103000C501B4010E94B00BA70196010E94C40D26
:1010400029853A854B855C850E94260C6B017C01C5
:10105000C0920502D0920602E0920702F0920802C6
:1010600020912D0230912E0240912F02509130029A
:101070002D833E834F835887505829873A874B8763
:101080005C8789819A81AB81BC8180931D0290939A
:101090001E02A0931F02B0932002209321023093DE
:1010A000220240932302509324022D813E814F81DE
:1010B00058852093250230932602409327025093AF
:1010C00028028093290290932A02A0932B02B093C6
:1010D0002C02C301B2010E94310E4B015C01A70139
:1010E00096010E94C40D6D877E878F87988BC30100
:1010F000B2010E94210C2B013C013989332309F4F0
:10110000D7C220E030E040E85FE30E94AF0BA701C8
:1011100096010E94C40D609335027093360280934D
:10112000370290933802B7FAB094B7F8B09480922F
:101130002D0290922E02A0922F02B0923002C09007
:101140003502D0903602E0903702F0903802A701C5
:10115000960169817A818B819C810E94C40D4B012B
:101160005C012D853E854F8558896D817E818F81FB
:1011700098850E94C40D9B01AC01C501B4010E9479
:10118000B00B6093350270933602809337029093D0
:101190003802A701960169857A858B859C850E9416
:1011A000C40D6B017C012D853E854F855889698171
:1011B0007A818B819C810E94C40D9B01AC01C70187
:1011C000B6010E94B00B6093390270933A0280938B
:1011D0003B0290933C02C0902D02D0902E02E090F2
:1011E0002F02F0903002A701960169817A818B81EC
:1011F0009C810E94C40D4B015C01A30192016D8191
:101200007E818F8198850E94C40D9B01AC01C50130
:10121000B4010E94B00B60932D0270932E02809354
:101220002F0290933002A701960169857A858B85FC
:101230009C850E94C40D6B017C01A3019201698110
:101240007A818B819C810E94C40D9B01AC01C701F6
:10125000B6010E94B00B609331027093320280930A
:1012600033029093340246C080E077CD8FEF75CD86
:1012700080E080CD8FEF7ECDA5019401C701B6013E
:101280000E94BF0D181694F480920D0290920E02E7
:10129000A0920F02B0921002C0921102D0921202DC
:1012A000E0921302F0921402198A80CEA7019601EF
:1012B00060912D0270912E0280912F029091300248
:1012C0000E94C40D609335027093360280933702FA
:1012D00090933802A701960169817A818B819C8164
:1012E0000E94C40D6093390270933A0280933B02CE
:1012F00090933C0260915E0270915F028091600267
:1013000090916102C0901902D0901A02E0901B02E5
:10131000F0901C0260933D0270933E0280933F0266
:1013200090934002C0924102D0924202E092430266
:10133000F092440242E00E945C028AE391E00E9443
:101340000B026091410270914202809143029091A0
:10135000440242E00E945C028AE391E00E940B0298
:1013600040903D0250903E0260903F0270904002DB
:101370008090410290904202A0904302B0904402BB
:1013800020911D0230911E0240911F0250912002B7
:10139000C301B2010E94C40D6B017C0120912502A2
:1013A000309126024091270250912802C501B401D4
:1013B0000E94C40D9B01AC01C701B6010E94B00B95
:1013C0006B017C0120912102309122024091230285
:1013D00050912402C301B2010E94C40D2B013C01B3
:1013E0002091290230912A0240912B0250912C0227
:1013F000C501B4010E94C40D9B01AC01C301B2013F
:101400000E94B00BC0923D02D0923E02E0923F0299
:10141000F092400260934102709342028093430233
:101420009093440242E0C701B6010E945C028AE345
:1014300091E00E940B026091410270914202809102
:1014400043029091440242E00E945C028AE391E0F0
:101450000E940B028090390290903A02A0903B02C9
:10146000B0903C0220913502309136024091370213
:101470005091380260918E0270918F02809190029B
:10148000909191020E94B00B6B017C01C0928E0280
:10149000D0928F02E0929002F092910220919202FB
:1014A000309193024091940250919502C501B4018C
:1014B0000E94B00B4B015C018092920290929302C9
:1014C000A0929402B0929502C0928202D0928302BE
:1014D000E0928402F09285028092860290928702C6
:1014E000A0928802B092890288E0EDE3F2E0A6EBD8
:1014F000B2E001900D928A95E1F72091B602309109
:10150000B7024091B8025091B902C701B6010E94DA
:10151000B00B6B017C01C092B602D092B702E09290
:10152000B802F092B9022091BA023091BB02409108
:10153000BC025091BD02C501B4010E94B00B609382
:10154000BA027093BB028093BC029093BD02C0921A
:10155000AA02D092AB02E092AC02F092AD0260938C
:10156000AE027093AF028093B0029093B10242E05A
:10157000C701B6010E945C028AE391E00E940B025F
:101580006091AE027091AF028091B0029091B10271
:1015900042E00E945C028AE391E00E940B028EE32B
:1015A00091E00E940B0288E0EDE2F2E0A2EAB2E0F4
:1015B00001900D928A95E1F74091A2025091A30209
:1015C0006091A4027091A5024093960250939702F5
:1015D00060939802709399028091A6029091A7025D
:1015E000A091A802B091A90280939A0290939B02C5
:1015F000A0939C02B0939D02C0908202D09083027F
:10160000E0908402F0908502C0924502D09246029A
:10161000E0924702F0924802C0908602D090870282
:10162000E0908802F0908902C0924902D0924A026A
:10163000E0924B02F0924C0240934D0250934E02C6
:1016400060934F0270935002809351029093520224
:10165000A0935302B09354028091AA029091AB02DE
:10166000A091AC02B091AD028093550290935602C6
:10167000A0935702B09358028091AE029091AF02AE
:10168000A091B002B091B1028093590290935A0296
:10169000A0935B02B0935C020115110509F470CBB5
:1016A0000E944C01882309F46BCB0E94000068CB98
:1016B000AC019B0160E070E080E89FE30E94AF0B0B
:1016C000A70196010E94C40D609335027093360203
:1016D00080933702909338022ACD87FB082E062686
:1016E00087FD819567FD61950E949D0B0EF4919594
:1016F00007FC81950895A1E21A2EAA1BBB1BFD01D0
:101700000DC0AA1FBB1FEE1FFF1FA217B307E407E0
:10171000F50720F0A21BB30BE40BF50B661F771F38
:10172000881F991F1A9469F7609570958095909518
:101730009B01AC01BD01CF010895991B79E004C064
:10174000991F961708F0961B881F7A95C9F7809500
:101750000895EE0FFF1F0590F491E02D0994505865
:10176000BB27AA270E94C70B0C94710D0E94380D4D
:1017700038F00E943F0D20F039F49F3F19F426F411
:101780000C94350D0EF4E095E7FB0C942F0DE92F2A
:101790000E94960D58F3BA176207730784079507DE
:1017A00020F079F4A6F50C94B80D0EF4E0950B2E0C
:1017B000BA2FA02D0B01B90190010C01CA01A001A3
:1017C0001124FF27591B99F0593F50F4503E68F1FE
:1017D0001A16F040A22F232F342F4427585FF3CF3F
:1017E000469537952795A795F0405395C9F77EF410
:1017F0001F16BA0B620B730B840BBAF09150A1F059
:10180000FF0FBB1F661F771F881FC2F70EC0BA0FDE
:10181000621F731F841F48F4879577956795B79566
:10182000F7959E3F08F0B0CF9395880F08F0992761
:10183000EE0F9795879508950E940B0D08F481E0AF
:1018400008950E94480DE3950C94820D0E943A0C75
:101850000C94710D0E943F0D58F00E94380D40F01D
:1018600029F45F3F29F00C942F0D51110C94B90D00
:101870000C94350D0E94960D68F39923B1F355230E
:1018800091F3951B550BBB27AA2762177307840793
:1018900038F09F5F5F4F220F331F441FAA1FA9F329
:1018A00035D00E2E3AF0E0E832D091505040E69517
:1018B000001CCAF72BD0FE2F29D0660F771F881F78
:1018C000BB1F261737074807AB07B0E809F0BB0B6B
:1018D000802DBF01FF2793585F4F3AF09E3F51057F
:1018E00078F00C942F0D0C94B90D5F3FE4F3983E03
:1018F000D4F3869577956795B795F7959F5FC9F768
:10190000880F911D9695879597F90895E1E0660FE8
:10191000771F881FBB1F621773078407BA0720F061
:10192000621B730B840BBA0BEE1F88F7E0950895CA
:101930000E949F0C6894B1110C94B90D08950E94F7
:101940009E0D88F09F5798F0B92F9927B751B0F0A6
:10195000E1F0660F771F881F991F1AF0BA95C9F733
:1019600014C0B13091F00E94B80DB1E008950C940C
:10197000B80D672F782F8827B85F39F0B93FCCF3BF
:10198000869577956795B395D9F73EF490958095B0
:10199000709561957F4F8F4F9F4F0895E89409C0D0
:1019A00097FB3EF490958095709561957F4F8F4F92
:1019B0009F4F9923A9F0F92F96E9BB279395F695A8
:1019C000879577956795B795F111F8CFFAF4BB0F26
:1019D00011F460FF1BC06F5F7F4F8F4F9F4F16C08A
:1019E000882311F096E911C0772321F09EE8872F14
:1019F000762F05C0662371F096E8862F70E060E0D0
:101A00002AF09A95660F771F881FDAF7880F969548
:101A1000879597F90895990F0008550FAA0BE0E8EC
:101A2000FEEF16161706E807F907C0F012161306A0
:101A3000E407F50798F0621B730B840B950B39F4E0
:101A40000A2661F0232B242B252B21F408950A2646
:101A500009F4A140A6958FEF811D811D089597F986
:101A60009F6780E870E060E008959FEF80EC089544
:101A700000240A941616170618060906089500246D
:101A80000A94121613061406050608950C94350DD3
:101A90000E949E0DD8F3E894E0E0BB279F57F0F03A
:101AA0002AED3FE049EC06C0EE0FBB0F661F771F23
:101AB000881F28F0B23A62077307840728F0B25AE9
:101AC000620B730B840BE3959A9572F7803830F4B0
:101AD0009A95BB0F661F771F881FD2F790480C940A
:101AE000400E092E0394000C11F4882352F0BB0F12
:101AF00040F4BF2B11F460FF04C06F5F7F4F8F4F26
:101B00009F4F0895EF93E0FF07C0A2EA2AED3FE060
:101B100049EC5FEB0E94C70B0E94710D0F9003947C
:101B200001FC9058E8E6F0E00C944C0E57FD9058FC
:101B3000440F551F59F05F3F71F04795880F97FB91
:101B4000991F61F09F3F79F087950895121613064B
:101B50001406551FF2CF4695F1DF08C0161617067A
:101B60001806991FF1CF86957105610508940895AF
:101B7000E894BB2766277727CB0197F908950E9441
:101B80000B0D08F48FEF08950E94D70D0C94710D82
:101B90000E94380D38F00E943F0D20F0952311F07F
:101BA0000C942F0D0C94350D11240C94B90D0E943A
:101BB000960D70F3959FC1F3950F50E0551F629FEE
:101BC000F001729FBB27F00DB11D639FAA27F00D96
:101BD000B11DAA1F649F6627B00DA11D661F829FBD
:101BE0002227B00DA11D621F739FB00DA11D621FA2
:101BF000839FA00D611D221F749F3327A00D611DBF
:101C0000231F849F600D211D822F762F6A2F1124A0
:101C10009F5750409AF0F1F088234AF0EE0FFF1FD3
:101C2000BB1F661F771F881F91505040A9F79E3F2A
:101C3000510580F00C942F0D0C94B90D5F3FE4F327
:101C4000983ED4F3869577956795B795F795E79580
:101C50009F5FC1F7FE2B880F911D9695879597F989
:101C600008959F930E94480D0F9007FCEE5F0C941F
:101C7000820D0E940B0D880B990B08959F3F31F048
:101C8000915020F4879577956795B795880F911DAA
:101C90009695879597F908959F938F937F936F9368
:101CA000FF93EF939B01AC010E94C40DEF91FF9154
:101CB0000E94600E2F913F914F915F910C94C40D43
:101CC000DF93CF931F930F93FF92EF92DF927B01ED
:101CD0008C01689406C0DA2EEF010E94D70DFE0138
:101CE000E894A5912591359145915591A6F3EF0181
:101CF0000E94C70BFE019701A801DA9469F7DF90F3
:101D0000EF90FF900F911F91CF91DF910895F8947C
:021D1000FFCF03
:101D1200E100E100000040410000804100000000BD
:101D22000000004000001A430209030A00000000FC
:101D32008201E2000F01CF0140011E0132016E61FA
:101D42006E00696E66006F766600207C20000D0AC8
:021D520000008F
:00000001FF
