:100000000C9484000C9468050C9441050C94AC008D
:100010000C94AC000C94AC000C94AC000C94AC00B0
:100020000C94AC000C94AC000C94AC000C94AC00A0
:100030000C94AC000C94AC000C94AC000C94AC0090
:100040000C94F7040C94AC000C94B5050C948F053B
:100050000C94AC000C94AC000C94AC000C94AC0070
:100060000C94AC000C94AC00084AD73B3BCE016E1C
:1000700084BCBFFDC12F3D6C74319ABD56833DDAFF
:100080003D00C77F11BED9E4BB4C3E916BAAAABE0E
:10009000000000803F05A84CCDB2D44EB93836A937
:1000A000020C50B9918688083CA6AAAA2ABE000074
:1000B00000803F0000000000240027002A0000000C
:1000C0000000250028002B00040404040404040498
:1000D00002020202020203030303030301020408F3
:1000E00010204080010204081020010204081020A2
:1000F00000000008000201000003040700000000E7
:1001000000000000E705A50E11241FBECFEFD8E0C8
:10011000DEBFCDBF11E0A0E0B1E0E8E1F9E202C04E
:1001200005900D92AC36B107D9F723E0ACE6B1E00B
:1001300001C01D92A432B207E1F710E0C3E8D0E09D
:1001400004C02197FE010E94060FC238D107C9F7EB
:100150000E94D5070C947F140C9400008230B8F4F0
:10016000E82FF0E0EE0FFF1FE050FF4F7183608338
:10017000813039F080916900836080936900E89A4A
:100180000895809169008C6080936900E99A0895D0
:1001900090E0FC01E051FF4F2491FC01E452FF4F3D
:1001A0003491FC01E853FF4FE491EE23C9F0222380
:1001B00039F0233001F1A8F4213019F1223029F16E
:1001C000F0E0EE0FFF1FE254FF4FA591B4918FB7FF
:1001D000F894EC91611126C030953E233C938FBF7B
:1001E00008952730A9F02830C9F0243049F78091CC
:1001F00080008F7D03C0809180008F778093800086
:10020000DFCF84B58F7784BDDBCF84B58F7DFBCF07
:100210008091B0008F778093B000D2CF8091B000F2
:100220008F7DF9CF3E2BDACFCF93DF9390E0FC01A7
:10023000E452FF4F249188539F4FFC0184918823FF
:10024000D1F090E0880F991FFC01EC54FF4FA5916D
:10025000B491FC01E254FF4FC591D49161110EC0DD
:100260009FB7F8948C91E22FE0958E238C93288190
:10027000E223E8839FBFDF91CF9108958FB7F89471
:10028000EC91E22BEC938FBFF6CF1F93CF93DF93CC
:10029000182FEB0161E00E941401209739F460E00F
:1002A000812FDF91CF911F910C94C800CF3FD105D2
:1002B00011F461E0F5CFE12FF0E0E051FF4FE49160
:1002C000E33031F140F4E130B1F0E230E1F0C03838
:1002D000D1057CF7E4CFE73029F1E83059F1E4307B
:1002E000B1F780918000806280938000D0938B0072
:1002F000C0938A0004C084B5806884BDC7BDDF9107
:10030000CF911F91089584B5806284BDC8BDF7CF99
:1003100080918000806880938000D0938900C09392
:100320008800EDCF8091B00080688093B000C093CA
:10033000B300E5CF8091B00080628093B000C0939D
:10034000B400DDCF0895AF92BF92CF92DF92EF92CB
:10035000FF920F931F93CF93DF936C017B018B016F
:10036000040F151FEB015E01AE18BF08C017D107BF
:1003700059F06991D601ED91FC910190F081E02D49
:10038000C6010995892B79F7C501DF91CF911F919E
:100390000F91FF90EF90DF90CF90BF90AF900895B6
:1003A000FC01538D448D252F30E0842F90E0821B7B
:1003B000930B541710F0CF96089501970895FC0100
:1003C000918D828D981761F0A28DAE0FBF2FB11D58
:1003D0005D968C91928D9F5F9F73928F90E00895B0
:1003E0008FEF9FEF0895FC01918D828D981731F06A
:1003F000828DE80FF11D858D90E008958FEF9FEFBE
:100400000895FC01918D228D892F90E0805C9F4F93
:10041000821B91098F739927089581E791E00E94CB
:10042000010221E0892B09F420E0822F089580E069
:1004300090E0892B29F00E940D0281110C9400009C
:100440000895FC01A48DA80FB92FB11DA35ABF4F69
:100450002C91848D90E001968F739927848FA689C3
:10046000B7892C93A089B1898C91837080648C9317
:10047000938D848D981306C00288F389E02D8081C6
:100480008F7D80830895EF92FF920F931F93CF93F8
:10049000DF93EC0181E0888F9B8D8C8D98131AC0BF
:1004A000E889F989808185FF15C09FB7F894EE89A6
:1004B000FF896083E889F989808183708064808303
:1004C0009FBF81E090E0DF91CF911F910F91FF904E
:1004D000EF900895F62E0B8D10E00F5F1F4F0F73F6
:1004E0001127E02E8C8D8E110CC00FB607FCFACFB1
:1004F000E889F989808185FFF5CFCE010E9421022C
:10050000F1CFEB8DEC0FFD2FF11DE35AFF4FF08281
:100510009FB7F8940B8FEA89FB8980818062CFCFE7
:10052000CF93DF93EC01888D8823B9F0AA89BB892A
:10053000E889F9898C9185FD03C0808186FD0DC015
:100540000FB607FCF7CF8C9185FFF2CF808185FF36
:10055000EDCFCE010E942102E9CFDF91CF91089526
:100560006F3FB1F0E62FE295EF7044E0E49F900119
:100570001124DC01ED91FC91E20FF31F6F70B8E0E4
:100580006B9FC001112462817381860F971F0895AC
:1005900090E080E00895FC019289915084E0989F5A
:1005A00090011124A089B189A20FB31F1296ED9179
:1005B000FC9113973097E9F011962C9111978C913B
:1005C0002817B8F481E0820F11968C9388E0289F59
:1005D000A0011124E40FF51F309759F014828FEF1A
:1005E000858317821682BF01892F8295807F820FB3
:1005F000089560E070E08FEF0895CF93DF93EC01F2
:10060000A881B981F0E0E0E0109741F1CD010496B6
:1006100068177907F1F412969C91129791501296EF
:100620009C93129791111AC08D919C9111973097BC
:1006300069F091838083EA01E881F9810280F38186
:10064000E02DBD01CA01DF91CF9109949983888380
:10065000F2CFFD010D90BC91A02DD6CFDF91CF91AF
:1006600008958F929F92AF92BF92CF92DF92EF92B6
:10067000FF920F931F93CF93DF938C01EB01FC014B
:10068000848180FF0AC048815981608171816C5FDB
:100690007F4FCE0103960E94FD02F801848180768F
:1006A00081F10115110569F1D0805E01F5E1AF0E10
:1006B000B11C4E0183E0880E911CEFEFDE16F1F0C5
:1006C0006D2DC5010E94B0027C01FC01C5808481B2
:1006D00087FF07C04881598166817781C4010E94E4
:1006E000FD02BE01C7010E943103F70184818078B9
:1006F0008483898D8583D98EDC2CDFCFF801D0826D
:10070000D182DF91CF911F910F91FF90EF90DF90F9
:10071000CF90BF90AF909F908F900895E2E1F2E06C
:1007200085859685A785B0890196A11DB11D858710
:100730009687A787B08B0895E2E1F2E082819381EA
:10074000A481B5810196A11DB11D82839383A483E9
:10075000B58308953F924F925F926F927F928F92EE
:100760009F92AF92BF92CF92DF92EF92FF920F9340
:100770001F93CF93DF933C012B01DC010D911C9162
:10078000063EBFEF1B0709F1FC01E280F380E11494
:10079000F104D9F0D8015E968C915E97982F9F77DF
:1007A00091F4807880625E968C935E978FEF5A9674
:1007B0008C935A975B968C935801B5E1AB0EB11CA4
:1007C000F801628D43C085FDF7CFD301ED91FC9117
:1007D00080E0309719F0828191E08927DF91CF91F5
:1007E0001F910F91FF90EF90DF90CF90BF90AF904F
:1007F0009F908F907F906F905F904F903F90089563
:100800006D81209749F1EE81FF81D7010D90002085
:10081000E9F7CD0101978E199F09B0E0A0E030976C
:1008200039F0DF010D900020E9F71197AE1BBF0BE7
:100830008A179B0759F4D7019C012E0D3F1D2A17DB
:100840003B0799F18D9191918917C9F3C5010E94D8
:10085000B002EC01892BA1F6D8015996DC90BFEFCC
:10086000DB16A9F16D2DC5010E94B002EC018D814E
:10087000F801818F209709F4A8C01C828FEF8D8327
:100880001F821E82D8015B966C916F3F09F4A1C054
:10089000C5010E94B002FC01D582D8015B96DC92B2
:1008A0008C818F778C83FF82EE82F201C080D180B1
:1008B000E280F380B801CE010E9431038C81807800
:1008C0008C608C83C882D982EA82FB827ECF480109
:1008D000F5E08F0E911CD801CD90DC9011975796C2
:1008E0008C91882349F0C4010E94CB02C62FD72FD8
:1008F000209711F0D82EC6CFF801C789908DC91363
:1009000025C0C03109F461C0CC0F65897689D60154
:10091000ED91FC91B4E0CB9FA001112486169706BF
:1009200009F04BC00190F081E02DBA01C601099594
:10093000009709F44AC020E1F401DC0101900D9216
:100940002A95E1F7F801968B858BC08FD8015596D3
:10095000CD91DC91569757968C91579721E0280FAF
:1009600057962C93B4E08B9FC0011124C80FD91F58
:1009700090E1392E203111F48FE0382EE8E03E9ED0
:10098000B0011124D601ED91FC910190F081E02D90
:10099000C60109959B838A83892B09F4312C3882FF
:1009A0001982CD2B91F0C4010E94CB02C62FD72F04
:1009B000D82E209709F066CF08C00480F581E02D7D
:1009C000C6010995009709F0BDCF81E0F801828347
:1009D000FCCEF801D28ED38E63CFCB01BA010C943A
:1009E0008213CB010C94F912CB010C945D121F926F
:1009F0000F920FB60F9211242F933F938F939F93D3
:100A0000AF93BF9380910E0290910F02A0911002BC
:100A1000B09111023091700123E0230F2D3758F56A
:100A20000196A11DB11D2093700180930E02909339
:100A30000F02A0931002B093110280916C0190916B
:100A40006D01A0916E01B0916F010196A11DB11DC4
:100A500080936C0190936D01A0936E01B0936F0130
:100A6000BF91AF919F918F913F912F910F900FBEAA
:100A70000F901F90189526E8230F0296A11DB11D17
:100A8000D2CF1F920F920FB60F9211242F933F9344
:100A90004F935F936F937F938F939F93AF93BF9386
:100AA000EF93FF93E0910201F09103010995FF910B
:100AB000EF91BF91AF919F918F917F916F915F91D6
:100AC0004F913F912F910F900FBE0F901F9018954F
:100AD0001F920F920FB60F9211242F933F934F93B3
:100AE0005F936F937F938F939F93AF93BF93EF9396
:100AF000FF93E0910001F09101010995FF91EF91C1
:100B0000BF91AF919F918F917F916F915F914F9125
:100B10003F912F910F900FBE0F901F9018951F922D
:100B20000F920FB60F9211242F933F934F935F9321
:100B30006F937F938F939F93AF93BF93EF93FF93A5
:100B400081E791E00E942102FF91EF91BF91AF9167
:100B50009F918F917F916F915F914F913F912F91D5
:100B60000F900FBE0F901F9018951F920F920FB607
:100B70000F9211242F938F939F93EF93FF93E09104
:100B80008101F09182018081E0918701F0918801DB
:100B900082FD1BC0908180918A018F5F8F732091AD
:100BA0008B01821741F0E0918A01F0E0EF58FE4F8F
:100BB000958F80938A01FF91EF919F918F912F9153
:100BC0000F900FBE0F901F9018958081F4CFBF92A9
:100BD000CF92DF92EF92FF920F931F93CF93DF9309
:100BE000E1E7F1E01382128288EE93E0A0E0B0E04A
:100BF00084839583A683B7838EE391E0918380837A
:100C000085EC90E09587848784EC90E097878687D1
:100C100080EC90E0918B808B81EC90E0938B828BC9
:100C200082EC90E0958B848B86EC90E0978B868BA2
:100C3000118E128E138E148E08E211E0F80180815D
:100C4000C2E1D2E0282F30E0398328831A821B8248
:100C50001C821D8260E00E941401F80181818A8754
:100C600060E00E94140106E211E0F8018081282F63
:100C700030E03C872B871D861E861F86188A60E021
:100C80000E941401F80181818D8B60E00E941401A3
:100C900088E7B82EBE8A1DAA1EAA1FAA18AE19AED2
:100CA0001AAE1BAE1CAE10924F0210925002109260
:100CB000510210925202109253021092540210925A
:100CC000550210925602109257021092580210923A
:100CD000590210925A02C12CD12C90E8E92E9FE3C0
:100CE000F92EC0925B02D0925C02E0925D02F0921B
:100CF0005E0210925F0210926002109261021092E6
:100D000062021092630210926402109265021092C5
:100D100066021092670210926802109269021092A5
:100D20006A0210926B0210926C0210926D02109285
:100D30006E0202E111E020E030E040E05FE3F80104
:100D400064817581868197810E94C211698F7A8F33
:100D50008B8F9C8FF80180819181A281B38189ABB7
:100D60009AABABABBCABC0927302D0927402E09270
:100D70007502F0927602C0926F02D0927002E092F9
:100D80007102F092720284E091E090937802809375
:100D900077021092790210927B0210927A028CE70D
:100DA00092E090938D0280938C0210928E0284E0E8
:100DB00080938F028FEF8093900210929502109291
:100DC000D8021092D9021092DA021092DB0210922D
:100DD000DC021092DD021092DE021092DF0210920D
:100DE000EC021092ED021092EE021092EF021092BD
:100DF000F0021092F1021092F2021092F30210929D
:100E00000003109201031092020310920303109248
:100E10000403109205031092060310920703E6E004
:100E2000F1E080859185A285B385448155816681F5
:100E30007781C080D180E280F380C0920803D09295
:100E40000903E0920A03F0920B0340930C035093C2
:100E50000D0360930E0370930F0380931003909320
:100E60001103A0931203B093130310921403109272
:100E70001503109216031092170310921803109284
:100E8000190310921A0310921B0310921C03109264
:100E90001D0310921E0310921F032FB7F894609148
:100EA0000E0270910F0280911002909111022FBFDB
:100EB0000E949D1060939B0270939C0280939D0200
:100EC00090939E026A817B818C819D810E949F10FC
:100ED0000E9467106093AB027093AC028093AD02E6
:100EE0009093AE026D857E858F8598890E949F10B4
:100EF0000E9467106093AF027093B0028093B102BA
:100F00009093B2022BED3FE049E450E4F801648590
:100F10007585868597850E94C211F80120893189DF
:100F2000428953890E94F50F6093A7027093A8022B
:100F30008093A9029093AA02B092CB021092F4027D
:100F40001092F5021092F6021092F7021092F80237
:100F50001092F9021092FA021092FB0280E090E0E7
:100F6000AEEDB2E48093970290939802A093990219
:100F7000B0939A021092BB021092BC021092BD0272
:100F80001092BE0270E060E08A850E94450170E028
:100F900060E08D89DF91CF911F910F91FF90EF90CD
:100FA000DF90CF90BF900C944501CF93DF93CDB7E6
:100FB000DEB764970FB6F894DEBF0FBECDBF78944E
:100FC00084B5826084BD84B5816084BD85B582604E
:100FD00085BD85B5816085BD80916E0081608093FF
:100FE0006E00109281008091810082608093810068
:100FF0008091810081608093810080918000816078
:10100000809380008091B10084608093B1008091D2
:10101000B00081608093B00080917A0084608093FA
:101020007A0080917A00826080937A0080917A00C1
:10103000816080937A0080917A00806880937A0042
:101040001092C100E0918101F091820182E08083E1
:10105000E0917D01F0917E011082E0917F01F0919D
:1010600080018FEC808310928901E0918501F091DD
:10107000860186E08083E0918301F0918401808184
:1010800080618083E0918301F09184018081886098
:101090008083E0918301F091840180818068808366
:1010A000E0918301F091840180818F7D8083809124
:1010B0002801823009F47CC2833009F07BC281E0D0
:1010C0006CE973E00E94AE0080912601823009F441
:1010D00073C2833009F072C281E06EE873E00E944F
:1010E000AE0081E791E00E9401021816190634F45F
:1010F00081E791E00E94DF01809396026091960261
:101100006F3609F05DC220E030E04EED52E42093EE
:101110009702309398024093990250939A022FB706
:10112000F89460910E0270910F02809110029091DC
:1011300011022FBF0E949D106B017C01C092A3027F
:10114000D092A402E092A502F092A60220919B0206
:1011500030919C0240919D0250919E020E940C0F82
:1011600060939F027093A0028093A1029093A202C9
:10117000C0929B02D0929C02E0929D02F0929E024D
:1011800060911402709115028091160290911702DD
:101190000E949F106B017C016091AB027091AC02C8
:1011A0008091AD029091AE020E949F109B01AC0114
:1011B000C701B6010E940C0F0E946E10062F6091AD
:1011C0001F027091200280912102909122020E94C0
:1011D0009F106B017C016091AF027091B002809111
:1011E000B1029091B2020E949F109B01AC01C70115
:1011F000B6010E940C0F0E946E10162F8090A7025D
:101200009090A802A090A902B090AA02602F70E06E
:1012100090E080E00E949F10A50194010E94C211FD
:101220006B017C01C092B302D092B402E092B5028D
:10123000F092B602612F70E090E080E00E949F1073
:10124000A50194010E94C2114B015C018092B7027A
:101250009092B802A092B902B092BA0260911402C0
:101260007091150280911602909117020E949F10B2
:101270000E9467106093AB027093AC028093AD0242
:101280009093AE0260911F02709120028091210222
:10129000909122020E949F100E9467106093AF02FB
:1012A0007093B0028093B1029093B202A5019401B1
:1012B000C701B6010E94EB0F20915B0230915C02E6
:1012C00040915D0250915E022D833E834F8358878B
:1012D00087FF8CC1C0923702D0923802E092390267
:1012E000F0923A0280923B0290923C02A0923D0220
:1012F000B0923E0211E080903B0290903C02A090A0
:101300003D02B0903E028091370290913802A09148
:101310003902B0913A0289879A87AB87BC879C01D2
:10132000AD01C501B4010E940C0F6D877E878F87C8
:10133000988BC0902B02D0902C02E0902D02F09060
:101340002E02A7019601C701B6010E940D0F9B0155
:10135000AC016D857E858F8598890E94F50F2B01E4
:101360003C014092330250923402609235027092F6
:10137000360229853A854B855C85C501B4010E94FA
:101380000D0FA70196010E94C2112D853E854F8544
:1013900058890E94F50F4B015C0180922F029092B8
:1013A0003002A0923102B092320220915702309165
:1013B00058024091590250915A0229873A874B8727
:1013C0005C8750582D873E874F87588B8D819E8133
:1013D000AF81B8858093470290934802A093490259
:1013E000B0934A0220934B0230934C0240934D023B
:1013F00050934E0229853A854B855C8520934F0298
:101400003093500240935102509352028093530202
:1014100090935402A0935502B0935602C301B201B7
:101420000E942F126B017C01A50194010E94C21140
:10143000698B7A8B8B8B9C8BC301B2010E94F00F5E
:101440002B013C01112309F4EEC320E030E040E819
:101450005FE30E940C0FA50194010E94C2116093EA
:101460005F02709360028093610290936202F7FAC8
:10147000F094F7F8F094C0925702D0925802E0929C
:101480005902F0925A02C0905F02D0906002E09040
:101490006102F0906202A70196016D817E818F81C9
:1014A00098850E94C2114B015C0129893A894B89B8
:1014B0005C8969857A858B859C850E94C2119B0118
:1014C000AC01C501B4010E940D0F60935F027093DF
:1014D00060028093610290936202A70196016D857C
:1014E0007E858F8598890E94C2116B017C012989B4
:1014F0003A894B895C896D817E818F8198850E94B4
:10150000C2119B01AC01C701B6010E940D0F60938F
:101510006302709364028093650290936602C090A8
:101520005702D0905802E0905902F0905A02A70159
:1015300096016D817E818F8198850E94C2114B0139
:101540005C0129853A854B855C85C301B2010E9407
:10155000C2119B01AC01C501B4010E940D0F609343
:101560005702709358028093590290935A02A70130
:1015700096016D857E858F8598890E94C2116B01C9
:101580007C012D813E814F815885C301B2010E94AB
:10159000C2119B01AC01C701B6010E940D0F6093FF
:1015A0005B0270935C0280935D0290935E025CC06C
:1015B00080E086CD8FEF84CD80E08FCD8FEF8DCD15
:1015C000062E000C770B880B990B0E949F1020E0D1
:1015D00030E040E251E40E94F50F6093970270936F
:1015E00098028093990290939A0299CDA501940153
:1015F000C701B6010E94B511181694F48092370203
:1016000090923802A0923902B0923A02C0923B0204
:10161000D0923C02E0923D02F0923E0210E06BCE8E
:10162000A70196016091570270915802809159026A
:1016300090915A020E94C21160935F0270936002FF
:101640008093610290936202A70196016D817E8171
:101650008F8198850E94C211609363027093640227
:101660008093650290936602C0909702D090980292
:10167000E0909902F0909A0220E030E04EED52E4C2
:10168000C701B6010E94EB0F8111E2C280E090E039
:10169000AEEDB2E48093670290936802A093690272
:1016A000B0936A0280936B0290936C02A0936D02D8
:1016B000B0936E028090630290906402A0906502E5
:1016C000B09066022091D8023091D9024091DA029E
:1016D0005091DB0260915F02709160028091610223
:1016E000909162020E940D0F6B017C01C092D802A2
:1016F000D092D902E092DA02F092DB022091DC0271
:101700003091DD024091DE025091DF02C501B4014B
:101710000E940D0F4B015C018092DC029092DD0271
:10172000A092DE02B092DF02C092CC02D092CD0233
:10173000E092CE02F092CF028092D0029092D1023B
:10174000A092D202B092D30288E0E7E6F2E0A0E0F5
:10175000B3E001900D928A95E1F74090000350901C
:101760000103609002037090030320E030E04EED2F
:1017700052E4C301B2010E94EB0F8823A1F1A7013B
:101780009601C301B2010E940D0F2B013C01409252
:1017900000035092010360920203709203032091B0
:1017A0000403309105034091060350910703C501DE
:1017B000B4010E940D0F609304037093050380939E
:1017C0000603909307034092F4025092F502609250
:1017D000F6027092F7026093F8027093F902809318
:1017E000FA029093FB0288E0E7E5F2E0ACEEB2E0AB
:1017F00001900D928A95E1F72091EC023091ED0273
:101800004091EE025091EF022D833E834F83588723
:101810002093E0023093E1024093E2025093E3020E
:101820008091F0029091F102A091F202B091F30246
:1018300089879A87AB87BC878093E4029093E502FF
:10184000A093E602B093E702A70196016091F4022B
:101850007091F5028091F6029091F7020E940C0FB0
:101860006B017C01C092BF02D092C002E092C10223
:10187000F092C202A50194016091F8027091F90200
:101880008091FA029091FB020E940C0F4B015C01C7
:101890008092C3029092C402A092C502B092C60286
:1018A0002D813E814F815885C701B6010E94C2112A
:1018B0002B013C0129853A854B855C85C501B40126
:1018C0000E94C2119B01AC01C301B2010E940D0F25
:1018D0002B013C012D813E814F815885C501B4010A
:1018E0000E94C2114B015C0129853A854B855C85BC
:1018F000C701B6010E94C2119B01AC01C501B40130
:101900000E940C0FA30192010E948C0F9B01AC015D
:101910002093BB023093BC024093BD025093BE02A1
:1019200040909F025090A0026090A1027090A2028D
:1019300060E070E0CB010E940C0F4B015C01209134
:1019400008033091090340910A0350910B030E9450
:10195000C21169877A878B879C87A5019401C3018F
:10196000B2010E94C21120910C0330910D034091ED
:101970000E0350910F030E94C21120911803309161
:10198000190340911A0350911B030E940D0F6B0124
:101990007C0120E030E0A901C301B2010E94B51131
:1019A00018160CF0B0C120911C0330911D0340911A
:1019B0001E0350911F03C501B4010E940C0FA30127
:1019C00092010E94F50F2091100330911103409174
:1019D0001203509113030E94C2116D837E838F8383
:1019E00098874090140350901503609016037090F0
:1019F000170320E030E0A901C301B2010E94EB0F00
:101A00008823E1F0A3019201C701B6010E94B5113C
:101A100016018701181614F4120183017301620183
:101A2000F7FAF094F7F8F0949101A801C701B60114
:101A30000E94B511181614F061017801C0921803C4
:101A4000D0921903E0921A03F0921B0380921C03B8
:101A500090921D03A0921E03B0921F03A70196014E
:101A600069857A858B859C850E940D0F2D813E812D
:101A70004F8158850E940D0F6D837E838F839887D9
:101A80001091CB02212E312CB101032C000C880BBC
:101A9000990B0E949F102B013C012D813E814F81AB
:101AA00058850E94C2116B017C01AC019B01C301EE
:101AB000B2010E940D0F4B015C01A7019601C30109
:101AC000B2010E940C0F6B017C0120E030E0A90103
:101AD000C501B4010E94EB0F87FD1AC1A501940155
:101AE000C301B2010E94EB0F87FF08C0612F70E0B5
:101AF00090E080E00E949D104B015C0120E030E00E
:101B0000A901C701B6010E94EB0F87FD05C1A7011E
:101B10009601C301B2010E94EB0F87FF08C0612F3D
:101B200070E090E080E00E949D106B017C0120E05D
:101B300030E0A9016D817E818F8198850E94EB0F35
:101B400087FFEEC0C501B4010E946E1070E0809165
:101B50001C020E9445016091CB0270E08091270237
:101B60000E944501A7E7B2E0BA83A9832CE431E0E3
:101B70003C832B836CEC72E0CE0101960E94AA0399
:101B800047E752E05A83498381E591E09C838B8348
:101B900060ED72E0CE0101960E94AA03A7E7B2E0D1
:101BA000BA83A98326E531E03C832B8360EE72E0A3
:101BB000CE0101960E94AA0347E752E05A83498367
:101BC0008BE591E09C838B8364EE72E0CE010196FD
:101BD0000E94AA03A7E7B2E0BA83A98320E631E016
:101BE0003C832B8364EF72E0CE0101960E94AA032E
:101BF00047E752E05A83498386E691E09C838B83D2
:101C000068EF72E0CE0101960E94AA03A0E0B0E066
:101C1000AB2B09F466CA0E940D02882309F461CA3D
:101C20000E9400005ECAAC019B0160E070E080E8A9
:101C30009FE30E940C0FA50194010E94C2116093C2
:101C40005F0270936002809361029093620213CCF2
:101C50008090430290904402A0904502B0904602CA
:101C600020914B0230914C0240914D0250914E0216
:101C7000C701B6010E94C2112B013C012091530201
:101C8000309154024091550250915602C501B40161
:101C90000E94C2119B01AC01C301B2010E940D0F51
:101CA0002B013C01209147023091480240914902AA
:101CB00050914A02C701B6010E94C2116B017C011A
:101CC00020914F02309150024091510250915202A6
:101CD000C501B4010E94C2119B01AC01C701B6014C
:101CE0000E940D0F609367027093680280936902EF
:101CF00090936A0240926B0250926C0260926D0265
:101D000070926E02D7CC1D821E821F82188669CE09
:101D1000812C912C5401F2CEC12CD12C760107CF0D
:101D200020E030E0A9016D817E818F8198850E943D
:101D3000B51187FD17CFB10180911C020E944501AA
:101D4000C701B6010E946E1008CFFF920F931F9338
:101D5000CF93DF93C0917702D091780260917A029D
:101D600070917B026115710579F0DB018D919C9179
:101D700090937B0280937A02E881F9810280F3815B
:101D8000E02DCE010995EACF0091770210917802FB
:101D9000F12C60918C0270918D0280918E02F81668
:101DA000C8F4B4E0FB9EE0011124C60FD71F6A817E
:101DB0007B816115710541F0D801ED91FC910280A4
:101DC000F381E02DC80109951B821A8218821982BD
:101DD000F394DFCF10928E028FEF80939002B2E0E7
:101DE0006C377B0769F0D801ED91FC910280F3819B
:101DF000E02DC801DF91CF911F910F91FF900994C1
:101E0000DF91CF911F910F91FF900895EE0FFF1F6B
:101E10000590F491E02D09945058BB27AA270E9401
:101E2000240F0C9467110E942E1138F00E94351176
:101E300020F039F49F3F19F426F40C9404110EF4A9
:101E4000E095E7FB0C94FE10E92F0E948C1158F3EB
:101E5000BA17620773078407950720F079F4A6F58F
:101E60000C94AE110EF4E0950B2EBA2FA02D0B01A1
:101E7000B90190010C01CA01A0011124FF27591BCF
:101E800099F0593F50F4503E68F11A16F040A22FD5
:101E9000232F342F4427585FF3CF46953795279546
:101EA000A795F0405395C9F77EF41F16BA0B620B45
:101EB000730B840BBAF09150A1F0FF0FBB1F661F8C
:101EC000771F881FC2F70EC0BA0F621F731F841FCF
:101ED00048F4879577956795B795F7959E3F08F0F5
:101EE000B0CF9395880F08F09927EE0F97958795B7
:101EF00008950E942E1160F080E891E009F49EEFB1
:101F00000E94351128F040E851E071F45EEF0CC0FA
:101F10000C9404110C94AE11E92FE0780E948C11FE
:101F200040F3092E052AB1F326173707480759074A
:101F300038F00E2E07F8E02569F0E025E0640AC0CD
:101F4000EF6307F8009407FADB01B9019D01DC019A
:101F5000CA01AD01EF930E940C100E9467110E940C
:101F6000BC0F5F91552339F02BED3FE049E450FD64
:101F700049EC0C940D0F0895DF93DD27B92FBF773F
:101F800040E85FE31616170648075B0718F4D92FD9
:101F90000E94BA119F938F937F936F930E94371281
:101FA000E8E6F0E00E9407110E9467112F913F912F
:101FB0004F915F910E94D511DD2351F09058A2EA14
:101FC0002AED3FE049EC5FE3D0785D270E94240FC3
:101FD000DF910C9467110E94DA1008F481E00895F3
:101FE0000E943E11E3950C9478110E9409100C9404
:101FF00067110E94351158F00E942E1140F029F40B
:102000005F3F29F00C94FE1051110C94AF110C9409
:1020100004110E948C1168F39923B1F3552391F3B5
:10202000951B550BBB27AA2762177307840738F047
:102030009F5F5F4F220F331F441FAA1FA9F335D0A4
:102040000E2E3AF0E0E832D091505040E695001C58
:10205000CAF72BD0FE2F29D0660F771F881FBB1F12
:10206000261737074807AB07B0E809F0BB0B802DF0
:10207000BF01FF2793585F4F3AF09E3F510578F01C
:102080000C94FE100C94AF115F3FE4F3983ED4F330
:10209000869577956795B795F7959F5FC9F7880FF0
:1020A000911D9695879597F90895E1E0660F771F42
:1020B000881FBB1F621773078407BA0720F0621BD3
:1020C000730B840BBA0BEE1F88F7E09508950E94FE
:1020D0006E106894B1110C94AF1108950E94941180
:1020E00088F09F5798F0B92F9927B751B0F0E1F0D9
:1020F000660F771F881F991F1AF0BA95C9F714C089
:10210000B13091F00E94AE11B1E008950C94AE117F
:10211000672F782F8827B85F39F0B93FCCF38695C1
:1021200077956795B395D9F73EF49095809570951E
:1021300061957F4F8F4F9F4F0895E89409C097FB9B
:102140003EF490958095709561957F4F8F4F9F4F8E
:102150009923A9F0F92F96E9BB279395F6958795D2
:1021600077956795B795F111F8CFFAF4BB0F11F495
:1021700060FF1BC06F5F7F4F8F4F9F4F16C088233C
:1021800011F096E911C0772321F09EE8872F762F72
:1021900005C0662371F096E8862F70E060E02AF0B3
:1021A0009A95660F771F881FDAF7880F969587959F
:1021B00097F90895990F0008550FAA0BE0E8FEEF74
:1021C00016161706E807F907C0F012161306E407FB
:1021D000F50798F0621B730B840B950B39F40A26F4
:1021E00061F0232B242B252B21F408950A2609F4D2
:1021F000A140A6958FEF811D811D089597F99F67D6
:1022000080E870E060E008959FEF80EC0895DF9330
:10221000CF931F930F93FF92EF92DF927B018C017C
:10222000689406C0DA2EEF010E94D511FE01E894F1
:10223000A5912591359145915591A6F3EF010E9405
:10224000240FFE019701A801DA9469F7DF90EF905F
:10225000FF900F911F91CF91DF91089500240A9470
:102260001616170618060906089500240A94121671
:1022700013061406050608950C9404110E94941187
:10228000D8F3E894E0E0BB279F57F0F02AED3FE059
:1022900049EC06C0EE0FBB0F661F771F881F28F0A2
:1022A000B23A62077307840728F0B25A620B730BC5
:1022B000840BE3959A9572F7803830F49A95BB0FAA
:1022C000661F771F881FD2F790480C943D12092E85
:1022D0000394000C11F4882352F0BB0F40F4BF2B81
:1022E00011F460FF04C06F5F7F4F8F4F9F4F0895C1
:1022F000EF93E0FF07C0A2EA2AED3FE049EC5FEB75
:102300000E94240F0E9467110F90039401FC9058C3
:10231000E5E9F0E00C94491257FD9058440F551F21
:1023200059F05F3F71F04795880F97FB991F61F057
:102330009F3F79F087950895121613061406551FCE
:10234000F2CF4695F1DF08C0161617061806991F3A
:10235000F1CF86957105610508940895E894BB272F
:1023600066277727CB0197F908950E94DA1008F4C1
:102370008FEF08959B01AC0160E070E080E89FE37F
:102380000C94F50F0E94D5110C9467110E942E1128
:1023900038F00E94351120F0952311F00C94FE10B6
:1023A0000C94041111240C94AF110E948C1170F341
:1023B000959FC1F3950F50E0551F629FF001729FEA
:1023C000BB27F00DB11D639FAA27F00DB11DAA1FF9
:1023D000649F6627B00DA11D661F829F2227B00D46
:1023E000A11D621F739FB00DA11D621F839FA00DD1
:1023F000611D221F749F3327A00D611D231F849F21
:10240000600D211D822F762F6A2F11249F57504077
:102410009AF0F1F088234AF0EE0FFF1FBB1F661FF2
:10242000771F881F91505040A9F79E3F510580F0BB
:102430000C94FE100C94AF115F3FE4F3983ED4F37C
:10244000869577956795B795F795E7959F5FC1F75F
:10245000FE2B880F911D9695879597F908959F9368
:102460000E943E110F9007FCEE5F0C9478119B01C7
:10247000AC010C94C2119F3F31F0915020F487952C
:1024800077956795B795880F911D9695879597F9DC
:1024900008959F938F937F936F93FF93EF939B0187
:1024A000AC010E94C211EF91FF910E9407112F9180
:1024B0003F914F915F910C94C2110F931F93CF9353
:1024C000DF938230910510F482E090E0E0912203E6
:1024D000F091230330E020E0B0E0A0E0309799F4E1
:1024E0002115310509F44AC0281B390B2430310568
:1024F000D8F58A819B816115710589F1FB01938370
:102500008283FE0111C040815181028113814817ED
:102510005907E0F04817590799F4109761F012969F
:102520000C93129713961C933296CF01DF91CF91A3
:102530001F910F9108950093220310932303F4CF6A
:102540002115310551F04217530738F0A901DB017D
:102550009A01BD01DF01F801C1CFEF01F9CF9093DE
:10256000230380932203CDCFFE01E20FF31F81935B
:1025700091932250310939832883D7CF20912003AA
:1025800030912103232B41F420912C0130912D0116
:10259000309321032093200320912A0130912B01B5
:1025A0002115310541F42DB73EB740912E015091D0
:1025B0002F01241B350BE0912003F0912103E2173A
:1025C000F307A0F42E1B3F0B2817390778F0AC0156
:1025D0004E5F5F4F2417350748F04E0F5F1F509333
:1025E000210340932003819391939FCFF0E0E0E09B
:1025F0009CCFCF93DF930097E9F0FC0132971382D1
:102600001282A0912203B0912303ED0130E020E07B
:102610001097A1F420813181820F931F2091200314
:10262000309121032817390709F061C0F093210385
:10263000E0932003DF91CF910895EA01CE17DF07E1
:10264000E8F54A815B819E0141155105B1F7E90129
:10265000FB83EA8349915991C40FD51FEC17FD07FD
:1026600061F4808191810296840F951FE90199831D
:102670008883828193819B838A83F0E0E0E01296D5
:102680008D919C9113970097B9F52D913C911197DD
:10269000CD010296820F931F2091200330912103D8
:1026A0002817390739F6309751F510922303109205
:1026B0002203B0932103A0932003BCCFD383C28312
:1026C00040815181840F951FC817D90761F44E5F6F
:1026D0005F4F88819981480F591F518340838A81B8
:1026E0009B81938382832115310509F0B0CFF0934C
:1026F0002303E09322039ECFFD01DC01C0CF1382B0
:102700001282D7CFB0E0A0E0E8E8F3E10C944A14DD
:102710008C01009751F4CB010E945D128C01C8011D
:10272000CDB7DEB7E0E10C946614FC01E60FF71FAD
:102730009C0122503109E217F30708F49DC0D9012A
:10274000CD91DC911197C617D70798F0C530D10508
:1027500030F3CE0104978617970708F3C61BD70BF3
:102760002297C193D1936D937C93CF010E94F9126C
:10277000D6CF5B01AC1ABD0A4C018C0E9D1EA091F8
:102780002203B0912303512C412CF12CE12C109702
:1027900031F580912003909121038815990509F066
:1027A0005CC04616570608F058C080912A019091E7
:1027B0002B01009741F48DB79EB740912E015091A7
:1027C0002F01841B950BE817F90708F055C0F0930B
:1027D0002103E0932003F90171836083A0CF8D91E1
:1027E0009C91119712966C90129713967C90139768
:1027F000A815B90559F56C0142E0C40ED11CCA14E4
:10280000DB0420F1AC014A195B09DA011296159735
:1028100080F06282738251834083D9016D937C93EF
:10282000E114F10471F0D7011396FC93EE93129723
:1028300076CF22968C0F9D1FF90191838083F3013F
:10284000EFCFF0932303E093220369CF4816590694
:1028500008F42C017D01D3019ACFCB010E945D12B7
:102860007C01009749F0AE01B8010E943F14C801F5
:102870000E94F912870153CF10E000E050CFFB0116
:10288000DC0102C001900D9241505040D8F70895EC
:102890002F923F924F925F926F927F928F929F9270
:1028A000AF92BF92CF92DF92EF92FF920F931F935E
:1028B000CF93DF93CDB7DEB7CA1BDB0B0FB6F8940F
:1028C000DEBF0FBECDBF09942A88398848885F844F
:1028D0006E847D848C849B84AA84B984C884DF80C0
:1028E000EE80FD800C811B81AA81B981CE0FD11DA4
:1028F0000FB6F894DEBF0FBECDBFED01089510E016
:10290000C3E8D0E004C0FE010E94060F2196C4383F
:08291000D107C9F7F894FFCFCD
:10291800A201A201340100004040000000000000B4
:1029280020400000404100008041000000000000FD
:1029380000400000E8410209030A00002403800067
:1029480000000000F404F104ED040000000043025C
:10295800A301D00190020102DF01F3016361725803
:1029680000636172590064697258006469725900A1
:0C2978006C696E6558006C696E65590052
:00000001FF
