:100000000C9485000C9454080C942D080C94AD00AD
:100010000C94AD000C94AD000C94AD000C94AD00AC
:100020000C94AD000C94AD000C94AD000C94AD009C
:100030000C94AD000C94AD000C94AD000C94AD008C
:100040000C94E3070C94AD000C94A1080C947B086D
:100050000C94AD000C94AD000C94AD000C94AD006C
:100060000C94AD000C94AD0005A84CCDB2D44EB9A3
:100070003836A9020C50B9918688083CA6AAAA2A4B
:10008000BE000000803FCDCCCC3D0AD7233C17B743
:10009000D13877CC2B329595E6241FB14F0A00005A
:1000A00020410000C84200401C4620BCBE4CCA1B78
:1000B0000E5AAEC59D7400000000240027002A00DF
:1000C00000000000250028002B00040404040404A0
:1000D00004040202020202020303030303030102F7
:1000E00004081020408001020408102001020408C6
:1000F00010200000000800020100000304070000B7
:10010000000000000000AD09711011241FBECFEFE8
:10011000D8E0DEBFCDBF11E0A0E0B1E0E4E5FCE255
:1001200002C005900D92AC38B107D9F723E0ACE8D6
:10013000B1E001C01D92A331B207E1F710E0C4E8BD
:10014000D0E004C02197FE010E942211C338D107DC
:10015000C9F70E942A0B0C941D160C9400008230E3
:10016000B8F4E82FF0E0EE0FFF1FE050FF4F71836F
:100170006083813039F080916900836080936900E9
:10018000E89A0895809169008C6080936900E99AEB
:1001900008953FB7F89480918D0190918E01A091C0
:1001A0008F01B091900126B5A89B05C02F3F19F093
:1001B0000196A11DB11D3FBFBA2FA92F982F8827E7
:1001C000BC01CD01620F711D811D911D42E0660FC2
:1001D000771F881F991F4A95D1F708950895AF9208
:1001E000BF92CF92DF92EF92FF920F931F93CF9324
:1001F000DF936C017B018B01040F151FEB015E0186
:10020000AE18BF08C017D10759F06991D601ED911A
:10021000FC910190F081E02DC6010995892B79F7B9
:10022000C501DF91CF911F910F91FF90EF90DF906B
:10023000CF90BF90AF900895FC01538D448D252F32
:1002400030E0842F90E0821B930B541710F0CF9670
:10025000089501970895FC01918D828D981761F0A2
:10026000A28DAE0FBF2FB11D5D968C91928D9F5FB9
:100270009F73928F90E008958FEF9FEF0895FC0198
:10028000918D828D981731F0828DE80FF11D858D4B
:1002900090E008958FEF9FEF0895FC01918D228DDE
:1002A000892F90E0805C9F4F821B91098F73992763
:1002B000089581E991E00E944D0121E0892B09F424
:1002C00020E0822F089580E090E0892B29F00E94A1
:1002D000590181110C9400000895FC01A48DA80F10
:1002E000B92FB11DA35ABF4F2C91848D90E0019678
:1002F0008F739927848FA689B7892C93A089B18998
:100300008C91837080648C93938D848D981306C038
:100310000288F389E02D80818F7D80830895EF929C
:10032000FF920F931F93CF93DF93EC0181E0888FAF
:100330009B8D8C8D98131AC0E889F989808185FF7F
:1003400015C09FB7F894EE89FF896083E889F98921
:1003500080818370806480839FBF81E090E0DF9123
:10036000CF911F910F91FF90EF900895F62E0B8D76
:1003700010E00F5F1F4F0F731127E02E8C8D8E1131
:100380000CC00FB607FCFACFE889F989808185FF98
:10039000F5CFCE010E946D01F1CFEB8DEC0FFD2F5B
:1003A000F11DE35AFF4FF0829FB7F8940B8FEA8953
:1003B000FB8980818062CFCFCF93DF93EC01888D62
:1003C0008823B9F0AA89BB89E889F9898C9185FDD0
:1003D00003C0808186FD0DC00FB607FCF7CF8C915E
:1003E00085FFF2CF808185FFEDCFCE010E946D01A8
:1003F000E9CFDF91CF9108956F3FB1F0E62FE295FD
:10040000EF7044E0E49F90011124DC01ED91FC9138
:10041000E20FF31F6F70B8E06B9FC001112462817F
:100420007381860F971F089590E080E00895CF9321
:10043000DF93EC0188819981DC01ED91FC910190C1
:10044000F081E02D09952A813B81820F931F9B83C8
:100450008A83DF91CF910895CF93DF93EC01888158
:100460009981DC01ED91FC910280F381E02D0995E9
:100470002A813B81820F931F9B838A83DF91CF91D7
:1004800008958F929F92AF92BF92CF92DF92EF9298
:10049000FF920F931F93CF93DF93CDB7DEB766978D
:1004A0000FB6F894DEBF0FBECDBF6C018E01095EA2
:1004B0001F4F78018AE0882E912CA12CB12CCB0102
:1004C000BA01A50194010E94F410942F852F605D5C
:1004D000F80162938F01A901692F782F4115510509
:1004E0006105710561F7A7014E1B5F0BBF01C601D6
:1004F0000E942C0266960FB6F894DEBF0FBECDBFE9
:10050000DF91CF911F910F91FF90EF90DF90CF90EF
:10051000BF90AF909F908F900895FC019289915069
:1005200084E0989F90011124A089B189A20FB31F84
:100530001296ED91FC9113973097E9F011962C915A
:1005400011978C912817B8F481E0820F11968C9343
:1005500088E0289FA0011124E40FF51F309759F07F
:1005600014828FEF858317821682BF01892F8295AF
:10057000807F820F089560E070E08FEF0895CF9341
:10058000DF93EC01A881B981F0E0E0E0109741F140
:10059000CD01049668177907F1F412969C91129791
:1005A000915012969C93129791111AC08D919C9123
:1005B0001197309769F091838083EA01E881F9818E
:1005C0000280F381E02DBD01CA01DF91CF91099432
:1005D00099838883F2CFFD010D90BC91A02DD6CFD9
:1005E000DF91CF9108958F929F92AF92BF92CF9259
:1005F000DF92EF92FF920F931F93CF93DF938C01C3
:10060000EB01FC01848180FF0AC04881598160812F
:1006100071816C5F7F4FCE0103960E94BF02F8018B
:100620008481807681F10115110569F1D0805E0128
:10063000F5E1AF0EB11C4E0183E0880E911CEFEF87
:10064000DE16F1F06D2DC5010E94FC017C01FC015C
:10065000C580848187FF07C0488159816681778181
:10066000C4010E94BF02BE01C7010E94F302F7014C
:10067000848180788483898D8583D98EDC2CDFCF3B
:10068000F801D082D182DF91CF911F910F91FF901D
:10069000EF90DF90CF90BF90AF909F908F90089594
:1006A000E2E3F2E085859685A785B0890196A11DD4
:1006B000B11D85879687A787B08B0895E2E3F2E0A6
:1006C00082819381A481B5810196A11DB11D828390
:1006D0009383A483B5830895FB0101900020E9F77B
:1006E0003197AF01461B570B0C942C021F93CF93ED
:1006F000DF93E0E4F1E01281112379F03296218159
:100700006213F9CFEC016CE50E941702612FCE0154
:10071000DF91CF911F910C9417026111F9CF61E520
:1007200071E0DF91CF911F910C946C03CF92DF9217
:10073000EF92FF920F931F93CF93DF938C016B0186
:100740007A0162E20E941702E601EC0CFD1CCE1554
:10075000DF0529F06991C8010E947603F8CF62E2B3
:10076000C801DF91CF911F910F91FF90EF90DF9023
:10077000CF900C9417022F923F924F925F926F92FC
:100780007F928F929F92AF92BF92CF92DF92EF9221
:10079000FF920F931F93CF93DF93CDB7DEB76C9784
:1007A0000FB6F894DEBF0FBECDBF8C011B01DC017C
:1007B00014968C9114978F77883009F4B2C2E8F4BC
:1007C000843009F469C248F4833009F49FC268E5B3
:1007D00071E0C1010E946C031CC2853009F470C233
:1007E0008630A9F78C916DE571E0811102C062E657
:1007F00071E0C1010E946C036DC28C30F1F1C8F44C
:100800008A3029F7CD90DD90ED90FC90B701A601DC
:10081000F7FE0BC06DE2C1010E9417024427552765
:10082000BA014C195D096E097F09C1010E9441029C
:1008300051C2803209F4F7C1803449F66BE5C10139
:100840000E941702F80110811F3F09F4E7C1D1018E
:1008500014968D919C91612F45960E94FC018C010C
:10086000B1010E94BB03F80115811F3F09F4D6C1F5
:100870006CE2C1010E941702E7CFF801C080D1806D
:10088000E280F380A7019601C701B6010E9495118D
:1008900081119DCF20E030E0A901C701B6010E947F
:1008A0009511882379F0A7019601C701B6010E942E
:1008B00029119B01AC01C701B6010E949511882343
:1008C00009F485CF20E030E0A901C701B6010E94FC
:1008D000951187FF08C06DE2C1010E941702F7FA67
:1008E000F094F7F8F09420E836E948E15BE4C701BA
:1008F000B6010E94381387FD88C074E1A72EB12C81
:1009000000E210E0188E1F8AF501E256FF4F259194
:10091000359145915491C701B6010E94381387FD66
:1009200013C0F501EA57FF4F259135914591549138
:10093000C701B6010E943D136B017C012F89388DE0
:10094000200F311F388F2F8B1595079534E0A31A90
:10095000B1088CEFA8168FEFB806B1F655245A945B
:1009600020E030E0A901C701B6010E943813181633
:100970000CF052C02CEA35EC47E257E3C701B60150
:100980000E94951118160CF447C0A52DB4E0AB02D7
:10099000C0011124B12CA12CFC01EA57FF4F3F01EB
:1009A0009C0122563F4F49013FEF531609F434C0D2
:1009B000F301EA0DFB1D659175918591949120E0FD
:1009C00030E040E251E40E943D13A70196010E94ED
:1009D000381318169CF4F401EA0DFB1D259135918E
:1009E00045915491C701B6010E943D136B017C01F2
:1009F0008F89988D801B910B988F8F8B15950795FC
:100A00005A9494E0A91AB108CFCF00E210E055E063
:100A1000552E188E1F8AA4CFC701B6010E94181246
:100A20004B015C012B013C0106E080E492E4AFE065
:100A3000B0E0898F9A8FAB8FBC8F102F01509AE056
:100A40004916510461047104C8F0698D7A8D8B8D4B
:100A50009C8D2AE030E040E050E00E94F410298FA5
:100A60003A8F4B8F5C8FC301B2012AE030E040E047
:100A700050E00E94F41029013A01DFCFC501B40112
:100A80000E9447129B01AC01C701B6010E942811C8
:100A90006B017C01698D7A8D8B8D9C8D0E94471234
:100AA0009B01AC01C701B6010E943D132B013C0123
:100AB0000E9418126B017C010E9447129B01AC013D
:100AC000C301B2010E9428119B01AC010E942911AF
:100AD0000E941812C60ED71EE81EF91E898D9A8D27
:100AE000AB8DBC8DC816D906EA06FB06D8F09FEF81
:100AF000891A990AA90AB90AAF89B88DAB2B39F1BD
:100B0000BAE08B169104A104B10408F1EF89F88DC5
:100B10003196F88FEF8BC12CD12C7601812C912C42
:100B2000540183942AE0422E512C612C712CC70170
:100B3000B601A30192010E94F410672B682B692B68
:100B400051F4111644F469017A011150F0CFC12C0F
:100B5000D12C7601E7CFB501A401C1010E94410269
:100B6000112371F14E01F1E18F0E911C012F5401FF
:100B70009AE0492E512C612C712C015068F0C7016C
:100B8000B601A30192010E94F410605DD4016E933E
:100B90004D0169017A01F1CF812F90E0BC01609590
:100BA0007095F501E81BF90B31978EE2808344279D
:100BB0005527461B570B6A0D7B1DC1010E942C0255
:100BC000EF89F88DEF2B29F165E6C1010E9417022C
:100BD0000F89188D17FF07C06DE2C1010E9417022F
:100BE000119501951109FE0177969F018AE0E82E83
:100BF000F12CC801B7010E94E010805D82938B0147
:100C0000672BB9F7A9014E1B5F0BBF01C1010E9401
:100C10002C02D10112968D919C915FC06DE5C101AE
:100C20000E941702F6CF6BE7C1010E941702F8017C
:100C300010811F3F79F1D10114968D919C91612F04
:100C400045960E94FC018C01FC01C680D78062E2BF
:100C5000C1010E9417027601D7016D917D016623C3
:100C600021F0C1010E947603F7CF62E2C1010E9428
:100C700017026AE3C1010E941702B101C8010E9474
:100C8000BB03F80115811F3F29F06CE2C1010E94EE
:100C90001702CFCF6DE7C3CFF8016081718150E0BB
:100CA00040E06115710541F0FB0101900020E9F77A
:100CB0003197AF01461B570BC1010E949603A9CF84
:100CC000ED91FC91438150E0BF016C5F7F4FC1010A
:100CD0000E949603F101828193816C960FB6F8947D
:100CE000DEBF0FBECDBFDF91CF911F910F91FF905F
:100CF000EF90DF90CF90BF90AF909F908F907F90BC
:100D00006F905F904F903F902F900895ED91FC91E0
:100D1000438150E0BF016C5F7F4FC1010E942C02F4
:100D2000D9CF4D915D916D917C917FCD3F924F9246
:100D30005F926F927F928F929F92AF92BF92CF926B
:100D4000DF92EF92FF920F931F93CF93DF933C01BB
:100D50002B01DC010D911C91063EBFEF1B0709F131
:100D6000FC01E280F380E114F104D9F0D8015E9631
:100D70008C915E97982F9F7791F4807880625E9631
:100D80008C935E978FEF5A968C935A975B968C93C1
:100D90005801B5E1AB0EB11CF801628D43C085FD71
:100DA000F7CFD301ED91FC9180E0309719F082816B
:100DB00091E08927DF91CF911F910F91FF90EF90E4
:100DC000DF90CF90BF90AF909F908F907F906F906B
:100DD0005F904F903F9008956D81209749F1EE818B
:100DE000FF81D7010D900020E9F7CD0101978E1901
:100DF0009F09B0E0A0E0309739F0DF010D900020AE
:100E0000E9F71197AE1BBF0B8A179B0759F4D7015F
:100E10009C012E0D3F1D2A173B0799F18D91919151
:100E20008917C9F3C5010E94FC01EC01892BA1F6C9
:100E3000D8015996DC90BFEFDB16A9F16D2DC501E5
:100E40000E94FC01EC018D81F801818F209709F44B
:100E5000A8C01C828FEF8D831F821E82D8015B96F3
:100E60006C916F3F09F4A1C0C5010E94FC01FC0117
:100E7000D582D8015B96DC928C818F778C83FF8240
:100E8000EE82F201C080D180E280F380B801CE0111
:100E90000E94F3028C8180788C608C83C882D98216
:100EA000EA82FB827ECF4801F5E08F0E911CD801CB
:100EB000CD90DC90119757968C91882349F0C4010E
:100EC0000E948D02C62FD72F209711F0D82EC6CFA3
:100ED000F801C789908DC91325C0C03109F461C0DC
:100EE000CC0F65897689D601ED91FC91B4E0CB9F5A
:100EF000A00111248616970609F04BC00190F081DD
:100F0000E02DBA01C6010995009709F44AC020E115
:100F1000F401DC0101900D922A95E1F7F801968B1E
:100F2000858BC08FD8015596CD91DC9156975796F9
:100F30008C91579721E0280F57962C93B4E08B9F04
:100F4000C0011124C80FD91F90E1392E203111F4AE
:100F50008FE0382EE8E03E9EB0011124D601ED91DD
:100F6000FC910190F081E02DC60109959B838A8355
:100F7000892B09F4312C38821982CD2B91F0C401D0
:100F80000E948D02C62FD72FD82E209709F066CF4A
:100F900008C00480F581E02DC6010995009709F08D
:100FA000BDCF81E0F8018283FCCEF801D28ED38ED2
:100FB00063CFCB01BA010C942015CB010C9497148C
:100FC000CB010C94FB131F920F920FB60F921124BA
:100FD0002F933F938F939F93AF93BF9380912E0254
:100FE00090912F02A0913002B091310230918C018A
:100FF00023E0230F2D3758F50196A11DB11D209335
:101000008C0180932E0290932F02A0933002B09314
:10101000310280918D0190918E01A0918F01B0914C
:1010200090010196A11DB11D80938D0190938E01B9
:10103000A0938F01B0939001BF91AF919F918F9139
:101040003F912F910F900FBE0F901F90189526E89B
:10105000230F0296A11DB11DD2CF1F920F920FB682
:101060000F9211242F933F934F935F936F937F932E
:101070008F939F93AF93BF93EF93FF93E091020100
:10108000F09103010995FF91EF91BF91AF919F916D
:101090008F917F916F915F914F913F912F910F9021
:1010A0000FBE0F901F9018951F920F920FB60F92C0
:1010B00011242F933F934F935F936F937F938F935D
:1010C0009F93AF93BF93EF93FF93E0910001F09153
:1010D00001010995FF91EF91BF91AF919F918F9180
:1010E0007F916F915F914F913F912F910F900FBE24
:1010F0000F901F9018951F920F920FB60F92112408
:101100002F933F934F935F936F937F938F939F930F
:10111000AF93BF93EF93FF9381E991E00E946D013C
:10112000FF91EF91BF91AF919F918F917F916F91BF
:101130005F914F913F912F910F900FBE0F901F9095
:1011400018951F920F920FB60F9211242F938F9321
:101150009F93EF93FF93E091A101F091A201808111
:10116000E091A701F091A80182FD1BC090818091C0
:10117000AA018F5F8F732091AB01821741F0E0913C
:10118000AA01F0E0EF56FE4F958F8093AA01FF91E0
:10119000EF919F918F912F910F900FBE0F901F9005
:1011A00018958081F4CF90E0FC01EE50FF4F249120
:1011B000FC01E252FF4F3491FC01E653FF4FE491F2
:1011C000EE23C9F0222339F0233001F1A8F42130B5
:1011D00019F1223029F1F0E0EE0FFF1FE054FF4F2C
:1011E000A591B4918FB7F894EC91611126C0309518
:1011F0003E233C938FBF08952730A9F02830C9F0D3
:10120000243049F7809180008F7D03C08091800059
:101210008F7780938000DFCF84B58F7784BDDBCF5D
:1012200084B58F7DFBCF8091B0008F778093B00025
:10123000D2CF8091B0008F7DF9CF3E2BDACFCF9304
:10124000DF9390E0FC01E252FF4F249186539F4FC1
:10125000FC0184918823D1F090E0880F991FFC0154
:10126000EA54FF4FA591B491FC01E054FF4FC591A2
:10127000D49161110EC09FB7F8948C91E22FE09544
:101280008E238C932881E223E8839FBFDF91CF9147
:1012900008958FB7F894EC91E22BEC938FBFF6CFC3
:1012A0001F93CF93DF93182FEB0161E00E941F097A
:1012B000209739F460E0812FDF91CF911F910C943A
:1012C000D308CF3FD10511F461E0F5CFE12FF0E075
:1012D000EE50FF4FE491E33031F140F4E130B1F0F2
:1012E000E230E1F0C038D1057CF7E4CFE73029F1F6
:1012F000E83059F1E430B1F780918000806280934A
:101300008000D0938B00C0938A0004C084B58068AD
:1013100084BDC7BDDF91CF911F91089584B58062D0
:1013200084BDC8BDF7CF8091800080688093800025
:10133000D0938900C0938800EDCF8091B000806881
:101340008093B000C093B300E5CF8091B00080627D
:101350008093B000C093B400DDCF0F931F93CF9361
:10136000DF93E1E9F1E01382128288EE93E0A0E0DE
:10137000B0E084839583A683B78382E391E0918371
:10138000808385EC90E09587848784EC90E0978754
:10139000868780EC90E0918B808B81EC90E0938B42
:1013A000828B82EC90E0958B848B86EC90E0978B1F
:1013B000868B118E128E138E148E0CE111E0F801C3
:1013C0008081C2E3D2E0282F30E0398328831A825B
:1013D0001B821C821D8260E00E941F09F80181812E
:1013E0008A8760E00E941F090AE111E0F80180810C
:1013F000282F30E03C872B871D861E861F86188A83
:1014000060E00E941F09F80181818D8B60E00E94DD
:101410001F0984E68E8B1DAA1EAA1FAA18AE19AE3C
:101420001AAE1BAE1CAE10926F0210927002109298
:101430007102109272021092730210927402109252
:101440007502109276021092770210927802109232
:10145000790210927A0280E090E0A0E8BFE38093E6
:101460007B0290937C02A0937D02B0937E02109247
:101470007F021092800210928102109282021092DA
:1014800083021092840210928502109286021092BA
:101490008702109288021092890210928A0210929A
:1014A0008B0210928C0210928D0210928E0206E036
:1014B00011E020E030E040E05FE3F80164817581F5
:1014C000868197810E943D13698F7A8F8B8F9C8FC5
:1014D000F80180819181A281B38189AB9AABABABDA
:1014E000BCAB84E091E09093900280938F021092C5
:1014F0009102109293021092920284E992E09093EA
:10150000A5028093A4021092A60284E08093A70211
:101510008FEF8093A8021092AD021092DF0210921A
:10152000E0021092E1021092E2021092E3021092A5
:10153000E4021092E5021092E6021092F302109279
:10154000F4021092F5021092F6021092F702109235
:10155000F8021092F9021092FA0210920703109208
:1015600008031092090310920A0310920B031092C1
:101570000C0310920D0310920E032FB7F894609194
:101580002E0270912F0280913002909131022FBF74
:101590000E9447126093B3027093B4028093B50225
:1015A0009093B6026A817B818C819D810E94491251
:1015B0000E9411126093C3027093C4028093C5020B
:1015C0009093C6026D857E858F8598890E94491209
:1015D0000E9411126093C7027093C8028093C902DF
:1015E0009093CA022BED3FE049E450E4F801648592
:1015F0007585868597850E943D13F801208931897C
:10160000428953890E949F116093BF027093C00268
:101610008093C1029093C2021092FB021092FC02CE
:101620001092FD021092FE021092FF02109200032F
:10163000109201031092020370E060E08A850E941C
:10164000500970E060E08D89DF91CF911F910F917B
:101650000C945009CF93DF93CDB7DEB766970FB6E2
:10166000F894DEBF0FBECDBF789484B5826084BD90
:1016700084B5816084BD85B5826085BD85B5816096
:1016800085BD80916E00816080936E001092810014
:1016900080918100826080938100809181008160CF
:1016A0008093810080918000816080938000809190
:1016B000B10084608093B1008091B000816080931C
:1016C000B00080917A00846080937A0080917A00E3
:1016D000826080937A0080917A00816080937A00A2
:1016E00080917A00806880937A001092C100E09126
:1016F000A101F091A20182E08083E0919D01F0912F
:101700009E011082E0919F01F091A0018FEC8083F7
:101710001092A901E091A501F091A60186E08083D5
:10172000E091A301F091A401808180618083E09128
:10173000A301F091A401808188608083E091A301DE
:10174000F091A401808180688083E091A301F091F1
:10175000A40180818F7D808380911C01823009F4F7
:101760007FC2833009F07EC281E06EE573E00E94A3
:10177000AF0080911A01823009F476C2833009F0FB
:1017800075C281E060E573E00E94AF000AE09FE867
:10179000292E92E0392E81E991E00E944D01181620
:1017A000190634F481E991E00E942B018093AE0286
:1017B0008091AE028F3609F05BC280E090E0AEED22
:1017C000B2E48093AF029093B002A093B102B093C1
:1017D000B2022FB7F89460912E0270912F0280917F
:1017E0003002909131022FBF0E9447126B017C01A1
:1017F000C092BB02D092BC02E092BD02F092BE0247
:101800002091B3023091B4024091B5025091B602DA
:101810000E9428116093B7027093B8028093B902B6
:101820009093BA02C092B302D092B402E092B50291
:10183000F092B602609134027091350280913602C6
:10184000909137020E9449126B017C016091C302A2
:101850007091C4028091C5029091C6020E94491203
:101860009B01AC01C701B6010E9428110E94181209
:10187000F62E60913F02709140028091410290915A
:1018800042020E9449124B015C016091C7027091B3
:10189000C8028091C9029091CA020E9449129B011C
:1018A000AC01C501B4010E9428110E941812162F24
:1018B0008090BF029090C002A090C102B090C2027E
:1018C0006F2D70E090E080E00E944912A501940124
:1018D0000E943D136B017C01C092CB02D092CC02DE
:1018E000E092CD02F092CE02612F70E090E080E0B5
:1018F0000E944912A50194010E943D134B015C0115
:101900008092CF029092D002A092D102B092D202E5
:1019100060913402709135028091360290913702C5
:101920000E9449120E9411126093C3027093C40274
:101930008093C5029093C60260913F02709140026D
:1019400080914102909142020E9449120E9411121C
:101950006093C7027093C8028093C9029093CA0231
:10196000A5019401C701B6010E94951140907B0228
:1019700050907C0260907D0270907E0287FF8BC148
:10198000C0925702D0925802E0925902F0925A0245
:1019900080925B0290925C02A0925D02B0925E0225
:1019A00011E080905B0290905C02A0905D02B0908C
:1019B0005E028091570290915802A0915902B09115
:1019C0005A028B879C87AD87BE879C01AD01C501FC
:1019D000B4010E9428116F87788B898B9A8BC090F5
:1019E0004B02D0904C02E0904D02F0904E02A701C5
:1019F0009601C701B6010E9429119B01AC016F85B8
:101A0000788989899A890E949F116F83788789874D
:101A10009A87609353027093540280935502909377
:101A200056022B853C854D855E85C501B4010E941B
:101A30002911A70196010E943D132F8538894989F4
:101A40005A890E949F114B015C0180924F02909233
:101A50005002A0925102B09252028091770290916E
:101A60007802A0917902B0917A028B879C87AD872A
:101A7000BE87B0588F87988BA98BBA8B409267022C
:101A8000509268026092690270926A0280936B02BF
:101A900090936C02A0936D02B0936E028B859C852F
:101AA000AD85BE8580936F0290937002A093710202
:101AB000B093720240927302509274026092750267
:101AC000709276026F81788589859A850E94AA1323
:101AD0006B017C01AC019B01C501B4010E943D1367
:101AE0006B8B7C8B8D8B9E8B6F81788589859A859E
:101AF0000E949A116F83788789879A87112309F446
:101B00007EC220E030E040E85FE30E942811A5019A
:101B100094010E943D1360937F0270938002809332
:101B2000810290938202F7FAF094F7F8F094C09251
:101B30007702D0927802E0927902F0927A02C09015
:101B40007F02D0908002E0908102F0908202A70193
:101B50009601C301B2010E943D134B015C012B8928
:101B60003C894D895E896B857C858D859E850E942B
:101B70003D139B01AC01C501B4010E942911609382
:101B80007F02709380028093810290938202A7016A
:101B900096016F85788989899A890E943D136B0126
:101BA0007C012B893C894D895E89C301B2010E9469
:101BB0003D139B01AC01C701B6010E94291160933E
:101BC0008302709384028093850290938602C09072
:101BD0007702D0907802E0907902F0907A02A70123
:101BE0009601C301B2010E943D134B015C012F819C
:101BF000388549855A856B857C858D859E850E94B3
:101C00003D139B01AC01C501B4010E9429116093F1
:101C10007702709378028093790290937A02A701F9
:101C200096016F85788989899A890E943D136B0195
:101C30007C012F81388549855A85C301B2010E94F4
:101C40003D139B01AC01C701B6010E9429116093AD
:101C50007B0270937C0280937D0290937E0257C03A
:101C600080E083CD8FEF81CD80E08CCD8FEF8ACD6A
:101C7000602F0E94D210682F880F770B880B990B6A
:101C80000E9449126093AF027093B0028093B10238
:101C90009093B2029ECDA5019401C701B6010E94A6
:101CA0003813181694F48092570290925802A0921A
:101CB0005902B0925A02C0925B02D0925C02E0924A
:101CC0005D02F0925E0210E06CCEA7019601609179
:101CD0007702709178028091790290917A020E9445
:101CE0003D1360937F0270938002809381029093F2
:101CF0008202A7019601C301B2010E943D136093C5
:101D00008302709384028093850290938602C09030
:101D1000AF02D090B002E090B102F090B20220E0A9
:101D200030E04EED52E4C701B6010E9495118111D9
:101D30007DC180E090E0AEEDB2E4809387029093A5
:101D40008802A0938902B0938A0280938B029093B9
:101D50008C02A0938D02B0938E02C0908302D0902B
:101D60008402E0908502F090860220917F023091FB
:101D7000800240918102509182026091DF02709155
:101D8000E0028091E1029091E2020E9429114B0150
:101D90005C018092DF029092E002A092E102B09298
:101DA000E2022091E3023091E4024091E502509179
:101DB000E602C701B6010E9429116B017C01C092A5
:101DC000E302D092E402E092E502F092E602809211
:101DD000D3029092D402A092D502B092D602C092C1
:101DE000D702D092D802E092D902F092DA0288E0CB
:101DF000E7E8F2E0A7E0B3E001900D928A95E1F701
:101E000040900703509008036090090370900A0304
:101E100020E030E04EED52E4C301B2010E94951182
:101E20008823A1F1A5019401C301B2010E942911E7
:101E30004B015C018092070390920803A092090372
:101E4000B0920A0320910B0330910C0340910D03D3
:101E500050910E03C701B6010E94291160930B0334
:101E600070930C0380930D0390930E038092FB02FA
:101E70009092FC02A092FD02B092FE026093FF02DB
:101E800070930003809301039093020388E0E7E7D7
:101E9000F2E0A3EFB2E001900D928A95E1F7809114
:101EA000F3029091F402A091F502B091F6028093B2
:101EB000E7029093E802A093E902B093EA028091CE
:101EC000F7029091F802A091F902B091FA02809382
:101ED000EB029093EC02A093ED02B093EE023A82F3
:101EE0002982A8E6B1E0BC83AB8363ED72E0CE014A
:101EF00001960E9496063A8229828DE691E09C83A3
:101F00008B8367ED72E0CE0101960E9496063A82BD
:101F10002982A2E7B1E0BC83AB8367EE72E0CE0119
:101F200001960E9496063A82298287E791E09C8377
:101F30008B836BEE72E0CE0101960E9496063A8288
:101F40002982ACE7B1E0BC83AB836BEF72E0CE01DA
:101F500001960E9496063A82298282E891E09C834B
:101F60008B836FEF72E0CE0101960E94960681E9A5
:101F700091E09A8389831C821B823E822D82BE015E
:101F80006F5F7F4F89EA92E00E94BB0342E050E01E
:101F900068E871E081E991E00E94EF000E94C900C9
:101FA0004B015C018AE0C82ED12CE12CF12C0E945F
:101FB000C900681979098A099B09683E734081053F
:101FC0009105A8F391E0C91AD108E108F108A8EE3B
:101FD0008A0EA3E09A1EA11CB11CC114D104E10415
:101FE000F10429F780E090E0892B09F4D4CB0E941A
:101FF0005901882309F4CFCB0E940000CCCB2F815C
:10200000388549855A8560E070E080E89FE30E944A
:102010002811A50194010E943D1360937F027093E3
:102020008002809381029093820281CD809063022E
:1020300090906402A0906502B090660220916B02BD
:1020400030916C0240916D0250916E02C701B60151
:102050000E943D132B013C012091730230917402C8
:102060004091750250917602C501B4010E943D1362
:102070009B01AC01C301B2010E9429112B013C015B
:1020800020916702309168024091690250916A0282
:10209000C701B6010E943D136B017C0120916F02C4
:1020A000309170024091710250917202C501B401E9
:1020B0000E943D139B01AC01C701B6010E9429118A
:1020C00060938702709388028093890290938A02BA
:1020D00040928B0250928C0260928D0270928E021E
:1020E0003CCEFF920F931F93CF93DF93C0918F024B
:1020F000D0919002609192027091930261157105E6
:1021000079F0DB018D919C919093930280939202E0
:10211000E881F9810280F381E02DCE010995EACFB3
:1021200000918F0210919002F12C6091A4027091A5
:10213000A5028091A602F816C8F4B4E0FB9EE00167
:102140001124C60FD71F6A817B816115710541F08B
:10215000D801ED91FC910280F381E02DC801099531
:102160001B821A8218821982F394DFCF1092A60282
:102170008FEF8093A802B2E064397B0769F0D80141
:10218000ED91FC910280F381E02DC801DF91CF91A8
:102190001F910F91FF900994DF91CF911F910F91A3
:1021A000FF90089587FB082E062687FD819567FD21
:1021B00061950E9416110EF4919507FC8195089582
:1021C000AA1BBB1B51E107C0AA1FBB1FA617B7075D
:1021D00010F0A61BB70B881F991F5A95A9F7809579
:1021E0009095BC01CD010895A1E21A2EAA1BBB1B3C
:1021F000FD010DC0AA1FBB1FEE1FFF1FA217B307D3
:10220000E407F50720F0A21BB30BE40BF50B661FE8
:10221000771F881F991F1A9469F7609570958095AC
:1022200090959B01AC01BD01CF010895991B79E008
:1022300004C0991F961708F0961B881F7A95C9F756
:1022400080950895EE0FFF1F0590F491E02D0994FD
:102250005058BB27AA270E9440110C94EA120E94F2
:10226000B11238F00E94B81220F039F49F3F19F4EF
:1022700026F40C94AE120EF4E095E7FB0C94A81231
:10228000E92F0E940F1358F3BA17620773078407E8
:10229000950720F079F4A6F50C9431130EF4E0952F
:1022A0000B2EBA2FA02D0B01B90190010C01CA0110
:1022B000A0011124FF27591B99F0593F50F4503EBB
:1022C00068F11A16F040A22F232F342F4427585FAD
:1022D000F3CF469537952795A795F0405395C9F7C5
:1022E0007EF41F16BA0B620B730B840BBAF091507D
:1022F000A1F0FF0FBB1F661F771F881FC2F70EC01C
:10230000BA0F621F731F841F48F4879577956795EE
:10231000B795F7959E3F08F0B0CF9395880F08F0DA
:102320009927EE0F9795879508950E94841208F4D7
:1023300081E008950E94C112E3950C94FB120E9463
:10234000B3110C94EA120E94B81258F00E94B11214
:1023500040F029F45F3F29F00C94A81251110C941D
:1023600032130C94AE120E940F1368F39923B1F349
:10237000552391F3951B550BBB27AA2762177307AB
:10238000840738F09F5F5F4F220F331F441FAA1F3F
:10239000A9F335D00E2E3AF0E0E832D091505040FB
:1023A000E695001CCAF72BD0FE2F29D0660F771FA9
:1023B000881FBB1F261737074807AB07B0E809F08F
:1023C000BB0B802DBF01FF2793585F4F3AF09E3F14
:1023D000510578F00C94A8120C9432135F3FE4F38B
:1023E000983ED4F3869577956795B795F7959F5F57
:1023F000C9F7880F911D9695879597F90895E1E0A3
:10240000660F771F881FBB1F621773078407BA0701
:1024100020F0621B730B840BBA0BEE1F88F7E0955C
:1024200008950E9418126894B1110C943213089503
:102430000E94171388F09F5798F0B92F9927B7512A
:10244000B0F0E1F0660F771F881F991F1AF0BA9558
:10245000C9F714C0B13091F00E943113B1E0089572
:102460000C943113672F782F8827B85F39F0B93F64
:10247000CCF3869577956795B395D9F73EF490950B
:102480008095709561957F4F8F4F9F4F0895E89489
:1024900009C097FB3EF490958095709561957F4FAC
:1024A0008F4F9F4F9923A9F0F92F96E9BB2793955A
:1024B000F695879577956795B795F111F8CFFAF46A
:1024C000BB0F11F460FF1BC06F5F7F4F8F4F9F4F9B
:1024D00016C0882311F096E911C0772321F09EE8F9
:1024E000872F762F05C0662371F096E8862F70E05F
:1024F00060E02AF09A95660F771F881FDAF7880F39
:102500009695879597F90895990F0008550FAA0B8E
:10251000E0E8FEEF16161706E807F907C0F01216F6
:102520001306E407F50798F0621B730B840B950BF9
:1025300039F40A2661F0232B242B252B21F408954E
:102540000A2609F4A140A6958FEF811D811D0895EB
:1025500097F99F6780E870E060E008959FEF80EC56
:10256000089500240A9416161706180609060895F9
:1025700000240A94121613061406050608950C94F6
:10258000AE120E941713D8F3E894E0E0BB279F57E0
:10259000F0F02AED3FE049EC06C0EE0FBB0F661FDE
:1025A000771F881F28F0B23A62077307840728F064
:1025B000B25A620B730B840BE3959A9572F78038CD
:1025C00030F49A95BB0F661F771F881FD2F790488B
:1025D0000C94B413092E0394000C11F4882352F0C8
:1025E000BB0F40F4BF2B11F460FF04C06F5F7F4F3F
:1025F0008F4F9F4F0895EF93E0FF07C0A2EA2AEDA7
:102600003FE049EC5FEB0E9440110E94EA120F90FC
:10261000039401FC9058E8E6F0E00C94C01357FDD9
:102620009058440F551F59F05F3F71F04795880F40
:1026300097FB991F61F09F3F79F0879508951216D7
:1026400013061406551FF2CF4695F1DF08C0161683
:1026500017061806991FF1CF869571056105089434
:102660000895E894BB2766277727CB0197F908954B
:102670000E94841208F48FEF08950E9450130C9466
:10268000EA120E94B11238F00E94B81220F095238D
:1026900011F00C94A8120C94AE1211240C94321365
:1026A0000E940F1370F3959FC1F3950F50E0551FD3
:1026B000629FF001729FBB27F00DB11D639FAA2797
:1026C000F00DB11DAA1F649F6627B00DA11D661FE6
:1026D000829F2227B00DA11D621F739FB00DA11D07
:1026E000621F839FA00D611D221F749F3327A00DC1
:1026F000611D231F849F600D211D822F762F6A2F5D
:1027000011249F5750409AF0F1F088234AF0EE0FC1
:10271000FF1FBB1F661F771F881F91505040A9F7EE
:102720009E3F510580F00C94A8120C9432135F3F29
:10273000E4F3983ED4F3869577956795B795F7952A
:10274000E7959F5FC1F7FE2B880F911D96958795A2
:1027500097F908959F930E94C1120F9007FCEE5FB6
:102760000C94FB129F3F31F0915020F487957795A0
:102770006795B795880F911D9695879597F9089558
:102780009F938F937F936F93FF93EF939B01AC0184
:102790000E943D13EF91FF910E94D4132F913F911E
:1027A0004F915F910C943D13DF93CF931F930F9341
:1027B000FF92EF92DF927B018C01689406C0DA2EC3
:1027C000EF010E945013FE01E894A59125913591E7
:1027D00045915591A6F3EF010E944011FE0197012A
:1027E000A801DA9469F7DF90EF90FF900F911F91A5
:1027F000CF91DF9108950F931F93CF93DF93823092
:10280000910510F482E090E0E0911103F091120341
:1028100030E020E0B0E0A0E0309799F421153105D8
:1028200009F44AC0281B390B24303105D8F58A81B8
:102830009B816115710589F1FB0193838283FE0100
:1028400011C0408151810281138148175907E0F07E
:102850004817590799F4109761F012960C93129744
:1028600013961C933296CF01DF91CF911F910F9158
:1028700008950093110310931203F4CF211531052D
:1028800051F04217530738F0A901DB019A01BD014D
:10289000DF01F801C1CFEF01F9CF909312038093CC
:1028A0001103CDCFFE01E20FF31F819391932250CC
:1028B000310939832883D7CF20910F03309110033A
:1028C000232B41F4209120013091210130931003FA
:1028D00020930F0320911E0130911F012115310516
:1028E00041F42DB73EB74091220150912301241BA2
:1028F000350BE0910F03F0911003E217F307A0F4FA
:102900002E1B3F0B2817390778F0AC014E5F5F4F45
:102910002417350748F04E0F5F1F50931003409364
:102920000F03819391939FCFF0E0E0E09CCFCF9392
:10293000DF930097E9F0FC01329713821282A09195
:102940001103B0911203ED0130E020E01097A1F4E3
:1029500020813181820F931F20910F03309110034A
:102960002817390709F061C0F0931003E0930F03B3
:10297000DF91CF910895EA01CE17DF07E8F54A818C
:102980005B819E0141155105B1F7E901FB83EA83A3
:1029900049915991C40FD51FEC17FD0761F480814F
:1029A00091810296840F951FE90199838883828122
:1029B00093819B838A83F0E0E0E012968D919C9155
:1029C00013970097B9F52D913C911197CD0102967F
:1029D000820F931F20910F0330911003281739079E
:1029E00039F6309751F51092120310921103B093FB
:1029F0001003A0930F03BCCFD383C28340815181C6
:102A0000840F951FC817D90761F44E5F5F4F888107
:102A10009981480F591F518340838A819B819383F9
:102A200082832115310509F0B0CFF0931203E093B2
:102A300011039ECFFD01DC01C0CF13821282D7CFDC
:102A4000B0E0A0E0E6E2F5E10C94E8158C01009717
:102A500051F4CB010E94FB138C01C801CDB7DEB746
:102A6000E0E10C940416FC01E60FF71F9C012250D4
:102A70003109E217F30708F49DC0D901CD91DC912B
:102A80001197C617D70798F0C530D10530F3CE019E
:102A900004978617970708F3C61BD70B2297C19395
:102AA000D1936D937C93CF010E949714D6CF5B0195
:102AB000AC1ABD0A4C018C0E9D1EA0911103B09161
:102AC0001203512C412CF12CE12C109731F58091FF
:102AD0000F03909110038815990509F05CC0461604
:102AE000570608F058C080911E0190911F01009771
:102AF00041F48DB79EB74091220150912301841B70
:102B0000950BE817F90708F055C0F0931003E09310
:102B10000F03F90171836083A0CF8D919C91119770
:102B200012966C90129713967C901397A815B9057E
:102B300059F56C0142E0C40ED11CCA14DB0420F12B
:102B4000AC014A195B09DA011296159780F062828E
:102B5000738251834083D9016D937C93E114F10416
:102B600071F0D7011396FC93EE93129776CF2296CD
:102B70008C0F9D1FF90191838083F301EFCFF093B8
:102B80001203E093110369CF4816590608F42C018B
:102B90007D01D3019ACFCB010E94FB137C010097EA
:102BA00049F0AE01B8010E94DD15C8010E949714DA
:102BB000870153CF10E000E050CFFB01DC0102C0E1
:102BC00001900D9241505040D8F708952F923F92B6
:102BD0004F925F926F927F928F929F92AF92BF922D
:102BE000CF92DF92EF92FF920F931F93CF93DF93D9
:102BF000CDB7DEB7CA1BDB0B0FB6F894DEBF0FBE36
:102C0000CDBF09942A88398848885F846E847D8482
:102C10008C849B84AA84B984C884DF80EE80FD8084
:102C20000C811B81AA81B981CE0FD11D0FB6F894FA
:102C3000DEBF0FBECDBFED01089510E0C4E8D0E0C7
:102C400004C0FE010E9422112196C538D107C9F7A0
:042C5000F894FFCF26
:102C5400EE00EE0028010000404100008041000029
:102C64000000000000400000E8410209030A0000DF
:102C74001303800000000000E007DD07D90700000F
:102C840000008F01EF001C01DC014D012B013F010D
:102C94002F2F22225C5C6208660C6E0A720D740986
:102CA400005C7530303030006E756C6C0074727579
:102CB400650066616C7365006361725800636172DC
:102CC4005900646972580064697259006C696E65D0
:0C2CD40058006C696E6559000D0A000084
:00000001FF
