:100000000C945D000C946D020C9446020C948500D7
:100010000C9485000C9485000C9485000C9485004C
:100020000C9485000C9485000C9485000C9485003C
:100030000C9485000C9485000C9485000C9485002C
:100040000C94FC010C9485000C94BA020C9494025C
:100050000C9485000C9485000C9485000C9485000C
:100060000C9485000C9485000000000024002700FB
:100070002A0000000000250028002B0004040404CE
:100080000404040402020202020203030303030342
:10009000010204081020408001020408102001021F
:1000A00004081020000000080002010000030407FB
:1000B0000000000000000000950311241FBECFEFD8
:1000C000D8E0DEBFCDBF11E0A0E0B1E0ECEEFDE096
:1000D00002C005900D92AE31B107D9F722E0AEE132
:1000E000B1E001C01D92A236B207E1F710E0CDE504
:1000F000D0E004C02197FE010E944B05CC35D1070A
:10010000C9F70E9481040C94F4060C94000082301C
:10011000B8F4E82FF0E0EE0FFF1FE050FF4F7183BF
:100120006083813039F08091690083608093690039
:10013000E89A0895809169008C6080936900E99A3B
:100140000895CF93DF9390E0FC01E057FF4F249197
:1001500084589F4FFC0184918823D1F090E0880F50
:10016000991FFC01E859FF4FA591B491FC01EE588D
:10017000FF4FC591D49161110EC09FB7F8948C9137
:10018000E22FE0958E238C932881E223E8839FBFA2
:10019000DF91CF9108958FB7F894EC91E22BEC9317
:1001A0008FBFF6CF0895AF92BF92CF92DF92EF92BA
:1001B000FF920F931F93CF93DF936C017B018B0111
:1001C000040F151FEB015E01AE18BF08C017D10761
:1001D00059F06991D601ED91FC910190F081E02DEB
:1001E000C6010995892B79F7C501DF91CF911F9140
:1001F0000F91FF90EF90DF90CF90BF90AF90089558
:10020000FC01538D448D252F30E0842F90E0821B1C
:10021000930B541710F0CF96089501970895FC01A1
:10022000918D828D981761F0A28DAE0FBF2FB11DF9
:100230005D968C91928D9F5F9F73928F90E0089551
:100240008FEF9FEF0895FC01918D828D981731F00B
:10025000828DE80FF11D858D90E008958FEF9FEF5F
:100260000895FC01918D228D892F90E0805C9F4F35
:10027000821B91098F739927089583E291E00E9470
:10028000310121E0892B09F420E0822F089580E0DC
:1002900090E0892B29F00E943D0181110C9400000F
:1002A0000895FC01A48DA80FB92FB11DA35ABF4F0B
:1002B0002C91848D90E001968F739927848FA68965
:1002C000B7892C93A089B1898C91837080648C93B9
:1002D000938D848D981306C00288F389E02D808168
:1002E0008F7D80830895EF92FF920F931F93CF939A
:1002F000DF93EC0181E0888F9B8D8C8D98131AC061
:10030000E889F989808185FF15C09FB7F894EE8947
:10031000FF896083E889F9898081837080648083A4
:100320009FBF81E090E0DF91CF911F910F91FF90EF
:10033000EF900895F62E0B8D10E00F5F1F4F0F7397
:100340001127E02E8C8D8E110CC00FB607FCFACF52
:10035000E889F989808185FFF5CFCE010E9451019E
:10036000F1CFEB8DEC0FFD2FF11DE35AFF4FF08223
:100370009FB7F8940B8FEA89FB8980818062CFCF89
:10038000CF93DF93EC01888D8823B9F0AA89BB89CC
:10039000E889F9898C9185FD03C0808186FD0DC0B7
:1003A0000FB607FCF7CF8C9185FFF2CF808185FFD8
:1003B000EDCFCE010E945101E9CFDF91CF91089599
:1003C000E8EDF1E085859685A785B0890196A11DA8
:1003D000B11D85879687A787B08B0895E8EDF1E07A
:1003E00082819381A481B5810196A11DB11D828373
:1003F0009383A483B58308951F920F920FB60F9233
:1004000011242F933F938F939F93AF93BF9380912A
:10041000C0019091C101A091C201B091C30130917E
:10042000220123E0230F2D3758F50196A11DB11DA0
:10043000209322018093C0019093C101A093C20137
:10044000B093C30180911E0190911F01A0912001E2
:10045000B09121010196A11DB11D80931E019093C1
:100460001F01A0932001B0932101BF91AF919F91F3
:100470008F913F912F910F900FBE0F901F90189565
:1004800026E8230F0296A11DB11DD2CF1F920F9215
:100490000FB60F9211242F933F934F935F936F9357
:1004A0007F938F939F93AF93BF93EF93FF93E091CD
:1004B0000201F09103010995FF91EF91BF91AF9176
:1004C0009F918F917F916F915F914F913F912F916C
:1004D0000F900FBE0F901F9018951F920F920FB69E
:1004E0000F9211242F933F934F935F936F937F93BA
:1004F0008F939F93AF93BF93EF93FF93E09100018E
:10050000F09101010995FF91EF91BF91AF919F91FA
:100510008F917F916F915F914F913F912F910F90AC
:100520000FBE0F901F9018951F920F920FB60F924B
:1005300011242F933F934F935F936F937F938F93E8
:100540009F93AF93BF93EF93FF9383E291E00E9459
:100550005101FF91EF91BF91AF919F918F917F9149
:100560006F915F914F913F912F910F900FBE0F9020
:100570001F9018951F920F920FB60F9211242F9370
:100580008F939F93EF93FF93E0913301F0913401A8
:100590008081E0913901F0913A0182FD1BC0908188
:1005A00080913C018F5F8F7320913D01821741F054
:1005B000E0913C01F0E0ED5DFE4F958F80933C01B2
:1005C000FF91EF919F918F912F910F900FBE0F9000
:1005D0001F9018958081F4CF90E0FC01EC55FF4FFF
:1005E0002491FC01E057FF4F3491FC01E458FF4F88
:1005F000E491EE23C9F0222339F0233001F1A8F46D
:10060000213019F1223029F1F0E0EE0FFF1FEE58F2
:10061000FF4FA591B4918FB7F894EC91611126C06A
:1006200030953E233C938FBF08952730A9F02830A2
:10063000C9F0243049F7809180008F7D03C08091FC
:1006400080008F7780938000DFCF84B58F7784BD63
:10065000DBCF84B58F7DFBCF8091B0008F77809307
:10066000B000D2CF8091B0008F7DF9CF3E2BDACF92
:100670001F93CF93DF93182FEB0161E00E94A1003D
:10068000209739F460E0812FDF91CF911F910C9476
:10069000EC02CF3FD10511F461E0F5CFE12FF0E09E
:1006A000EC55FF4FE491E33031F140F4E130B1F02B
:1006B000E230E1F0C038D1057CF7E4CFE73029F132
:1006C000E83059F1E430B1F7809180008062809386
:1006D0008000D0938B00C0938A0004C084B58068EA
:1006E00084BDC7BDDF91CF911F91089584B580620D
:1006F00084BDC8BDF7CF8091800080688093800062
:10070000D0938900C0938800EDCF8091B0008068BD
:100710008093B000C093B300E5CF8091B0008062B9
:100720008093B000C093B400DDCF0F931F93CF939D
:10073000DF93E3E2F1E01382128288EE93E0A0E01F
:10074000B0E084839583A683B7838CE091E09183A6
:10075000808385EC90E09587848784EC90E0978790
:10076000868780EC90E0918B808B81EC90E0938B7E
:10077000828B82EC90E0958B848B86EC90E0978B5B
:10078000868B118E128E138E148E06E011E0F80106
:100790008081C8EDD1E0282F30E0398328831A8288
:1007A0001B821C821D8260E00E94A100F8018181F1
:1007B0008A8760E00E94A10004E011E0F8018081D6
:1007C000282F30E03C872B871D861E861F86188ABF
:1007D00060E00E94A100F80181818D8B60E00E94A1
:1007E000A10084E68E8B04EC11E0F8016481758130
:1007F000868197811DA61EA61FA618AA19AA1AAA45
:100800001BAA1CAA1DAA1EAA1FAA18AE19AE1AAEB0
:100810001BAE1CAE20E030E040E05FE30E948706A4
:10082000698F7A8F8B8F9C8F10925A0210925B0285
:1008300010925C0210925D0210925E0210925F02B2
:1008400010926002109261022FB7F8946091C0017B
:100850007091C1018091C2019091C3012FBF0E948C
:10086000F90560932E0270932F02809330029093CB
:1008700031026A817B818C819D810E94FB050E94EF
:10088000C30560933E0270933F02809340029093B1
:1008900041026D857E858F8598890E94FB050E94A7
:1008A000C305609342027093430280934402909385
:1008B00045022BED3FE049E450E4F801648575857D
:1008C000868597850E948706F801208931894289AB
:1008D00053890E94510560933A0270933B028093C2
:1008E0003C0290933D0270E060E08A850E943803EC
:1008F00070E060E08D89DF91CF911F910F910C9492
:100900003803CF93DF93CDB7DEB7A1970FB6F89436
:10091000DEBF0FBECDBF789484B5826084BD84B540
:10092000816084BD85B5826085BD85B5816085BDEA
:1009300080916E00816080936E00109281008091A2
:10094000810082608093810080918100816080932A
:100950008100809180008160809380008091B1004F
:1009600084608093B1008091B00081608093B0007A
:1009700080917A00846080937A0080917A0082600E
:1009800080937A0080917A00816080937A008091D0
:100990007A00806880937A001092C100E091330160
:1009A000F091340182E08083E0912F01F0913001D9
:1009B0001082E0913101F09132018FEC808310922E
:1009C0003B01E0913701F091380186E08083E091AE
:1009D0003501F0913601808180618083E09135019D
:1009E000F0913601808188608083E0913501F0913B
:1009F0003601808180688083E0913501F091360175
:100A000080818F7D8083809106018230E1F1833087
:100A1000E1F18FEF6EEE71E00E948700809104019A
:100A20008230A9F18330A9F18FEF60EE71E00E946E
:100A3000870081E3F82E8E01005E1F4F90E0C92EE3
:100A400090E0D92E19A2F8A2F80101900020E9F750
:100A50003197AF01401B510BB80183E291E00E9436
:100A6000D30042E050E06AE171E083E291E00E944D
:100A7000D300C114D10431F30E943D01882311F346
:100A80000E940000DFCF80E0C5CF81E0C3CF80E0CF
:100A9000CCCF81E0CACFEE0FFF1F0590F491E02D7F
:100AA00009940E9465050C944D060E94460658F074
:100AB0000E943F0640F029F45F3F29F00C9436066F
:100AC00051110C9481060C943C060E945E0668F35A
:100AD0009923B1F3552391F3951B550BBB27AA27F7
:100AE00062177307840738F09F5F5F4F220F331F31
:100AF000441FAA1FA9F335D00E2E3AF0E0E832D0F9
:100B000091505040E695001CCAF72BD0FE2F29D0FB
:100B1000660F771F881FBB1F261737074807AB07CD
:100B2000B0E809F0BB0B802DBF01FF2793585F4F42
:100B30003AF09E3F510578F00C9436060C948106ED
:100B40005F3FE4F3983ED4F3869577956795B79524
:100B5000F7959F5FC9F7880F911D9695879597F92F
:100B60000895E1E0660F771F881FBB1F62177307A8
:100B70008407BA0720F0621B730B840BBA0BEE1FBD
:100B800088F7E09508950E94CA056894B1110C9405
:100B9000810608950E94660688F09F5798F0B92F45
:100BA0009927B751B0F0E1F0660F771F881F991FA2
:100BB0001AF0BA95C9F714C0B13091F00E948006BE
:100BC000B1E008950C948006672F782F8827B85FCE
:100BD00039F0B93FCCF3869577956795B395D9F7FA
:100BE0003EF490958095709561957F4F8F4F9F4F04
:100BF0000895E89409C097FB3EF490958095709510
:100C000061957F4F8F4F9F4F9923A9F0F92F96E958
:100C1000BB279395F695879577956795B795F111CD
:100C2000F8CFFAF4BB0F11F460FF1BC06F5F7F4F6A
:100C30008F4F9F4F16C0882311F096E911C077237C
:100C400021F09EE8872F762F05C0662371F096E885
:100C5000862F70E060E02AF09A95660F771F881F54
:100C6000DAF7880F9695879597F9089597F99F6712
:100C700080E870E060E008959FEF80EC0895002424
:100C80000A941616170618060906089500240A94F1
:100C900012161306140605060895092E0394000C77
:100CA00011F4882352F0BB0F40F4BF2B11F460FF06
:100CB00004C06F5F7F4F8F4F9F4F089557FD90582F
:100CC000440F551F59F05F3F71F04795880F97FB10
:100CD000991F61F09F3F79F08795089512161306CA
:100CE0001406551FF2CF4695F1DF08C016161706F9
:100CF0001806991FF1CF869571056105089408952E
:100D0000E894BB2766277727CB0197F908950E94BF
:100D10009A060C944D060E943F0638F00E94460643
:100D200020F0952311F00C9436060C943C06112407
:100D30000C9481060E945E0670F3959FC1F3950F97
:100D400050E0551F629FF001729FBB27F00DB11D4F
:100D5000639FAA27F00DB11DAA1F649F6627B00DDF
:100D6000A11D661F829F2227B00DA11D621F739FC8
:100D7000B00DA11D621F839FA00D611D221F749FD6
:100D80003327A00D611D231F849F600D211D822F1D
:100D9000762F6A2F11249F5750409AF0F1F0882344
:100DA0004AF0EE0FFF1FBB1F661F771F881F915071
:100DB0005040A9F79E3F510580F00C9436060C94E4
:100DC00081065F3FE4F3983ED4F386957795679567
:100DD000B795F795E7959F5FC1F7FE2B880F911D9B
:0C0DE0009695879597F90895F894FFCF39
:100DEC00D200D20002030203000000007301D30002
:0E0DFC000001C00131010F0123010D0A0000AA
:00000001FF
