:100000000C9484000C94EC050C94C5050C94AC0085
:100010000C94AC000C94AC000C94AC000C94AC00B0
:100020000C94AC000C94AC000C94AC000C94AC00A0
:100030000C94AC000C94AC000C94AC000C94AC0090
:100040000C947B050C94AC000C9439060C941306AC
:100050000C94AC000C94AC000C94AC000C94AC0070
:100060000C94AC000C94AC00084AD73B3BCE016E1C
:1000700084BCBFFDC12F3D6C74319ABD56833DDAFF
:100080003D00C77F11BED9E4BB4C3E916BAAAABE0E
:10009000000000803F05A84CCDB2D44EB93836A937
:1000A000020C50B9918688083CA6AAAA2ABE000074
:1000B00000803F0000000000240027002A0000000C
:1000C0000000250028002B00040404040404040498
:1000D00002020202020203030303030301020408F3
:1000E00010204080010204081020010204081020A2
:1000F00000000008000201000003040700000000E7
:10010000000000001407A20F11241FBECFEFD8E09B
:10011000DEBFCDBF11E0A0E0B1E0E0E6FBE202C04F
:1001200005900D92A038B107D9F723E0A0E8B1E01F
:1001300001C01D92A434B207E1F710E0C3E8D0E09B
:1001400004C02197FE010E942510C238D107C9F7CB
:100150000E9402090C94A3150C9400008230B8F49C
:10016000E82FF0E0EE0FFF1FE050FF4F7183608338
:10017000813039F080916900836080936900E89A4A
:100180000895809169008C6080936900E99A0895D0
:10019000CF93DF9390E0FC01E452FF4F249188530A
:1001A0009F4FFC0184918823D1F090E0880F991F24
:1001B000FC01EC54FF4FA591B491FC01E254FF4FB8
:1001C000C591D49161110EC09FB7F8948C91E22F24
:1001D000E0958E238C932881E223E8839FBFDF91F3
:1001E000CF9108958FB7F894EC91E22BEC938FBFE9
:1001F000F6CF0895AF92BF92CF92DF92EF92FF9227
:100200000F931F93CF93DF936C017B018B01040F3E
:10021000151FEB015E01AE18BF08C017D10759F0DA
:100220006991D601ED91FC910190F081E02DC6011C
:100230000995892B79F7C501DF91CF911F910F9116
:10024000FF90EF90DF90CF90BF90AF900895FC01AA
:10025000538D448D252F30E0842F90E0821B930B2B
:10026000541710F0CF96089501970895FC01918DD1
:10027000828D981761F0A28DAE0FBF2FB11D5D96D4
:100280008C91928D9F5F9F73928F90E008958FEF76
:100290009FEF0895FC01918D828D981731F0828D2A
:1002A000E80FF11D858D90E008958FEF9FEF089581
:1002B000FC01918D228D892F90E0805C9F4F821BE5
:1002C00091098F739927089585E891E00E9458015C
:1002D00021E0892B09F420E0822F089580E090E04E
:1002E000892B29F00E94640181110C94000008956B
:1002F000FC01A48DA80FB92FB11DA35ABF4F2C919B
:10030000848D90E001968F739927848FA689B78991
:100310002C93A089B1898C91837080648C93938D88
:10032000848D981306C00288F389E02D80818F7D2B
:1003300080830895EF92FF920F931F93CF93DF93E3
:10034000EC0181E0888F9B8D8C8D98131AC0E88911
:10035000F989808185FF15C09FB7F894EE89FF89E0
:100360006083E889F98980818370806480839FBF7E
:1003700081E090E0DF91CF911F910F91FF90EF907E
:100380000895F62E0B8D10E00F5F1F4F0F7311278E
:10039000E02E8C8D8E110CC00FB607FCFACFE889C9
:1003A000F989808185FFF5CFCE010E947801F1CFD8
:1003B000EB8DEC0FFD2FF11DE35AFF4FF0829FB73D
:1003C000F8940B8FEA89FB8980818062CFCFCF932D
:1003D000DF93EC01888D8823B9F0AA89BB89E8896D
:1003E000F9898C9185FD03C0808186FD0DC00FB613
:1003F00007FCF7CF8C9185FFF2CF808185FFEDCF91
:10040000CE010E947801E9CFDF91CF9108956F3F2F
:10041000B1F0E62FE295EF7044E0E49F90011124E3
:10042000DC01ED91FC91E20FF31F6F70B8E06B9F60
:10043000C001112462817381860F971F089590E097
:1004400080E00895FC019289915084E0989F90018A
:100450001124A089B189A20FB31F1296ED91FC91CE
:1004600013973097E9F011962C9111978C912817DA
:10047000B8F481E0820F11968C9388E0289FA00148
:100480001124E40FF51F309759F014828FEF858304
:1004900017821682BF01892F8295807F820F08956F
:1004A00060E070E08FEF0895CF93DF93EC01A881B7
:1004B000B981F0E0E0E0109741F1CD0104966817B2
:1004C0007907F1F412969C911297915012969C9391
:1004D000129791111AC08D919C911197309769F0E4
:1004E00091838083EA01E881F9810280F381E02D24
:1004F000BD01CA01DF91CF91099499838883F2CF1E
:10050000FD010D90BC91A02DD6CFDF91CF91089524
:100510008F929F92AF92BF92CF92DF92EF92FF9213
:100520000F931F93CF93DF938C01EB01FC01848128
:1005300080FF0AC048815981608171816C5F7F4F63
:10054000CE0103960E945402F8018481807681F1E5
:100550000115110569F1D0805E01F5E1AF0EB11C06
:100560004E0183E0880E911CEFEFDE16F1F06D2D49
:10057000C5010E9407027C01FC01C580848187FFC0
:1005800007C04881598166817781C4010E94540265
:10059000BE01C7010E948802F701848180788483AC
:1005A000898D8583D98EDC2CDFCFF801D082D18272
:1005B000DF91CF911F910F91FF90EF90DF90CF903F
:1005C000BF90AF909F908F900895E6E2F2E085850E
:1005D0009685A785B0890196A11DB11D858796874F
:1005E000A787B08B0895E6E2F2E082819381A4812F
:1005F000B5810196A11DB11D82839383A483B58328
:100600000895FC0101900020E9F73197AF01481BE4
:10061000590BBC0185E891E00C94FA008F929F92EF
:10062000AF92BF920F931F93CF93DF93CDB7DEB7F7
:10063000A1970FB6F894DEBF0FBECDBF19A242300E
:1006400008F44AE08E010F5D1F4F842E912CB12CCF
:10065000A12CA50194010E940310E62FB901CA0143
:10066000EA30F4F4E05DD801EE938D01232B242BC6
:10067000252B79F790E080E0109719F0CD010E94CA
:100680000103A1960FB6F894DEBF0FBECDBFDF9178
:10069000CF911F910F91BF90AF909F908F90089531
:1006A000E95CE1CF4F925F926F927F928F929F921F
:1006B000AF92BF92CF92DF92EF92FF920F931F9370
:1006C000CF936B017C01742EAC019B010E945A13E5
:1006D000882399F08CE491E0CF911F910F91FF90C6
:1006E000EF90DF90CF90BF90AF909F908F907F90D2
:1006F0006F905F904F900C94010346015701E8946E
:10070000B7F82FEF3FEF4FE75FE7C501B4010E9455
:100710005A1381110DC02FEF3FEF4FE75FE7C5017F
:10072000B4010E940A1118161CF480E591E0D4CFA0
:100730002FEF3FEF4FE75FE4C701B6010E94D412ED
:1007400018161CF484E591E0C7CF2FEF3FEF4FE779
:100750005FECC701B6010E940A1187FDF3CF20E0CC
:1007600030E0A901C701B6010E940A1110E000E0C3
:1007700087FF0AC06DE285E891E00E949A018C0132
:10078000F7FAF094F7F8F094C0E060E070E080E0F1
:100790009FE37C1641F020E030E040E251E40E940B
:1007A0001411CF5FF6CFA70196010E942C102B01E8
:1007B0003C010E948D114B015C014AE00E940E0336
:1007C0007C01E00EF11ECC23C1F1C501B4010E94F1
:1007D000BC119B01AC01C301B2010E942B104B0163
:1007E0005C016EE285E891E00E949A01E80EF91E34
:1007F000C15018F120E030E040E251E4C501B401FD
:100800000E94E1122B013C010E948D114B01B12C81
:10081000A12C4AE0C501B4010E940E03E80EF91EA6
:10082000C501B4010E94BC119B01AC01C301B2011E
:100830000E942B104B015C01DBCFC701CF911F91B0
:100840000F91FF90EF90DF90CF90BF90AF909F906F
:100850008F907F906F905F904F9008953F924F924E
:100860005F926F927F928F929F92AF92BF92CF9240
:10087000DF92EF92FF920F931F93CF93DF933C0190
:100880002B01DC010D911C91063EBFEF1B0709F106
:10089000FC01E280F380E114F104D9F0D8015E9606
:1008A0008C915E97982F9F7791F4807880625E9606
:1008B0008C935E978FEF5A968C935A975B968C9396
:1008C0005801B5E1AB0EB11CF801628D43C085FD46
:1008D000F7CFD301ED91FC9180E0309719F0828140
:1008E00091E08927DF91CF911F910F91FF90EF90B9
:1008F000DF90CF90BF90AF909F908F907F906F9040
:100900005F904F903F9008956D81209749F1EE815F
:10091000FF81D7010D900020E9F7CD0101978E19D5
:100920009F09B0E0A0E0309739F0DF010D90002082
:10093000E9F71197AE1BBF0B8A179B0759F4D70134
:100940009C012E0D3F1D2A173B0799F18D91919126
:100950008917C9F3C5010E940702EC01892BA1F692
:10096000D8015996DC90BFEFDB16A9F16D2DC501BA
:100970000E940702EC018D81F801818F209709F414
:10098000A8C01C828FEF8D831F821E82D8015B96C8
:100990006C916F3F09F4A1C0C5010E940702FC01E0
:1009A000D582D8015B96DC928C818F778C83FF8215
:1009B000EE82F201C080D180E280F380B801CE01E6
:1009C0000E9488028C8180788C608C83C882D98256
:1009D000EA82FB827ECF4801F5E08F0E911CD801A0
:1009E000CD90DC90119757968C91882349F0C401E3
:1009F0000E942202C62FD72F209711F0D82EC6CFE3
:100A0000F801C789908DC91325C0C03109F461C0B0
:100A1000CC0F65897689D601ED91FC91B4E0CB9F2E
:100A2000A00111248616970609F04BC00190F081B1
:100A3000E02DBA01C6010995009709F44AC020E1EA
:100A4000F401DC0101900D922A95E1F7F801968BF3
:100A5000858BC08FD8015596CD91DC9156975796CE
:100A60008C91579721E0280F57962C93B4E08B9FD9
:100A7000C0011124C80FD91F90E1392E203111F483
:100A80008FE0382EE8E03E9EB0011124D601ED91B2
:100A9000FC910190F081E02DC60109959B838A832A
:100AA000892B09F4312C38821982CD2B91F0C401A5
:100AB0000E942202C62FD72FD82E209709F066CF8A
:100AC00008C00480F581E02DC6010995009709F062
:100AD000BDCF81E0F8018283FCCEF801D28ED38EA7
:100AE00063CFCB01BA010C94A614CB010C941D1456
:100AF000CB010C9481131F920F920FB60F92112409
:100B00002F933F938F939F93AF93BF938091220234
:100B100090912302A0912402B0912502309184018A
:100B200023E0230F2D3758F50196A11DB11D209309
:100B300084018093220290932302A0932402B09315
:100B400025028091800190918101A0918201B09154
:100B500083010196A11DB11D8093800190938101B5
:100B6000A0938201B0938301BF91AF919F918F9128
:100B70003F912F910F900FBE0F901F90189526E870
:100B8000230F0296A11DB11DD2CF1F920F920FB657
:100B90000F9211242F933F934F935F936F937F9303
:100BA0008F939F93AF93BF93EF93FF93E0910201D5
:100BB000F09103010995FF91EF91BF91AF919F9142
:100BC0008F917F916F915F914F913F912F910F90F6
:100BD0000FBE0F901F9018951F920F920FB60F9295
:100BE00011242F933F934F935F936F937F938F9332
:100BF0009F93AF93BF93EF93FF93E0910001F09128
:100C000001010995FF91EF91BF91AF919F918F9154
:100C10007F916F915F914F913F912F910F900FBEF8
:100C20000F901F9018951F920F920FB60F921124DC
:100C30002F933F934F935F936F937F938F939F93E4
:100C4000AF93BF93EF93FF9385E891E00E94780103
:100C5000FF91EF91BF91AF919F918F917F916F9194
:100C60005F914F913F912F910F900FBE0F901F906A
:100C700018951F920F920FB60F9211242F938F93F6
:100C80009F93EF93FF93E0919501F09196018081FE
:100C9000E0919B01F0919C0182FD1BC090818091AD
:100CA0009E018F5F8F7320919F01821741F0E09129
:100CB0009E01F0E0EB57FE4F958F80939E01FF91D0
:100CC000EF919F918F912F910F900FBE0F901F90DA
:100CD00018958081F4CF90E0FC01E051FF4F249102
:100CE000FC01E452FF4F3491FC01E853FF4FE491C3
:100CF000EE23C9F0222339F0233001F1A8F421308A
:100D000019F1223029F1F0E0EE0FFF1FE254FF4FFE
:100D1000A591B4918FB7F894EC91611126C03095EC
:100D20003E233C938FBF08952730A9F02830C9F0A7
:100D3000243049F7809180008F7D03C0809180002E
:100D40008F7780938000DFCF84B58F7784BDDBCF32
:100D500084B58F7DFBCF8091B0008F778093B000FA
:100D6000D2CF8091B0008F7DF9CF3E2BDACF1F9389
:100D7000CF93DF93182FEB0161E00E94C80020970A
:100D800039F460E0812FDF91CF911F910C946B06B5
:100D9000CF3FD10511F461E0F5CFE12FF0E0E05154
:100DA000FF4FE491E33031F140F4E130B1F0E23053
:100DB000E1F0C038D1057CF7E4CFE73029F1E83025
:100DC00059F1E430B1F78091800080628093800017
:100DD000D0938B00C0938A0004C084B5806884BD22
:100DE000C7BDDF91CF911F91089584B5806284BD06
:100DF000C8BDF7CF80918000806880938000D09339
:100E00008900C0938800EDCF8091B0008068809306
:100E1000B000C093B300E5CF8091B00080628093B2
:100E2000B000C093B400DDCFBF92CF92DF92EF92BB
:100E3000FF920F931F93CF93DF93E5E8F1E01382C6
:100E4000128288EE93E0A0E0B0E084839583A683CD
:100E5000B7838EE391E09183808385EC90E0958762
:100E6000848784EC90E09787868780EC90E0918B74
:100E7000808B81EC90E0938B828B82EC90E0958B61
:100E8000848B86EC90E0978B868B118E128E138E5E
:100E9000148E08E211E0F8018081C6E2D2E0282F2A
:100EA00030E0398328831A821B821C821D8260E015
:100EB0000E94C800F80181818A8760E00E94C80012
:100EC00006E211E0F8018081282F30E03C872B8773
:100ED0001D861E861F86188A60E00E94C800F801E1
:100EE00081818D8B60E00E94C80088E7B82EBE8AA1
:100EF0001DAA1EAA1FAA18AE19AE1AAE1BAE1CAEB2
:100F000010926302109264021092650210926602BF
:100F100010926702109268021092690210926A029F
:100F200010926B0210926C0210926D0210926E027F
:100F3000C12CD12C90E8E92E9FE3F92EC0926F02CC
:100F4000D0927002E0927102F092720210927302DB
:100F5000109274021092750210927602109277022B
:100F6000109278021092790210927A0210927B020B
:100F700010927C0210927D0210927E0210927F02EB
:100F800010928002109281021092820202E111E01E
:100F900020E030E040E05FE3F80164817581868104
:100FA00097810E94E112698F7A8F8B8F9C8FF80155
:100FB00080819181A281B38189AB9AABABABBCAB91
:100FC000C0928702D0928802E0928902F0928A024F
:100FD000C0928302D0928402E0928502F09286024F
:100FE00084E091E090938C0280938B0210928D02AA
:100FF00010928F0210928E0280E992E09093A102EB
:101000008093A0021092A20284E08093A3028FEF4B
:101010008093A4021092A9021092EC021092ED02A9
:101020001092EE021092EF021092F0021092F10272
:101030001092F2021092F302109200031092010338
:1010400010920203109203031092040310920503FE
:1010500010920603109207031092140310921503C6
:10106000109216031092170310921803109219038E
:1010700010921A0310921B03E6E0F1E0808591853F
:10108000A285B3854481558166817781C080D180F6
:10109000E280F380C0922803D0922903E0922A03D1
:1010A000F0922B0340932C0350932D0360932E0357
:1010B00070932F038093300390933103A0933203F6
:1010C000B093330310923403109235031092360319
:1010D00010923703109238031092390310923A039A
:1010E00010923B0310923C0310923D0310923E037A
:1010F00010923F032FB7F89460912202709123025F
:1011000080912402909125022FBF0E94BC11609310
:10111000AF027093B0028093B1029093B2026A81E1
:101120007B818C819D810E94BE110E9486116093FB
:10113000BF027093C0028093C1029093C2026D857A
:101140007E858F8598890E94BE110E9486116093CA
:10115000C3027093C4028093C5029093C6022BED24
:101160003FE049E450E4F8016485758586859785FC
:101170000E94E112F80120893189428953890E9435
:1011800014116093BB027093BC028093BD029093D4
:10119000BE02B092DF02109208031092090310926F
:1011A0000A0310920B0310920C0310920D0310927D
:1011B0000E0310920F0380E090E0AEEDB2E4809356
:1011C000AB029093AC02A093AD02B093AE0210922A
:1011D000CF021092D0021092D1021092D20270E08F
:1011E00060E08A850E94B70670E060E08D89DF913B
:1011F000CF911F910F91FF90EF90DF90CF90BF9014
:101200000C94B706CF93DF93CDB7DEB764970FB6D4
:10121000F894DEBF0FBECDBF789484B5826084BDE4
:1012200084B5816084BD85B5826085BD85B58160EA
:1012300085BD80916E00816080936E001092810068
:101240008091810082608093810080918100816023
:1012500080938100809180008160809380008091E4
:10126000B10084608093B1008091B0008160809370
:10127000B00080917A00846080937A0080917A0037
:10128000826080937A0080917A00816080937A00F6
:1012900080917A00806880937A001092C100E0917A
:1012A0009501F091960182E08083E0919101F091A7
:1012B00092011082E0919301F09194018FEC808370
:1012C00010929D01E0919901F0919A0186E080834E
:1012D000E0919701F0919801808180618083E09195
:1012E0009701F0919801808188608083E091970157
:1012F000F0919801808180688083E0919701F0915E
:10130000980180818F7D808380912801823009F44B
:101310007CC2833009F07BC281E063EF72E00E94FF
:10132000AE0080912601823009F473C2833009F047
:1013300072C281E065EE72E00E94AE008BE8282E5A
:1013400082E0382E85E891E00E94580118161906AF
:1013500034F485E891E00E9436018093AA026091FE
:10136000AA026F3609F059C280E090E0AEEDB2E417
:101370008093AB029093AC02A093AD02B093AE0207
:101380002FB7F89460912202709123028091240279
:10139000909125022FBF0E94BC116B017C01C0926D
:1013A000B702D092B802E092B902F092BA0220914C
:1013B000AF023091B0024091B1025091B2020E944E
:1013C0002B106093B3027093B4028093B502909394
:1013D000B602C092AF02D092B002E092B102F09297
:1013E000B202609128027091290280912A029091A4
:1013F0002B020E94BE116B017C016091BF027091B3
:10140000C0028091C1029091C2020E94BE119B0154
:10141000AC01C701B6010E942B100E948D11062F4E
:1014200060913302709134028091350290913602BE
:101430000E94BE116B017C016091C3027091C402D5
:101440008091C5029091C6020E94BE119B01AC0121
:10145000C701B6010E942B100E948D11162F80909B
:10146000BB029090BC02A090BD02B090BE02602F63
:1014700070E090E080E00E94BE11A50194010E94FE
:10148000E1126B017C01C092C702D092C802E092C7
:10149000C902F092CA02612F70E090E080E00E94E1
:1014A000BE11A50194010E94E1124B015C018092E2
:1014B000CB029092CC02A092CD02B092CE0260916B
:1014C00028027091290280912A0290912B020E9499
:1014D000BE110E9486116093BF027093C002809378
:1014E000C1029093C20260913302709134028091E4
:1014F0003502909136020E94BE110E9486116093BF
:10150000C3027093C4028093C5029093C602A501E2
:101510009401C701B6010E940A1140906F025090D9
:101520007002609071027090720287FF8CC1C0924D
:101530004B02D0924C02E0924D02F0924E02809209
:101540004F0290925002A0925102B092520211E0CA
:1015500080904F0290905002A0905102B0905202A1
:1015600080914B0290914C02A0914D02B0914E029D
:101570008D839E83AF83B8879C01AD01C501B40103
:101580000E942B106D877E878F87988BC0903F02BB
:10159000D0904002E0904102F0904202A7019601F3
:1015A000C701B6010E942C109B01AC016D857E85A0
:1015B0008F8598890E94141169877A878B879C8709
:1015C00060934702709348028093490290934A02C5
:1015D0002D813E814F815885C501B4010E942C1098
:1015E000A70196010E94E1122D853E854F855889FD
:1015F0000E9414114B015C018092430290924402BC
:10160000A0924502B092460280916B0290916C02CA
:10161000A0916D02B0916E028D839E83AF83B887D7
:10162000B0588D879E87AF87B88B40925B025092EF
:101630005C0260925D0270925E0280935F02909302
:101640006002A0936102B09362028D819E81AF819E
:10165000B8858093630290936402A0936502B0936F
:10166000660240926702509268026092690270922C
:101670006A0269857A858B859C850E944E136B0171
:101680007C01A50194010E94E112698B7A8B8B8BFE
:101690009C8B69857A858B859C850E940F11698753
:1016A0007A878B879C87112309F4D1C320E030E02F
:1016B00040E85FE30E942B10A50194010E94E11213
:1016C0006093730270937402809375029093760214
:1016D000F7FAF094F7F8F094C0926B02D0926C0293
:1016E000E0926D02F0926E02C0907302D09074028C
:1016F000E0907502F0907602A7019601C301B20155
:101700000E94E1124B015C0129893A894B895C896D
:101710006D817E818F8198850E94E1129B01AC01D1
:10172000C501B4010E942C1060937302709374027F
:101730008093750290937602A70196016D857E8550
:101740008F8598890E94E1126B017C0129893A8971
:101750004B895C89C301B2010E94E1129B01AC017B
:10176000C701B6010E942C10609377027093780233
:101770008093790290937A02C0906B02D0906C02B1
:10178000E0906D02F0906E02A7019601C301B201D4
:101790000E94E1124B015C0129853A854B855C85ED
:1017A0006D817E818F8198850E94E1129B01AC0141
:1017B000C501B4010E942C1060936B0270936C02FF
:1017C00080936D0290936E02A70196016D857E85D0
:1017D0008F8598890E94E1126B017C0129853A85E9
:1017E0004B855C85C301B2010E94E1129B01AC01F3
:1017F000C701B6010E942C1060936F0270937002B3
:1018000080937102909372025AC080E086CD8FEF70
:1018100084CD80E08FCD8FEF8DCD062E000C770B21
:10182000880B990B0E94BE1120E030E040E251E4A9
:101830000E9414116093AB027093AC028093AD02CE
:101840009093AE029DCDA5019401C701B6010E94FF
:10185000D412181694F480924B0290924C02A092EB
:101860004D02B0924E02C0924F02D0925002E092CE
:101870005102F092520210E06BCEA70196016091E6
:101880006B0270916C0280916D0290916E020E94C9
:10189000E1126093730270937402809375029093C7
:1018A0007602A3019201C701B6010E94E112609382
:1018B0007702709378028093790290937A02C090B5
:1018C000AB02D090AC02E090AD02F090AE0220E00E
:1018D00030E04EED52E4C701B6010E940A118111B9
:1018E000CDC280E090E0AEEDB2E480937B029093B5
:1018F0007C02A0937D02B0937E0280937F0290933E
:101900008002A0938102B09382028090770290902F
:101910007802A0907902B0907A02209173023091FF
:10192000740240917502509176026091EC027091C0
:10193000ED028091EE029091EF020E942C106B015B
:101940007C01C092EC02D092ED02E092EE02F092A5
:10195000EF022091F0023091F1024091F202509199
:10196000F302C501B4010E942C104B015C0180926E
:10197000F0029092F102A092F202B092F302C092B1
:10198000E002D092E102E092E202F092E302809261
:10199000E4029092E502A092E602B092E70288E0AB
:1019A000EBE7F2E0A4E1B3E001900D928A95E1F754
:1019B0004090140350901503609016037090170325
:1019C00020E030E04EED52E4C301B2010E940A1162
:1019D0008823A1F1A7019601C301B2010E942C1036
:1019E0002B013C01409214035092150360921603A0
:1019F00070921703209118033091190340911A0334
:101A000050911B03C501B4010E942C106093180370
:101A10007093190380931A0390931B034092080359
:101A20005092090360920A0370920B0360930C03B7
:101A300070930D0380930E0390930F0388E0EBE601
:101A4000F2E0A0E0B3E001900D928A95E1F7809179
:101A5000000390910103A0910203B09103038D83D1
:101A60009E83AF83B8878093F4029093F502A0938E
:101A7000F602B093F7024090040350900503609083
:101A80000603709007034092F8025092F9026092A8
:101A9000FA027092FB0220E030E040E051E4BC0129
:101AA000CD010E94E112A70196010E942C106B014A
:101AB0007C01C0921C03D0921D03E0921E03F092A1
:101AC0001F0320E030E040E051E4C301B2010E9476
:101AD000E112A50194010E942C104B015C0180923F
:101AE000200390922103A0922203B0922303A70126
:101AF0009601609108037091090380910A03909107
:101B00000B030E942B106B017C01C092D302D09278
:101B1000D402E092D502F092D602A5019401609120
:101B20000C0370910D0380910E0390910F030E949E
:101B30002B104B015C018092D7029092D802A092A8
:101B4000D902B092DA022D813E814F815885C701BA
:101B5000B6010E94E11269877A878B879C87A3016F
:101B60009201C501B4010E94E1129B01AC0169859B
:101B70007A858B859C850E942C1069877A878B8754
:101B80009C872D813E814F815885C501B4010E94FB
:101B9000E1124B015C01A3019201C701B6010E9451
:101BA000E1129B01AC01C501B4010E942B102985F3
:101BB0003A854B855C850E94AB109B01AC0120935C
:101BC000CF023093D0024093D1025093D202409082
:101BD000B3025090B4026090B5027090B60260E01B
:101BE00070E0CB010E942B104B015C012091280377
:101BF0003091290340912A0350912B030E94E11256
:101C0000698B7A8B8B8B9C8BA5019401C301B201EC
:101C10000E94E11220912C0330912D0340912E035C
:101C200050912F030E94E112209138033091390323
:101C300040913A0350913B030E942C106B017C01B0
:101C400020E030E0A901C301B2010E94D4121816AD
:101C50000CF06FC120913C0330913D0340913E0355
:101C600050913F03C501B4010E942B10A3019201C2
:101C70000E941411209130033091310340913203BE
:101C8000509133030E94E1126D877E878F87988B76
:101C900040903403509035036090360370903703C2
:101CA00020E030E0A901C301B2010E940A1188239B
:101CB000F1F0A3019201C701B6010E94D4121816D7
:101CC0000CF43CC1CD82D986870173016201F7FA19
:101CD000F094F7F8F0942D813985A801C701B60179
:101CE0000E94D41218161CF0CD80D9847801C092BD
:101CF0003803D0923903E0923A03F0923B0380928A
:101D00003C0390923D03A0923E03B0923F03A70193
:101D1000960169897A898B899C890E942C102D856E
:101D20003E854F8558890E942C104B015C01C09064
:101D3000AA020C2C000CDD08EE08FF084AE0C701DF
:101D4000B601F7FE0DC06DE285E891E00E949A01B0
:101D500066277727CB016C197D098E099F094AE018
:101D60000E940E0388E591E00E9401036091CF027A
:101D70007091D0028091D1029091D20242E00E94F3
:101D8000520388E591E00E94010342E0C501B401DD
:101D90000E94520388E591E00E9401038CE591E0E6
:101DA0000E9401033A822982AFE5B1E0BC83AB8394
:101DB00060EE72E0CE0101960E942E043A822982E2
:101DC00084E691E09C838B8364EE72E0CE01019601
:101DD0000E942E043A822982A9E6B1E0BC83AB833B
:101DE00064EF72E0CE0101960E942E043A822982AD
:101DF0008EE691E09C838B8368EF72E0CE010196C2
:101E00000E942E043A822982A3E7B1E0BC83AB830F
:101E100068E073E0CE0101960E942E043A82298286
:101E200089E791E09C838B836CE073E0CE0101969F
:101E30000E942E04A0E0B0E0AB2B09F483CA0E94FC
:101E40006401882309F47ECA0E9400007BCA2985A8
:101E50003A854B855C8560E070E080E89FE30E94F6
:101E60002B10A50194010E94E112609373027093FC
:101E7000740280937502909376022ECC8090570264
:101E800090905802A0905902B0905A0220915F029F
:101E9000309160024091610250916202C701B60127
:101EA0000E94E1122B013C012091670230916802EF
:101EB0004091690250916A02C501B4010E94E11289
:101EC0009B01AC01C301B2010E942C102B013C010B
:101ED00020915B0230915C0240915D0250915E0264
:101EE000C701B6010E94E1126B017C0120916302DF
:101EF000309164024091650250916602C501B401BF
:101F00000E94E1129B01AC01C701B6010E942C1096
:101F100060937B0270937C0280937D0290937E029B
:101F200040927F02509280026092810270928202FF
:101F3000ECCC1D861E861F86188AAACE4D82598635
:101F40008301C3CEFF920F931F93CF93DF93C09172
:101F50008B02D0918C0260918E0270918F0261157C
:101F6000710579F0DB018D919C9190938F028093A4
:101F70008E02E881F9810280F381E02DCE0109957E
:101F8000EACF00918B0210918C02F12C6091A0029B
:101F90007091A1028091A202F816C8F4B4E0FB9EF1
:101FA000E0011124C60FD71F6A817B81611571057D
:101FB00041F0D801ED91FC910280F381E02DC80140
:101FC00009951B821A8218821982F394DFCF10922E
:101FD000A2028FEF8093A402B2E060397B0769F020
:101FE000D801ED91FC910280F381E02DC801DF91D1
:101FF000CF911F910F91FF900994DF91CF911F9185
:102000000F91FF900895A1E21A2EAA1BBB1BFD01A0
:102010000DC0AA1FBB1FEE1FFF1FA217B307E407C7
:10202000F50720F0A21BB30BE40BF50B661F771F1F
:10203000881F991F1A9469F76095709580959095FF
:102040009B01AC01BD01CF010895EE0FFF1F05906C
:10205000F491E02D09945058BB27AA270E94431001
:102060000C9486120E944D1238F00E94541220F0F7
:1020700039F49F3F19F426F40C9423120EF4E095E2
:10208000E7FB0C941D12E92F0E94AB1258F3BA170C
:10209000620773078407950720F079F4A6F50C947E
:1020A000CD120EF4E0950B2EBA2FA02D0B01B90125
:1020B00090010C01CA01A0011124FF27591B99F0BE
:1020C000593F50F4503E68F11A16F040A22F232FCA
:1020D000342F4427585FF3CF469537952795A7951A
:1020E000F0405395C9F77EF41F16BA0B620B730BC1
:1020F000840BBAF09150A1F0FF0FBB1F661F771F32
:10210000881FC2F70EC0BA0F621F731F841F48F4E6
:10211000879577956795B795F7959E3F08F0B0CF6F
:102120009395880F08F09927EE0F97958795089556
:102130000E944D1260F080E891E009F49EEF0E9449
:10214000541228F040E851E071F45EEF0CC00C949A
:1021500023120C94CD12E92FE0780E94AB1240F3C9
:10216000092E052AB1F3261737074807590738F013
:102170000E2E07F8E02569F0E025E0640AC0EF6361
:1021800007F8009407FADB01B9019D01DC01CA01DF
:10219000AD01EF930E942B110E9486120E94DB106A
:1021A0005F91552339F02BED3FE049E450FD49ECB8
:1021B0000C942C100895DF93DD27B92FBF7740E8EA
:1021C0005FE31616170648075B0718F4D92F0E941D
:1021D000D9129F938F937F936F930E945613E8E6D3
:1021E000F0E00E9426120E9486122F913F914F919B
:1021F0005F910E94F412DD2351F09058A2EA2AED7B
:102200003FE049EC5FE3D0785D270E944310DF9107
:102210000C9486120E94F91108F481E008950E943E
:102220005D12E3950C9497120E9428110C9486126B
:102230000E94541258F00E944D1240F029F45F3F62
:1022400029F00C941D1251110C94CE120C942312EF
:102250000E94AB1268F39923B1F3552391F3951BB8
:10226000550BBB27AA2762177307840738F09F5FB7
:102270005F4F220F331F441FAA1FA9F335D00E2E24
:102280003AF0E0E832D091505040E695001CCAF791
:102290002BD0FE2F29D0660F771F881FBB1F261754
:1022A00037074807AB07B0E809F0BB0B802DBF012B
:1022B000FF2793585F4F3AF09E3F510578F00C94FA
:1022C0001D120C94CE125F3FE4F3983ED4F3869532
:1022D00077956795B795F7959F5FC9F7880F911D1B
:1022E0009695879597F90895E1E0660F771F881F07
:1022F000BB1F621773078407BA0720F0621B730BBA
:10230000840BBA0BEE1F88F7E09508950E948D119B
:102310006894B1110C94CE1208950E94B31288F003
:102320009F5798F0B92F9927B751B0F0E1F0660F99
:10233000771F881F991F1AF0BA95C9F714C0B130DA
:1023400091F00E94CD12B1E008950C94CD12672F48
:10235000782F8827B85F39F0B93FCCF38695779509
:102360006795B395D9F73EF49095809570956195F2
:102370007F4F8F4F9F4F0895E89409C097FB3EF41D
:1023800090958095709561957F4F8F4F9F4F9923C2
:10239000A9F0F92F96E9BB279395F6958795779540
:1023A0006795B795F111F8CFFAF4BB0F11F460FF00
:1023B0001BC06F5F7F4F8F4F9F4F16C0882311F058
:1023C00096E911C0772321F09EE8872F762F05C06C
:1023D000662371F096E8862F70E060E02AF09A9507
:1023E000660F771F881FDAF7880F9695879597F9FC
:1023F0000895990F0008550FAA0BE0E8FEEF161696
:102400001706E807F907C0F012161306E407F507E8
:1024100098F0621B730B840B950B39F40A2661F05C
:10242000232B242B252B21F408950A2609F4A140FF
:10243000A6958FEF811D811D089597F99F6780E80C
:1024400070E060E008959FEF80EC0895DF93CF93F4
:102450001F930F93FF92EF92DF927B018C016894A0
:1024600006C0DA2EEF010E94F412FE01E894A59155
:102470002591359145915591A6F3EF010E944310A6
:10248000FE019701A801DA9469F7DF90EF90FF90C1
:102490000F911F91CF91DF91089500240A94161691
:1024A000170618060906089500240A941216130642
:1024B0001406050608950C9423120E94B312D8F353
:1024C000E894E0E0BB279F57F0F02AED3FE049ECAD
:1024D00006C0EE0FBB0F661F771F881F28F0B23AA9
:1024E00062077307840728F0B25A620B730B840BE0
:1024F000E3959A9572F7803830F49A95BB0F661F72
:10250000771F881FD2F790480C946113092E03940B
:10251000000C11F4882352F0BB0F40F4BF2B11F4D0
:1025200060FF04C06F5F7F4F8F4F9F4F0895EF9301
:10253000E0FF07C0A2EA2AED3FE049EC5FEB0E9412
:1025400043100E9486120F90039401FC9058E5E915
:10255000F0E00C946D1357FD9058440F551F59F03F
:102560005F3F71F04795880F97FB991F61F09F3F80
:1025700079F087950895121613061406551FF2CFA9
:102580004695F1DF08C0161617061806991FF1CFF9
:1025900086957105610508940895E894BB27662720
:1025A0007727CB0197F908950E94F91108F48FEF6E
:1025B00008959B01AC0160E070E080E89FE30C941B
:1025C00014110E94F4120C9486120E944D1238F0DD
:1025D0000E94541220F0952311F00C941D120C94BB
:1025E000231211240C94CE120E94AB1270F3959F0B
:1025F000C1F3950F50E0551F629FF001729FBB27FA
:10260000F00DB11D639FAA27F00DB11DAA1F649F95
:102610006627B00DA11D661F829F2227B00DA11D48
:10262000621F739FB00DA11D621F839FA00D611DCE
:10263000221F749F3327A00D611D231F849F600DEF
:10264000211D822F762F6A2F11249F5750409AF018
:10265000F1F088234AF0EE0FFF1FBB1F661F771FA4
:10266000881F91505040A9F79E3F510580F00C946F
:102670001D120C94CE125F3FE4F3983ED4F386957E
:1026800077956795B795F795E7959F5FC1F7FE2B0F
:10269000880F911D9695879597F908959F930E94AD
:1026A0005D120F9007FCEE5F0C9497129B01AC013A
:1026B0000C94E1120E94F911880B990B08959F3F29
:1026C00031F0915020F4879577956795B795880FED
:1026D000911D9695879597F908959F938F937F9372
:1026E0006F93FF93EF939B01AC010E94E112EF9176
:1026F000FF910E9426122F913F914F915F910C9470
:10270000E1120F931F93CF93DF938230910510F462
:1027100082E090E0E0914203F091430330E020E05A
:10272000B0E0A0E0309799F42115310509F44AC0D2
:10273000281B390B24303105D8F58A819B8161151E
:10274000710589F1FB0193838283FE0111C04081F1
:1027500051810281138148175907E0F04817590742
:1027600099F4109761F012960C93129713961C939C
:102770003296CF01DF91CF911F910F910895009371
:10278000420310934303F4CF2115310551F0421752
:10279000530738F0A901DB019A01BD01DF01F801FF
:1027A000C1CFEF01F9CF9093430380934203CDCF84
:1027B000FE01E20FF31F8193919322503109398377
:1027C0002883D7CF2091400330914103232B41F43C
:1027D00020912C0130912D0130934103209340032F
:1027E00020912A0130912B012115310541F42DB79B
:1027F0003EB740912E0150912F01241B350BE091E3
:102800004003F0914103E217F307A0F42E1B3F0BA6
:102810002817390778F0AC014E5F5F4F2417350752
:1028200048F04E0F5F1F5093410340934003819344
:1028300091939FCFF0E0E0E09CCFCF93DF930097A0
:10284000E9F0FC01329713821282A0914203B09109
:102850004303ED0130E020E01097A1F420813181A5
:10286000820F931F209140033091410328173907AD
:1028700009F061C0F0934103E0934003DF91CF91F1
:102880000895EA01CE17DF07E8F54A815B819E01D2
:1028900041155105B1F7E901FB83EA83499159914B
:1028A000C40FD51FEC17FD0761F48081918102965A
:1028B000840F951FE90199838883828193819B838B
:1028C0008A83F0E0E0E012968D919C911397009737
:1028D000B9F52D913C911197CD010296820F931F6E
:1028E00020914003309141032817390739F630977A
:1028F00051F51092430310924203B0934103A09309
:102900004003BCCFD383C28340815181840F951F84
:10291000C817D90761F44E5F5F4F88819981480FCE
:10292000591F518340838A819B8193838283211520
:10293000310509F0B0CFF0934303E09342039ECFFB
:10294000FD01DC01C0CF13821282D7CFB0E0A0E03E
:10295000ECEAF4E10C946E158C01009751F4CB0174
:102960000E9481138C01C801CDB7DEB7E0E10C9461
:102970008A15FC01E60FF71F9C0122503109E2176E
:10298000F30708F49DC0D901CD91DC911197C617CA
:10299000D70798F0C530D10530F3CE0104978617DC
:1029A000970708F3C61BD70B2297C193D1936D935A
:1029B0007C93CF010E941D14D6CF5B01AC1ABD0AD7
:1029C0004C018C0E9D1EA0914203B0914303512CEB
:1029D000412CF12CE12C109731F58091400390911E
:1029E00041038815990509F05CC04616570608F0A2
:1029F00058C080912A0190912B01009741F48DB726
:102A00009EB740912E0150912F01841B950BE81722
:102A1000F90708F055C0F0934103E0934003F90132
:102A200071836083A0CF8D919C91119712966C90C9
:102A3000129713967C901397A815B90559F56C0158
:102A400042E0C40ED11CCA14DB0420F1AC014A19C7
:102A50005B09DA011296159780F0628273825183C6
:102A60004083D9016D937C93E114F10471F0D70197
:102A70001396FC93EE93129776CF22968C0F9D1FA0
:102A8000F90191838083F301EFCFF0934303E09347
:102A9000420369CF4816590608F42C017D01D30181
:102AA0009ACFCB010E9481137C01009749F0AE01BF
:102AB000B8010E946315C8010E941D14870153CFFD
:102AC00010E000E050CFFB01DC0102C001900D924C
:102AD00041505040D8F708952F923F924F925F9205
:102AE0006F927F928F929F92AF92BF92CF92DF921E
:102AF000EF92FF920F931F93CF93DF93CDB7DEB783
:102B0000CA1BDB0B0FB6F894DEBF0FBECDBF099416
:102B10002A88398848885F846E847D848C849B846D
:102B2000AA84B984C884DF80EE80FD800C811B817B
:102B3000AA81B981CE0FD11D0FB6F894DEBF0FBEAA
:102B4000CDBFED01089510E0C3E8D0E004C0FE0160
:102B50000E9425102196C438D107C9F7F894FFCFF9
:102B6000F900F9003401000080400000000000007E
:102B70008040000040410000804100000000000053
:102B800000400000E8410209030A000044038000FD
:102B900000000000780575057105000000009A012D
:102BA000FA002701E701580136014A016E616E0003
:102BB000696E66006F766600207C20000D0A006357
:102BC00061725800636172590064697258006469E7
:102BD0007259006C696E6558006C696E6559000029
:00000001FF
