:100000000C946D000C947E060C9457060C9495008D
:100010000C9495000C9495000C9495000C9495000C
:100020000C9495000C9495000C9495000C949500FC
:100030000C9495000C9495000C9495000C949500EC
:100040000C940D060C9495000C94CB060C94A5060C
:100050000C9495000C9495000C9495000C949500CC
:100060000C9495000C94950005A84CCDB2D44EB9D3
:100070003836A9020C50B9918688083CA6AAAA2A4B
:10008000BE000000803F00000000240027002A007E
:1000900000000000250028002B00040404040404D0
:1000A0000404020202020202030303030303010227
:1000B00004081020408001020408102001020408F6
:1000C00010200000000800020100000304070000E7
:1000D000000000000000FD06750F11241FBECFEFC9
:1000E000D8E0DEBFCDBF11E0A0E0B1E0EEE3FAE280
:1000F00002C005900D92A437B107D9F723E0A4E719
:10010000B1E001C01D92A430B207E1F710E0CCE6E7
:10011000D0E004C02197FE010E941210CB36D10717
:10012000C9F70E94A5080C9412150C9400008230A7
:10013000B8F4E82FF0E0EE0FFF1FE050FF4F71839F
:100140006083813039F08091690083608093690019
:10015000E89A0895809169008C6080936900E99A1B
:10016000089590E0FC01EE53FF4F2491FC01E2550D
:10017000FF4F3491FC01E656FF4FE491EE23C9F0A6
:10018000222339F0233001F1A8F4213019F1223073
:1001900029F1F0E0EE0FFF1FE057FF4FA591B4915A
:1001A0008FB7F894EC91611126C030953E233C93B3
:1001B0008FBF08952730A9F02830C9F0243049F7BF
:1001C000809180008F7D03C0809180008F77809325
:1001D0008000DFCF84B58F7784BDDBCF84B58F7D82
:1001E000FBCF8091B0008F778093B000D2CF809109
:1001F000B0008F7DF9CF3E2BDACFCF93DF9390E025
:10020000FC01E255FF4F249186569F4FFC018491DB
:100210008823D1F090E0880F991FFC01EA57FF4F27
:10022000A591B491FC01E057FF4FC591D4916111A4
:100230000EC09FB7F8948C91E22FE0958E238C939B
:100240002881E223E8839FBFDF91CF9108958FB784
:10025000F894EC91E22BEC938FBFF6CF1F93CF93E2
:10026000DF93182FEB0161E00E94FD00209739F425
:1002700060E0812FDF91CF911F910C94B100CF3FAF
:10028000D10511F461E0F5CFE12FF0E0EE53FF4F1F
:10029000E491E33031F140F4E130B1F0E230E1F0EB
:1002A000C038D1057CF7E4CFE73029F1E83059F1C7
:1002B000E430B1F780918000806280938000D09319
:1002C0008B00C0938A0004C084B5806884BDC7BD1C
:1002D000DF91CF911F91089584B5806284BDC8BD20
:1002E000F7CF80918000806880938000D093890050
:1002F000C0938800EDCF8091B00080688093B000FB
:10030000C093B300E5CF8091B00080628093B000CD
:10031000C093B400DDCF0895AF92BF92CF92DF9229
:10032000EF92FF920F931F93CF93DF936C017B01AA
:100330008B01040F151FEB015E01AE18BF08C0173B
:10034000D10759F06991D601ED91FC910190F081AE
:10035000E02DC6010995892B79F7C501DF91CF9171
:100360001F910F91FF90EF90DF90CF90BF90AF90D3
:100370000895FC01538D448D252F30E0842F90E0AB
:10038000821B930B541710F0CF9608950197089590
:10039000FC01918D828D981761F0A28DAE0FBF2F59
:1003A000B11D5D968C91928D9F5F9F73928F90E0AF
:1003B00008958FEF9FEF0895FC01918D828D98171E
:1003C00031F0828DE80FF11D858D90E008958FEF5B
:1003D0009FEF0895FC01918D228D892F90E0805C24
:1003E0009F4F821B91098F739927089589E791E0A8
:1003F0000E94EA0121E0892B09F420E0822F089570
:1004000080E090E0892B29F00E94F60181110C9484
:1004100000000895FC01A48DA80FB92FB11DA35AA7
:10042000BF4F2C91848D90E001968F739927848F14
:10043000A689B7892C93A089B1898C918370806437
:100440008C93938D848D981306C00288F389E02DD8
:1004500080818F7D80830895EF92FF920F931F9389
:10046000CF93DF93EC0181E0888F9B8D8C8D981367
:100470001AC0E889F989808185FF15C09FB7F89473
:10048000EE89FF896083E889F989808183708064BF
:1004900080839FBF81E090E0DF91CF911F910F910A
:1004A000FF90EF900895F62E0B8D10E00F5F1F4F19
:1004B0000F731127E02E8C8D8E110CC00FB607FC28
:1004C000FACFE889F989808185FFF5CFCE010E94B6
:1004D0000A02F1CFEB8DEC0FFD2FF11DE35AFF4F18
:1004E000F0829FB7F8940B8FEA89FB898081806244
:1004F000CFCFCF93DF93EC01888D8823B9F0AA8901
:10050000BB89E889F9898C9185FD03C0808186FDCE
:100510000DC00FB607FCF7CF8C9185FFF2CF80811D
:1005200085FFEDCFCE010E940A02E9CFDF91CF9186
:1005300008956F3FB1F0E62FE295EF7044E0E49F3D
:1005400090011124DC01ED91FC91E20FF31F6F701B
:10055000B8E06B9FC001112462817381860F971FE1
:10056000089590E080E00895FC019289915084E024
:10057000989F90011124A089B189A20FB31F1296F0
:10058000ED91FC9113973097E9F011962C9111970A
:100590008C912817B8F481E0820F11968C9388E033
:1005A000289FA0011124E40FF51F309759F0148201
:1005B0008FEF858317821682BF01892F8295807FF6
:1005C000820F089560E070E08FEF0895CF93DF937E
:1005D000EC01A881B981F0E0E0E0109741F1CD0194
:1005E000049668177907F1F412969C91129791502E
:1005F00012969C93129791111AC08D919C9111970C
:10060000309769F091838083EA01E881F981028063
:10061000F381E02DBD01CA01DF91CF910994998347
:100620008883F2CFFD010D90BC91A02DD6CFDF9134
:10063000CF9108958F929F92AF92BF92CF92DF9207
:10064000EF92FF920F931F93CF93DF938C01EB01F7
:10065000FC01848180FF0AC04881598160817181D9
:100660006C5F7F4FCE0103960E94E602F801848101
:10067000807681F10115110569F1D0805E01F5E107
:10068000AF0EB11C4E0183E0880E911CEFEFDE1619
:10069000F1F06D2DC5010E9499027C01FC01C5801D
:1006A000848187FF07C04881598166817781C401B1
:1006B0000E94E602BE01C7010E941A03F70184816D
:1006C00080788483898D8583D98EDC2CDFCFF801F7
:1006D000D082D182DF91CF911F910F91FF90EF9047
:1006E000DF90CF90BF90AF909F908F900895EAE1F8
:1006F000F2E085859685A785B0890196A11DB11D7B
:1007000085879687A787B08B0895EAE1F2E082811A
:100710009381A481B5810196A11DB11D828393832C
:10072000A483B5830895FC0101900020E9F7319777
:10073000AF01481B590BBC0189E791E00C948C0177
:100740008F929F92AF92BF920F931F93CF93DF939D
:10075000CDB7DEB7A1970FB6F894DEBF0FBECDBF01
:1007600019A2423008F44AE08E010F5D1F4F842E1B
:10077000912CB12CA12CA50194010E94E40FE62F2D
:10078000B901CA01EA30F4F4E05DD801EE938D01BD
:10079000232B242B252B79F790E080E0109719F07C
:1007A000CD010E949303A1960FB6F894DEBF0FBE51
:1007B000CDBFDF91CF911F910F91BF90AF909F90D0
:1007C0008F900895E95CE1CF4F925F926F927F9294
:1007D0008F929F92AF92BF92CF92DF92EF92FF9251
:1007E0000F931F93CF936B017C01742EAC019B017F
:1007F0000E94A212882399F080E491E0CF911F918A
:100800000F91FF90EF90DF90CF90BF90AF909F90AF
:100810008F907F906F905F904F900C949303460160
:100820005701E894B7F82FEF3FEF4FE75FE7C501B7
:10083000B4010E94A21281110DC02FEF3FEF4FE7CC
:100840005FE7C501B4010E94851018161CF484E40A
:1008500091E0D4CF2FEF3FEF4FE75FE4C701B60140
:100860000E94281218161CF488E491E0C7CF2FEFDD
:100870003FEF4FE75FECC701B6010E94851087FD8F
:10088000F3CF20E030E0A901C701B6010E94851036
:1008900010E000E087FF0AC06DE289E791E00E9466
:1008A0002C028C01F7FAF094F7F8F094C0E060E0C5
:1008B00070E080E09FE37C1641F020E030E040E211
:1008C00051E40E948F10CF5FF6CFA70196010E94DE
:1008D00019102B013C010E9408114B015C014AE0F8
:1008E0000E94A0037C01E00EF11ECC23C1F1C501E2
:1008F000B4010E9437119B01AC01C301B2010E94F7
:1009000018104B015C016EE289E791E00E942C0215
:10091000E80EF91EC15018F120E030E040E251E449
:10092000C501B4010E942D122B013C010E94081147
:100930004B01B12CA12C4AE0C501B4010E94A003D7
:10094000E80EF91EC501B4010E9437119B01AC01EC
:10095000C301B2010E9418104B015C01DBCFC7013B
:10096000CF911F910F91FF90EF90DF90CF90BF90AC
:10097000AF909F908F907F906F905F904F90089571
:100980003F924F925F926F927F928F929F92AF921F
:10099000BF92CF92DF92EF92FF920F931F93CF936C
:1009A000DF933C012B01DC010D911C91063EBFEF52
:1009B0001B0709F1FC01E280F380E114F104D9F096
:1009C000D8015E968C915E97982F9F7791F48078EE
:1009D00080625E968C935E978FEF5A968C935A97AF
:1009E0005B968C935801B5E1AB0EB11CF801628D9A
:1009F00043C085FDF7CFD301ED91FC9180E03097A6
:100A000019F0828191E08927DF91CF911F910F9199
:100A1000FF90EF90DF90CF90BF90AF909F908F901E
:100A20007F906F905F904F903F9008956D812097D9
:100A300049F1EE81FF81D7010D900020E9F7CD014A
:100A400001978E199F09B0E0A0E0309739F0DF01DF
:100A50000D900020E9F71197AE1BBF0B8A179B077B
:100A600059F4D7019C012E0D3F1D2A173B0799F120
:100A70008D9191918917C9F3C5010E949902EC01EA
:100A8000892BA1F6D8015996DC90BFEFDB16A9F1AE
:100A90006D2DC5010E949902EC018D81F801818FB5
:100AA000209709F4A8C01C828FEF8D831F821E82BD
:100AB000D8015B966C916F3F09F4A1C0C5010E94FB
:100AC0009902FC01D582D8015B96DC928C818F77EC
:100AD0008C83FF82EE82F201C080D180E280F380BD
:100AE000B801CE010E941A038C8180788C608C83BF
:100AF000C882D982EA82FB827ECF4801F5E08F0E60
:100B0000911CD801CD90DC90119757968C91882339
:100B100049F0C4010E94B402C62FD72F209711F0CC
:100B2000D82EC6CFF801C789908DC91325C0C03112
:100B300009F461C0CC0F65897689D601ED91FC91ED
:100B4000B4E0CB9FA00111248616970609F04BC094
:100B50000190F081E02DBA01C6010995009709F4D2
:100B60004AC020E1F401DC0101900D922A95E1F7E1
:100B7000F801968B858BC08FD8015596CD91DC916D
:100B8000569757968C91579721E0280F57962C939C
:100B9000B4E08B9FC0011124C80FD91F90E1392EFA
:100BA000203111F48FE0382EE8E03E9EB001112490
:100BB000D601ED91FC910190F081E02DC6010995DF
:100BC0009B838A83892B09F4312C38821982CD2B9F
:100BD00091F0C4010E94B402C62FD72FD82E2097BF
:100BE00009F066CF08C00480F581E02DC6010995A3
:100BF000009709F0BDCF81E0F8018283FCCEF801B7
:100C0000D28ED38E63CFCB01BA010C941514CB01D5
:100C10000C948C13CB010C94F0121F920F920FB610
:100C20000F9211242F933F938F939F93AF93BF9372
:100C30008091160290911702A0911802B0911902AA
:100C40003091780123E0230F2D3758F50196A11D2F
:100C5000B11D209378018093160290931702A09300
:100C60001802B09319028091740190917501A091BE
:100C70007601B09177010196A11DB11D8093740199
:100C800090937501A0937601B0937701BF91AF91D6
:100C90009F918F913F912F910F900FBE0F901F90BA
:100CA000189526E8230F0296A11DB11DD2CF1F92E1
:100CB0000F920FB60F9211242F933F934F935F9390
:100CC0006F937F938F939F93AF93BF93EF93FF9314
:100CD000E0910201F09103010995FF91EF91BF911D
:100CE000AF919F918F917F916F915F914F913F91C4
:100CF0002F910F900FBE0F901F9018951F920F927B
:100D00000FB60F9211242F933F934F935F936F93DE
:100D10007F938F939F93AF93BF93EF93FF93E09154
:100D20000001F09101010995FF91EF91BF91AF9101
:100D30009F918F917F916F915F914F913F912F91F3
:100D40000F900FBE0F901F9018951F920F920FB625
:100D50000F9211242F933F934F935F936F937F9341
:100D60008F939F93AF93BF93EF93FF9389E791E0A6
:100D70000E940A02FF91EF91BF91AF919F918F91D5
:100D80007F916F915F914F913F912F910F900FBE87
:100D90000F901F9018951F920F920FB60F9211246B
:100DA0002F938F939F93EF93FF93E0918901F0919D
:100DB0008A018081E0918F01F091900182FD1BC03A
:100DC0009081809192018F5F8F73209193018217A0
:100DD00041F0E0919201F0E0E758FE4F958F80934B
:100DE0009201FF91EF919F918F912F910F900FBEE4
:100DF0000F901F9018958081F4CFBF92CF92DF9211
:100E0000EF92FF920F931F93CF93DF93E9E7F1E007
:100E10001382128288EE93E0A0E0B0E08483958391
:100E2000A683B78382E391E09183808385EC90E091
:100E30009587848784EC90E09787868780EC90E0A4
:100E4000918B808B81EC90E0938B828B82EC90E095
:100E5000958B848B86EC90E0978B868B118E128E0F
:100E6000138E148E0CE111E0F8018081CAE1D2E00A
:100E7000282F30E0398328831A821B821C821D822E
:100E800060E00E94FD00F80181818A8760E00E9495
:100E9000FD000AE111E0F8018081282F30E03C8755
:100EA0002B871D861E861F86188A60E00E94FD0023
:100EB000F80181818D8B60E00E94FD008CE3B82EEB
:100EC000BE8A1DAA1EAA1FAA18AE19AE1AAE1BAE64
:100ED0001CAE1092570210925802109259021092B2
:100EE0005A0210925B0210925C0210925D02109204
:100EF0005E0210925F0210926002109261021092E4
:100F00006202C12CD12C90E8E92E9FE3F92EC09209
:100F10006302D0926402E0926502F092660210923F
:100F20006702109268021092690210926A0210928F
:100F30006B0210926C0210926D0210926E0210926F
:100F40006F0210927002109271021092720210924F
:100F5000730210927402109275021092760206E0EB
:100F600011E020E030E040E05FE3F801648175814A
:100F7000868197810E942D12698F7A8F8B8F9C8F2B
:100F8000F80180819181A281B38189AB9AABABAB2F
:100F9000BCABC0927B02D0927C02E0927D02F092C8
:100FA0007E02C0927702D0927802E0927902F092AB
:100FB0007A0284E091E09093800280937F02109205
:100FC0008102109283021092820284E892E0909350
:100FD0009502809394021092960284E08093970287
:100FE0008FEF8093980210929D021092D00210927F
:100FF000D1021092D2021092D3021092D402109217
:10100000D5021092D6021092D7021092E4021092EA
:10101000E5021092E6021092E7021092E8021092A6
:10102000E9021092EA021092EB021092F80210927A
:10103000F9021092FA021092FB021092FC02109236
:10104000FD021092FE021092FF022FB7F8946091F9
:1010500016027091170280911802909119022FBF09
:101060000E9437116093A3027093A4028093A5029B
:101070009093A6026A817B818C819D810E943911A7
:101080000E9401116093B3027093B4028093B50281
:101090009093B6026D857E858F8598890E9439115F
:1010A0000E9401116093B7027093B8028093B90255
:1010B0009093BA022BED3FE049E450E4F8016485D7
:1010C0007585868597850E942D12F80120893189C2
:1010D000428953890E948F106093AF027093B002CF
:1010E0008093B1029093B202B092C3021092EC02CC
:1010F0001092ED021092EE021092EF021092F002A6
:101100001092F1021092F2021092F30280E090E04D
:10111000AEEDB2E480939F029093A002A093A1024F
:10112000B093A20270E060E08A850E942E0170E018
:1011300060E08D89DF91CF911F910F91FF90EF902B
:10114000DF90CF90BF900C942E01CF93DF93CDB75B
:10115000DEB768970FB6F894DEBF0FBECDBF7894A8
:1011600084B5826084BD84B5816084BD85B58260AC
:1011700085BD85B5816085BD80916E00816080935D
:101180006E001092810080918100826080938100C6
:1011900080918100816080938100809180008160D6
:1011A000809380008091B10084608093B100809131
:1011B000B00081608093B00080917A008460809359
:1011C0007A0080917A00826080937A0080917A0020
:1011D000816080937A0080917A00806880937A00A1
:1011E0001092C100E0918901F0918A0182E0808330
:1011F000E0918501F09186011082E0918701F091E4
:1012000088018FEC808310929101E0918D01F09123
:101210008E0186E08083E0918B01F0918C018081CA
:1012200080618083E0918B01F0918C0180818860E6
:101230008083E0918B01F0918C01808180688083B4
:10124000E0918B01F0918C0180818F7D8083809172
:101250001C01823009F480C2833009F07FC281E032
:1012600065E873E00E94970080911A01823009F4CA
:1012700077C2833009F076C281E067E773E00E94AD
:1012800097008FE7282E82E0382E89E791E00E94B0
:10129000EA011816190634F489E791E00E94C801A2
:1012A00080939E0280919E028F3609F05DC220E0FD
:1012B00030E04EED52E420939F023093A002409321
:1012C000A1025093A2022FB7F89460911602709178
:1012D000170280911802909119022FBF0E943711B6
:1012E0006B017C01C092AB02D092AC02E092AD02E5
:1012F000F092AE022091A3023091A4024091A50287
:101300005091A6020E9418106093A7027093A80241
:101310008093A9029093AA02C092A302D092A40241
:10132000E092A502F092A60260911C0270911D024B
:1013300080911E0290911F020E9439116B017C0165
:101340006091B3027091B4028091B5029091B6029F
:101350000E9439119B01AC01C701B6010E9418100F
:101360000E940811062F6091270270912802809137
:10137000290290912A020E9439116B017C0160912F
:10138000B7027091B8028091B9029091BA020E949E
:1013900039119B01AC01C701B6010E9418100E94CF
:1013A0000811162F8090AF029090B002A090B10269
:1013B000B090B202602F70E090E080E00E9439119E
:1013C000A50194010E942D126B017C01C092BB0209
:1013D000D092BC02E092BD02F092BE02612F70E09A
:1013E00090E080E00E943911A50194010E942D1225
:1013F0004B015C018092BF029092C002A092C10298
:10140000B092C20260911C0270911D0280911E0276
:1014100090911F020E9439110E9401116093B30242
:101420007093B4028093B5029093B6026091270244
:10143000709128028091290290912A020E9439110C
:101440000E9401116093B7027093B8028093B902B1
:101450009093BA02A5019401C701B6010E948510BC
:1014600020916302309164024091650250916602BE
:101470002D833E834F83588787FF89C1C0923F02E7
:10148000D0924002E0924102F092420280924302E6
:1014900090924402A0924502B092460211E08090E0
:1014A000430290904402A0904502B0904602809181
:1014B0003F0290914002A0914102B091420289877F
:1014C0009A87AB87BC879C01AD01C501B4010E941E
:1014D00018106D877E878F87988BC0903302D090CD
:1014E0003402E0903502F0903602A7019601C70160
:1014F000B6010E9419109B01AC016D857E858F8518
:1015000098890E948F102B013C0140923B0250921F
:101510003C0260923D0270923E0229853A854B85DD
:101520005C85C501B4010E941910A70196010E94B3
:101530002D122D853E854F8558890E948F104B01B5
:101540005C018092370290923802A0923902B092E8
:101550003A0220915F023091600240916102509105
:10156000620229873A874B875C8750582D873E87D0
:101570004F87588B8D819E81AF81B88580934F02B4
:1015800090935002A0935102B093520220935302C1
:1015900030935402409355025093560229853A8560
:1015A0004B855C8520935702309358024093590233
:1015B00050935A0280935B0290935C02A0935D0269
:1015C000B0935E02C301B2010E949A126B017C01CA
:1015D000A50194010E942D12698B7A8B8B8B9C8BB9
:1015E000C301B2010E948A102B013C01112309F4AE
:1015F000F4C220E030E040E85FE30E941810A5014B
:1016000094010E942D126093670270936802809388
:10161000690290936A02F7FAF094F7F8F094C09296
:101620005F02D0926002E0926102F0926202C0908A
:101630006702D0906802E0906902F0906A02A70108
:1016400096016D817E818F8198850E942D124B01BC
:101650005C0129853A854B855C8569897A898B8906
:101660009C890E942D129B01AC01C501B4010E940E
:1016700019106093670270936802809369029093D7
:101680006A02A70196016D857E858F8598890E94E3
:101690002D126B017C012D813E814F815885698916
:1016A0007A898B899C890E942D129B01AC01C7010C
:1016B000B6010E94191060936B0270936C028093C4
:1016C0006D0290936E02C0905F02D0906002E09035
:1016D0006102F0906202A70196016D817E818F8187
:1016E00098850E942D124B015C0129853A854B8516
:1016F0005C85C301B2010E942D129B01AC01C501A2
:10170000B4010E94191060935F027093600280938D
:10171000610290936202A70196016D857E858F8597
:1017200098890E942D126B017C012D813E814F8191
:101730005885C301B2010E942D129B01AC01C70163
:10174000B6010E9419106093630270936402809343
:1017500065029093660259C080E082CD8FEF80CD04
:1017600080E08BCD8FEF89CD6AE00E94D60F682F85
:10177000880F770B880B990B0E94391160939F0299
:101780007093A0028093A1029093A2029CCDA50128
:101790009401C701B6010E942812181694F4809291
:1017A0003F0290924002A0924102B0924202C09247
:1017B0004302D0924402E0924502F092460210E0C9
:1017C0006ECEA701960160915F02709160028091D8
:1017D0006102909162020E942D12609367027093E1
:1017E00068028093690290936A022D813E814F8145
:1017F0005885C701B6010E942D1260936B02709349
:101800006C0280936D0290936E02C0909F02D09004
:10181000A002E090A102F090A20220E030E04EEDA4
:1018200052E4C701B6010E9485108111EBC180E02E
:1018300090E0AEEDB2E480936F0290937002A093BB
:101840007102B09372028093730290937402A0931A
:101850007502B0937602C0906B02D0906C02E0905B
:101860006D02F0906E022091D0023091D102409131
:10187000D2025091D3026091670270916802809108
:10188000690290916A020E9419102B013C0140925A
:10189000D0025092D1026092D2027092D302209173
:1018A000D4023091D5024091D6025091D702C7019F
:1018B000B6010E9419106D837E838F839887609391
:1018C000D4027093D5028093D6029093D7024092AF
:1018D000C4025092C5026092C6027092C7029B0178
:1018E000AC012093C8023093C9024093CA025093BE
:1018F000CB0288E0EFE6F2E0A8EFB2E001900D92B3
:101900008A95E1F7C090F802D090F902E090FA02CF
:10191000F090FB0220E030E04EED52E4C701B6014A
:101920000E9485108823B1F1A3019201C701B6017D
:101930000E9419106B017C01C092F802D092F9024A
:10194000E092FA02F092FB022091FC023091FD023B
:101950004091FE025091FF026D817E818F819885BA
:101960000E9419106093FC027093FD028093FE02A6
:101970009093FF02C092EC02D092ED02E092EE0250
:10198000F092EF026093F0027093F1028093F20202
:101990009093F30288E0EFE5F2E0A4EEB2E001906C
:1019A0000D928A95E1F78091E4029091E502A09171
:1019B000E602B091E7028093D8029093D902A093F7
:1019C000DA02B093DB028091E8029091E902A091E3
:1019D000EA02B091EB028093DC029093DD02A093C7
:1019E000DE02B093DF02C090FC02D090FD02E090D6
:1019F000FE02F090FF028091F8029091F902A0910E
:101A0000FA02B091FB0289879A87AB87BC872D8148
:101A10003E814F815885C701B6010E941810209160
:101A20005F023091600240916102509162020E9417
:101A30002D126D877E878F87988B2091630230915E
:101A400064024091650250916602298B3A8B4B8B60
:101A50005C8BA301920169857A858B859C850E94A8
:101A6000181029893A894B895C890E942D129B01A3
:101A7000AC016D857E858F8598890E9418104B0179
:101A80005C0120E030E0A9010E94281201E010E092
:101A900018160CF414C120E030E0A901C501B4010E
:101AA0000E94851087FD09C180E090E0A0E8BFE3B7
:101AB0008093770290937802A0937902B0937A0290
:101AC00080937B0290937C02A0937D02B0937E0270
:101AD0006091C30270E090E080E00E943911209193
:101AE0007702309178024091790250917A020E94F7
:101AF0002D120E94081170E0809124020E942E0194
:101B00006091C30270E090E080E00E943911209162
:101B10007B0230917C0240917D0250917E020E94B6
:101B20002D120E94081170E080912F020E942E0158
:101B30003A82298243E551E05C834B8364EC72E096
:101B4000CE0101960E94C0043A82298288E591E084
:101B50009C838B8368EC72E0CE0101960E94C004E6
:101B60003A822982ADE5B1E0BC83AB8368ED72E0D7
:101B7000CE0101960E94C0043A82298222E631E019
:101B80003C832B836CED72E0CE0101960E94C00471
:101B90003A82298247E651E05C834B836CEE72E027
:101BA000CE0101960E94C0043A8229828DE691E01E
:101BB0009C838B8360EF72E0CE0101960E94C0048B
:101BC000A0E0B0E0AB2B09F460CB0E94F6018823C3
:101BD00009F45BCB0E94000058CBAC019B0160E094
:101BE00070E080E89FE30E941810A50194010E9414
:101BF0002D1260936702709368028093690290933C
:101C00006A020DCD80904B0290904C02A0904D0244
:101C1000B0904E02209153023091540240915502EF
:101C200050915602C701B6010E942D122B013C01B2
:101C300020915B0230915C0240915D0250915E0206
:101C4000C501B4010E942D129B01AC01C301B20178
:101C50000E9419102B013C0120914F02309150023B
:101C60004091510250915202C701B6010E942D12BB
:101C70006B017C012091570230915802409159022A
:101C800050915A02C501B4010E942D129B01AC0172
:101C9000C701B6010E94191060936F027093700221
:101CA0008093710290937202409273025092740278
:101CB0006092750270927602CECD0FEF1FEFA301F6
:101CC0009201C301B2010E942D124B015C012D81D2
:101CD0003E814F815885CA01B9010E942D129B0196
:101CE000AC01C501B4010E9419104B015C012985AA
:101CF0003A854B855C85CA01B9010E942D129B0172
:101D0000AC01C501B4010E9419104B015C01A7018F
:101D10009601C701B6010E942D129B01AC01C501BD
:101D2000B4010E9419104B015C01A3019201698565
:101D30007A858B859C850E942D126D8B7E8B8F8B77
:101D4000988F2D813E814F815885C701B6010E9431
:101D50002D129B01AC016D897E898F89988D0E941F
:101D600019109B01AC010E9419109B01AC01C50127
:101D7000B4010E9418106B017C01B801012E000C07
:101D8000880B990B0E9439119B01AC01C701B60168
:101D90000E942D126B017C0129853A854B855C855B
:101DA000C301B2010E94181029893A894B895C89C4
:101DB0000E942D122D853E854F8558890E9419104D
:101DC0009B01AC010E9419109B01AC01C701B60137
:101DD0000E948F106B017C010130110509F051C088
:101DE00020E030E040E051E40E9418109B01AC017B
:101DF0000E9419104B015C0120E030E040E051E40A
:101E0000C701B6010E9419109B01AC01C501B401C4
:101E10000E948F106093770270937802809379020A
:101E200090937A0280E090E0A0E8BFE380937B0289
:101E300090937C02A0937D02B0937E026091770222
:101E4000709178028091790290917A0242E00E942A
:101E5000E4038CE491E00E94930360917B02709113
:101E60007C0280917D0290917E0242E00E94E40318
:101E70008CE491E00E94930380E591E00E9493033B
:101E800027CE0F3F1F4FD1F680E090E0A0E8BFE3E0
:101E90008093770290937802A0937902B0937A02AC
:101EA00020E030E040E051E4C701B6010E94181084
:101EB0009B01AC010E9419104B015C0120E030E055
:101EC00040E051E4C701B6010E9419109B01AC012A
:101ED000C501B4010E948F1060937B0270937C0255
:101EE00080937D0290937E02A9CFFF920F931F9360
:101EF000CF93DF93C0917F02D091800260918202E4
:101F0000709183026115710579F0DB018D919C91CF
:101F10009093830280938202E881F9810280F381A9
:101F2000E02DCE010995EACF00917F021091800249
:101F3000F12C609194027091950280919602F816AE
:101F4000C8F4B4E0FB9EE0011124C60FD71F6A81DC
:101F50007B816115710541F0D801ED91FC91028002
:101F6000F381E02DC80109951B821A82188219821B
:101F7000F394DFCF109296028FEF80939802B2E035
:101F800064387B0769F0D801ED91FC910280F38100
:101F9000E02DC801DF91CF911F910F91FF9009941F
:101FA000DF91CF911F910F91FF90089587FB082E2D
:101FB000062687FD819567FD61950E9406100EF447
:101FC000919507FC81950895A1E21A2EAA1BBB1BCF
:101FD000FD010DC0AA1FBB1FEE1FFF1FA217B307F5
:101FE000E407F50720F0A21BB30BE40BF50B661F0B
:101FF000771F881F991F1A9469F7609570958095CF
:1020000090959B01AC01BD01CF010895991B79E02A
:1020100004C0991F961708F0961B881F7A95C9F778
:1020200080950895EE0FFF1F0590F491E02D09941F
:102030005058BB27AA270E9430100C94DA110E9436
:10204000A11138F00E94A81120F039F49F3F19F433
:1020500026F40C949E110EF4E095E7FB0C94981175
:10206000E92F0E94FF1158F3BA176207730784071C
:10207000950720F079F4A6F50C9421120EF4E09562
:102080000B2EBA2FA02D0B01B90190010C01CA0132
:10209000A0011124FF27591B99F0593F50F4503EDD
:1020A00068F11A16F040A22F232F342F4427585FCF
:1020B000F3CF469537952795A795F0405395C9F7E7
:1020C0007EF41F16BA0B620B730B840BBAF091509F
:1020D000A1F0FF0FBB1F661F771F881FC2F70EC03E
:1020E000BA0F621F731F841F48F487957795679511
:1020F000B795F7959E3F08F0B0CF9395880F08F0FD
:102100009927EE0F9795879508950E94741108F40A
:1021100081E008950E94B111E3950C94EB110E94A7
:10212000A3100C94DA110E94A81158F00E94A1117A
:1021300040F029F45F3F29F00C94981151110C9450
:1021400022120C949E110E94FF1168F39923B1F39F
:10215000552391F3951B550BBB27AA2762177307CD
:10216000840738F09F5F5F4F220F331F441FAA1F61
:10217000A9F335D00E2E3AF0E0E832D0915050401D
:10218000E695001CCAF72BD0FE2F29D0660F771FCB
:10219000881FBB1F261737074807AB07B0E809F0B1
:1021A000BB0B802DBF01FF2793585F4F3AF09E3F36
:1021B000510578F00C9498110C9422125F3FE4F3CF
:1021C000983ED4F3869577956795B795F7959F5F79
:1021D000C9F7880F911D9695879597F90895E1E0C5
:1021E000660F771F881FBB1F621773078407BA0724
:1021F00020F0621B730B840BBA0BEE1F88F7E0957F
:1022000008950E9408116894B1110C942212089547
:102210000E94071288F09F5798F0B92F9927B7515D
:10222000B0F0E1F0660F771F881F991F1AF0BA957A
:10223000C9F714C0B13091F00E942112B1E00895A5
:102240000C942112672F782F8827B85F39F0B93F97
:10225000CCF3869577956795B395D9F73EF490952D
:102260008095709561957F4F8F4F9F4F0895E894AB
:1022700009C097FB3EF490958095709561957F4FCE
:102280008F4F9F4F9923A9F0F92F96E9BB2793957C
:10229000F695879577956795B795F111F8CFFAF48C
:1022A000BB0F11F460FF1BC06F5F7F4F8F4F9F4FBD
:1022B00016C0882311F096E911C0772321F09EE81B
:1022C000872F762F05C0662371F096E8862F70E081
:1022D00060E02AF09A95660F771F881FDAF7880F5B
:1022E0009695879597F90895990F0008550FAA0BB1
:1022F000E0E8FEEF16161706E807F907C0F0121619
:102300001306E407F50798F0621B730B840B950B1B
:1023100039F40A2661F0232B242B252B21F4089570
:102320000A2609F4A140A6958FEF811D811D08950D
:1023300097F99F6780E870E060E008959FEF80EC78
:10234000089500240A94161617061806090608951B
:1023500000240A94121613061406050608950C9418
:102360009E110E940712D8F3E894E0E0BB279F5724
:10237000F0F02AED3FE049EC06C0EE0FBB0F661F00
:10238000771F881F28F0B23A62077307840728F086
:10239000B25A620B730B840BE3959A9572F78038EF
:1023A00030F49A95BB0F661F771F881FD2F79048AD
:1023B0000C94A912092E0394000C11F4882352F0F6
:1023C000BB0F40F4BF2B11F460FF04C06F5F7F4F61
:1023D0008F4F9F4F0895EF93E0FF07C0A2EA2AEDC9
:1023E0003FE049EC5FEB0E9430100E94DA110F9041
:1023F000039401FC9058E8E6F0E00C94B51257FD08
:102400009058440F551F59F05F3F71F04795880F62
:1024100097FB991F61F09F3F79F0879508951216F9
:1024200013061406551FF2CF4695F1DF08C01616A5
:1024300017061806991FF1CF869571056105089456
:102440000895E894BB2766277727CB0197F908956D
:102450000E94741108F48FEF08950E9440120C94AA
:10246000DA110E94A11138F00E94A81120F09523E2
:1024700011F00C9498110C949E1111240C942212BA
:102480000E94FF1170F3959FC1F3950F50E0551F07
:10249000629FF001729FBB27F00DB11D639FAA27B9
:1024A000F00DB11DAA1F649F6627B00DA11D661F08
:1024B000829F2227B00DA11D621F739FB00DA11D29
:1024C000621F839FA00D611D221F749F3327A00DE3
:1024D000611D231F849F600D211D822F762F6A2F7F
:1024E00011249F5750409AF0F1F088234AF0EE0FE4
:1024F000FF1FBB1F661F771F881F91505040A9F711
:102500009E3F510580F00C9498110C9422125F3F6D
:10251000E4F3983ED4F3869577956795B795F7954C
:10252000E7959F5FC1F7FE2B880F911D96958795C4
:1025300097F908959F930E94B1110F9007FCEE5FE9
:102540000C94EB110E947411880B990B08959F3F16
:1025500031F0915020F4879577956795B795880F5E
:10256000911D9695879597F908959F938F937F93E3
:102570006F93FF93EF939B01AC010E942D12EF919B
:10258000FF910E94C9122F913F914F915F910C943E
:102590002D12DF93CF931F930F93FF92EF92DF9251
:1025A0007B018C01689406C0DA2EEF010E94401274
:1025B000FE01E894A5912591359145915591A6F399
:1025C000EF010E943010FE019701A801DA9469F72B
:1025D000DF90EF90FF900F911F91CF91DF910895C1
:1025E0000F931F93CF93DF938230910510F482E015
:1025F00090E0E0910203F091030330E020E0B0E0CE
:10260000A0E0309799F42115310509F44AC0281B40
:10261000390B24303105D8F58A819B81611571050C
:1026200089F1FB0193838283FE0111C040815181B6
:102630000281138148175907E0F04817590799F4A8
:10264000109761F012960C93129713961C93329682
:10265000CF01DF91CF911F910F9108950093020355
:1026600010930303F4CF2115310551F0421753079E
:1026700038F0A901DB019A01BD01DF01F801C1CFEA
:10268000EF01F9CF9093030380930203CDCFFE01B6
:10269000E20FF31F819391932250310939832883EC
:1026A000D7CF2091000330910103232B41F42091D7
:1026B00020013091210130930103209300032091E8
:1026C0001E0130911F012115310541F42DB73EB790
:1026D0004091220150912301241B350BE09100030E
:1026E000F0910103E217F307A0F42E1B3F0B28170C
:1026F000390778F0AC014E5F5F4F2417350748F07B
:102700004E0F5F1F509301034093000381939193F9
:102710009FCFF0E0E0E09CCFCF93DF930097E9F00C
:10272000FC01329713821282A0910203B09103033D
:10273000ED0130E020E01097A1F420813181820F7B
:10274000931F20910003309101032817390709F0E6
:1027500061C0F0930103E0930003DF91CF910895EE
:10276000EA01CE17DF07E8F54A815B819E0141153A
:102770005105B1F7E901FB83EA8349915991C40FEF
:10278000D51FEC17FD0761F4808191810296840FBB
:10279000951FE90199838883828193819B838A8332
:1027A000F0E0E0E012968D919C9113970097B9F5B7
:1027B0002D913C911197CD010296820F931F20918C
:1027C0000003309101032817390739F6309751F586
:1027D0001092030310920203B0930103A09300032D
:1027E000BCCFD383C28340815181840F951FC8170A
:1027F000D90761F44E5F5F4F88819981480F591F57
:10280000518340838A819B81938382832115310583
:1028100009F0B0CFF0930303E09302039ECFFD01D4
:10282000DC01C0CF13821282D7CFB0E0A0E0EBE191
:10283000F4E10C94DD148C01009751F4CB010E945B
:10284000F0128C01C801CDB7DEB7E0E10C94F914A9
:10285000FC01E60FF71F9C0122503109E217F30734
:1028600008F49DC0D901CD91DC911197C617D70707
:1028700098F0C530D10530F3CE010497861797073D
:1028800008F3C61BD70B2297C193D1936D937C930A
:10289000CF010E948C13D6CF5B01AC1ABD0A4C014C
:1028A0008C0E9D1EA0910203B0910303512C412C6C
:1028B000F12CE12C109731F58091000390910103E8
:1028C0008815990509F05CC04616570608F058C0EF
:1028D00080911E0190911F01009741F48DB79EB722
:1028E0004091220150912301841B950BE817F907B1
:1028F00008F055C0F0930103E0930003F9017183E0
:102900006083A0CF8D919C91119712966C90129735
:1029100013967C901397A815B90559F56C0142E000
:10292000C40ED11CCA14DB0420F1AC014A195B09A6
:10293000DA011296159780F0628273825183408388
:10294000D9016D937C93E114F10471F0D7011396D2
:10295000FC93EE93129776CF22968C0F9D1FF90170
:1029600091838083F301EFCFF0930303E09302039D
:1029700069CF4816590608F42C017D01D3019ACF7E
:10298000CB010E94F0127C01009749F0AE01B80122
:102990000E94D214C8010E948C13870153CF10E00B
:1029A00000E050CFFB01DC0102C001900D924150CC
:1029B0005040D8F708952F923F924F925F926F92B6
:1029C0007F928F929F92AF92BF92CF92DF92EF92BF
:1029D000FF920F931F93CF93DF93CDB7DEB7CA1B40
:1029E000DB0B0FB6F894DEBF0FBECDBF09942A886B
:1029F000398848885F846E847D848C849B84AA8413
:102A0000B984C884DF80EE80FD800C811B81AA819F
:102A1000B981CE0FD11D0FB6F894DEBF0FBECDBF6A
:102A2000ED01089510E0CCE6D0E004C0FE010E9464
:0E2A300012102196CD36D107C9F7F894FFCFCA
:102A3E008B018B0128010000404100008041000005
:102A4E000000000000400000E8410209030A0000F7
:102A5E0004038000000000000A06070603060000BB
:102A6E0000002C028C01B9017902EA01C801DC01D7
:102A7E006E616E00696E66006F766600207C2000C7
:102A8E000D0A0063617258006361725900646972C5
:102A9E00580064697259006C696E6558006C696EF5
:042AAE006559000066
:00000001FF
