:100000000C946C000C94F2020C94CB020C949400AF
:100010000C9494000C9494000C9494000C94940010
:100020000C9494000C9494000C9494000C94940000
:100030000C9494000C9494000C9494000C949400F0
:100040000C9481020C9494000C943F030C941903BB
:100050000C9494000C9494000C9494000C949400D0
:100060000C9494000C94940005A84CCDB2D44EB9D5
:100070003836A9020C50B9918688083CA6AAAA2A4B
:10008000BE000000803F00000000240027002A007E
:1000900000000000250028002B00040404040404D0
:1000A0000404020202020202030303030303010227
:1000B00004081020408001020408102001020408F6
:1000C00010200000000800020100000304070000E7
:1000D0000000000000001A0411241FBECFEFD8E07A
:1000E000DEBFCDBF11E0A0E0B1E0E6E2FAE102C080
:1000F00005900D92AE33B107D9F722E0AEE3B1E03F
:1001000001C01D92A238B207E1F710E0CCE6D0E0C2
:1001100004C02197FE010E94330ACB36D107C9F7EC
:100120000E941A050C94110D0C9400008230B8F452
:10013000E82FF0E0EE0FFF1FE050FF4F7183608368
:10014000813039F080916900836080936900E89A7A
:100150000895809169008C6080936900E99A089500
:10016000CF93DF9390E0FC01E255FF4F2491865638
:100170009F4FFC0184918823D1F090E0880F991F54
:10018000FC01EA57FF4FA591B491FC01E057FF4FE6
:10019000C591D49161110EC09FB7F8948C91E22F54
:1001A000E0958E238C932881E223E8839FBFDF9123
:1001B000CF9108958FB7F894EC91E22BEC938FBF19
:1001C000F6CF3FB7F89480913F0190914001A09104
:1001D0004101B091420126B5A89B05C02F3F19F0FF
:1001E0000196A11DB11D3FBFBA2FA92F982F8827B7
:1001F000BC01CD01620F711D811D911D42E0660F92
:10020000771F881F991F4A95D1F708950895AF92D7
:10021000BF92CF92DF92EF92FF920F931F93CF93F3
:10022000DF936C017B018B01040F151FEB015E0155
:10023000AE18BF08C017D10759F06991D601ED91EA
:10024000FC910190F081E02DC6010995892B79F789
:10025000C501DF91CF911F910F91FF90EF90DF903B
:10026000CF90BF90AF900895FC01538D448D252F02
:1002700030E0842F90E0821B930B541710F0CF9640
:10028000089501970895FC01918D828D981761F072
:10029000A28DAE0FBF2FB11D5D968C91928D9F5F89
:1002A0009F73928F90E008958FEF9FEF0895FC0168
:1002B000918D828D981731F0828DE80FF11D858D1B
:1002C00090E008958FEF9FEF0895FC01918D228DAE
:1002D000892F90E0805C9F4F821B91098F73992733
:1002E000089583E491E00E94650121E0892B09F4DF
:1002F00020E0822F089580E090E0892B29F00E9471
:10030000710181110C9400000895FC01A48DA80FC7
:10031000B92FB11DA35ABF4F2C91848D90E0019647
:100320008F739927848FA689B7892C93A089B18967
:100330008C91837080648C93938D848D981306C008
:100340000288F389E02D80818F7D80830895EF926C
:10035000FF920F931F93CF93DF93EC0181E0888F7F
:100360009B8D8C8D98131AC0E889F989808185FF4F
:1003700015C09FB7F894EE89FF896083E889F989F1
:1003800080818370806480839FBF81E090E0DF91F3
:10039000CF911F910F91FF90EF900895F62E0B8D46
:1003A00010E00F5F1F4F0F731127E02E8C8D8E1101
:1003B0000CC00FB607FCFACFE889F989808185FF68
:1003C000F5CFCE010E948501F1CFEB8DEC0FFD2F13
:1003D000F11DE35AFF4FF0829FB7F8940B8FEA8923
:1003E000FB8980818062CFCFCF93DF93EC01888D32
:1003F0008823B9F0AA89BB89E889F9898C9185FDA0
:1004000003C0808186FD0DC00FB607FCF7CF8C912D
:1004100085FFF2CF808185FFEDCFCE010E9485015F
:10042000E9CFDF91CF910895E4EEF1E085859685DF
:10043000A785B0890196A11DB11D85879687A787DD
:10044000B08B0895E4EEF1E082819381A481B581BF
:100450000196A11DB11D82839383A483B583089562
:10046000FC0101900020E9F73197AF01481B590BBF
:10047000BC0183E491E00C9407018F929F92AF92AC
:10048000BF920F931F93CF93DF93CDB7DEB7A197A2
:100490000FB6F894DEBF0FBECDBF19A2423008F4EC
:1004A0004AE08E010F5D1F4F842E912CB12CA12CA0
:1004B000A50194010E94110AE62FB901CA01EA3090
:1004C000F4F4E05DD801EE938D01232B242B252B32
:1004D00079F790E080E0109719F0CD010E9430028A
:1004E000A1960FB6F894DEBF0FBECDBFDF91CF91BE
:1004F0001F910F91BF90AF909F908F900895E95CEE
:10050000E1CF1F920F920FB60F9211242F933F93BA
:100510008F939F93AF93BF938091E0019091E101FE
:10052000A091E201B091E30130913E0123E0230F5D
:100530002D3758F50196A11DB11D20933E018093E2
:10054000E0019093E101A093E201B093E301809177
:100550003F0190914001A0914101B091420101966B
:10056000A11DB11D80933F0190934001A0934101D3
:10057000B0934201BF91AF919F918F913F912F9185
:100580000F900FBE0F901F90189526E8230F02962C
:10059000A11DB11DD2CF1F920F920FB60F92112441
:1005A0002F933F934F935F936F937F938F939F937B
:1005B000AF93BF93EF93FF93E0910201F09103019A
:1005C0000995FF91EF91BF91AF919F918F917F918D
:1005D0006F915F914F913F912F910F900FBE0F90B0
:1005E0001F9018951F920F920FB60F9211242F9300
:1005F0003F934F935F936F937F938F939F93AF93AB
:10060000BF93EF93FF93E0910001F09101010995F1
:10061000FF91EF91BF91AF919F918F917F916F91DA
:100620005F914F913F912F910F900FBE0F901F90B0
:1006300018951F920F920FB60F9211242F933F938C
:100640004F935F936F937F938F939F93AF93BF93DA
:10065000EF93FF9383E491E00E948501FF91EF9176
:10066000BF91AF919F918F917F916F915F914F91CA
:100670003F912F910F900FBE0F901F9018951F92D2
:100680000F920FB60F9211242F938F939F93EF9396
:10069000FF93E0915301F09154018081E091590161
:1006A000F0915A0182FD1BC0908180915C018F5FA7
:1006B0008F7320915D01821741F0E0915C01F0E0C1
:1006C000ED5BFE4F958F80935C01FF91EF919F91C1
:1006D0008F912F910F900FBE0F901F9018958081D2
:1006E000F4CF90E0FC01EE53FF4F2491FC01E25562
:1006F000FF4F3491FC01E656FF4FE491EE23C9F021
:10070000222339F0233001F1A8F4213019F12230ED
:1007100029F1F0E0EE0FFF1FE057FF4FA591B491D4
:100720008FB7F894EC91611126C030953E233C932D
:100730008FBF08952730A9F02830C9F0243049F739
:10074000809180008F7D03C0809180008F7780939F
:100750008000DFCF84B58F7784BDDBCF84B58F7DFC
:10076000FBCF8091B0008F778093B000D2CF809183
:10077000B0008F7DF9CF3E2BDACF1F93CF93DF935D
:10078000182FEB0161E00E94B000209739F460E07F
:10079000812FDF91CF911F910C947103CF3FD10531
:1007A00011F461E0F5CFE12FF0E0EE53FF4FE4915B
:1007B000E33031F140F4E130B1F0E230E1F0C03843
:1007C000D1057CF7E4CFE73029F1E83059F1E43086
:1007D000B1F780918000806280938000D0938B007D
:1007E000C0938A0004C084B5806884BDC7BDDF9112
:1007F000CF911F91089584B5806284BDC8BDF7CFA5
:1008000080918000806880938000D0938900C0939D
:100810008800EDCF8091B00080688093B000C093D5
:10082000B300E5CF8091B00080628093B000C093A8
:10083000B400DDCF0F931F93CF93DF93E3E4F1E098
:100840001382128288EE93E0A0E0B0E08483958367
:10085000A683B78380E291E09183808385EC90E06A
:100860009587848784EC90E09787868780EC90E07A
:10087000918B808B81EC90E0938B828B82EC90E06B
:10088000958B848B86EC90E0978B868B118E128EE5
:10089000138E148E0AE111E0F8018081C4EED1E0DC
:1008A000282F30E0398328831A821B821C821D8204
:1008B00060E00E94B000F80181818A8760E00E94B8
:1008C000B00008E111E0F8018081282F30E03C877A
:1008D0002B871D861E861F86188A60E00E94B00046
:1008E000F80181818D8B60E00E94B00084E68E8BE0
:1008F0001DA61EA61FA618AA80E090E0A0E8BFE3F0
:1009000089AB9AABABABBCAB1DAA1EAA1FAA18AE93
:1009100019AE1AAE1BAE1CAE04E011E020E030E0D0
:1009200040E05FE3F80164817581868197810E94D0
:100930004E0C698F7A8F8B8F9C8F1092660210926B
:100940006702109268021092690210926A02109275
:100950006B0210926C0210926D0210927A02109249
:100960007B0210927C0210927D0210927E02109205
:100970007F0210928002109281022FB7F89460914A
:10098000E0017091E1018091E2019091E3012FBFBC
:100990000E94580B60933A0270933B0280933C0292
:1009A00090933D026A817B818C819D810E945A0BCC
:1009B0000E94220B60934A0270934B0280934C0278
:1009C00090934D026D857E858F8598890E945A0B84
:1009D0000E94220B60934E0270934F02809350024C
:1009E000909351022BED3FE049E450E4F801648517
:1009F0007585868597850E944E0CF801208931897E
:100A0000428953890E94B00A60934602709347025C
:100A1000809348029093490270E060E08A850E94CA
:100A2000BD0370E060E08D89DF91CF911F910F9140
:100A30000C94BD03CF93DF93CDB7DEB760970FB6AD
:100A4000F894DEBF0FBECDBF789484B5826084BDBC
:100A500084B5816084BD85B5826085BD85B58160C2
:100A600085BD80916E00816080936E001092810040
:100A700080918100826080938100809181008160FB
:100A800080938100809180008160809380008091BC
:100A9000B10084608093B1008091B0008160809348
:100AA000B00080917A00846080937A0080917A000F
:100AB000826080937A0080917A00816080937A00CE
:100AC00080917A00806880937A001092C100E09152
:100AD0005301F091540182E08083E0914F01F09145
:100AE00050011082E0915101F09152018FEC80830E
:100AF00010925B01E0915701F091580186E08083EC
:100B0000E0915501F0915601808180618083E091F0
:100B10005501F0915601808188608083E0915501F4
:100B2000F0915601808180688083E0915501F091B9
:100B3000560180818F7D808380911A01823009F473
:100B40006FC0833009F06EC081E062E272E00E9403
:100B5000960080911801823009F466C0833009F054
:100B600065C081E064E172E00E94960083E491E058
:100B70000E9465011816190634F483E491E00E947E
:100B80004301809339022FB7F8946091E00170918E
:100B9000E1018091E2019091E3012FBF0E94580B87
:100BA0006B017C01C0924202D0924302E092440267
:100BB000F092450220913A0230913B0240913C0272
:100BC00050913D020E94390A60933E0270933F02A9
:100BD0008093400290934102C0923A02D0923B022D
:100BE000E0923C02F0923D02E0913902E13128F5B9
:100BF000F0E0E150FA4F8091FA010C94330A3F087B
:100C00003D083B0839083708350830082D08180614
:100C1000130817081B081F082308270845084B0856
:100C200080E093CF8FEF91CF80E09CCF8FEF9ACF72
:100C30008093FB0185508093FC016091E6017091E7
:100C4000E7018091E8019091E9010E945A0B6B0144
:100C50007C0160914A0270914B0280914C0290910C
:100C60004D020E945A0B9B01AC01C701B6010E94C4
:100C7000390A0E94290B062F6091F1017091F2014F
:100C80008091F3019091F4010E945A0B6B017C0159
:100C900060914E0270914F028091500290915102EA
:100CA0000E945A0B9B01AC01C701B6010E94390A90
:100CB0000E94290B162F8090460290904702A09028
:100CC0004802B0904902602F70E090E080E00E94FE
:100CD0005A0BA50194010E944E0C6B017C01C0923D
:100CE0005202D0925302E0925402F0925502612FC8
:100CF00070E090E080E00E945A0BA50194010E94F0
:100D00004E0C4B015C018092560290925702A092C9
:100D10005802B09259026091E6017091E70180910A
:100D2000E8019091E9010E945A0B0E94220B609306
:100D30004A0270934B0280934C0290934D02609153
:100D4000F1017091F2018091F3019091F4010E9400
:100D50005A0B0E94220B60934E0270934F028093B5
:100D60005002909351028091150290911602A09129
:100D70001702B091180289839A83AB83BC83809158
:100D8000110290911202A0911302B09114028D876A
:100D90009E87AF87B88BA5019401C701B6010E9459
:100DA000A60A87FF7EC1C0920902D0920A02E09291
:100DB0000B02F0920C0280920D0290920E02A09211
:100DC0000F02B092100211E080910D0290910E027C
:100DD000A0910F02B09110028D839E83AF83B887DC
:100DE0004090090250900A0260900B0270900C0231
:100DF000A3019201BC01CD010E94390A69877A875B
:100E00008B879C878090FD019090FE01A090FF0150
:100E1000B0900002A5019401C501B4010E943A0AF4
:100E20009B01AC0169857A858B859C850E94B00AFF
:100E30006B017C01C0920502D0920602E09207028B
:100E4000F0920802A30192016D817E818F819885C5
:100E50000E943A0AA50194010E944E0C29853A8508
:100E60004B855C850E94B00A4B015C0180920102B7
:100E700090920202A0920302B09204028D859E8598
:100E8000AF85B889B0588D839E83AF83B887C7017B
:100E9000B6010E94BB0C2B013C01AC019B01C501BA
:100EA000B4010E944E0C69877A878B879C87C701A3
:100EB000B6010E94AB0A6B017C01112309F40AC23E
:100EC00020E030E040E85FE30E94390AA501940188
:100ED0000E944E0C6093190270931A0280931B02B9
:100EE00090931C0277FA709477F8709440921102F4
:100EF00050921202609213027092140280901902B2
:100F000090901A02A0901B02B0901C0229813A8195
:100F10004B815C81C501B4010E944E0C2B013C0148
:100F200029853A854B855C856D857E858F85988979
:100F30000E944E0C9B01AC01C301B2010E943A0A0F
:100F40006093190270931A0280931B0290931C0203
:100F5000A50194016D817E818F8198850E944E0C40
:100F60004B015C0129813A814B815C8169857A85DD
:100F70008B859C850E944E0C9B01AC01C501B40180
:100F80000E943A0A60931D0270931E0280931F0212
:100F9000909320028090110290901202A090130270
:100FA000B090140229813A814B815C81C501B40162
:100FB0000E944E0C2B013C01A70196016D857E8598
:100FC0008F8598890E944E0C9B01AC01C301B20130
:100FD0000E943A0A609311027093120280931302E6
:100FE00090931402A50194016D817E818F81988573
:100FF0000E944E0C4B015C01A701960169817A8128
:101000008B819C810E944E0C9B01AC01C501B401F7
:101010000E943A0A60931502709316028093170299
:101020009093180278C08093FB018A5004CE80937D
:10103000FB01895100CE8093FB018852FCCD809347
:10104000FB018753F8CD8093FB018154F4CD95E0EB
:10105000980F9093FB018055EECD8093FB01EBCD73
:101060009BEF980F9093FB01E6CD96EFFACF97EEAA
:10107000F8CF98EDF6CF99ECF4CF9FEBF2CF90EB51
:10108000980F9093FB018B5FD6CD98E8980F9093C3
:10109000FB01865FD0CD9AE0980F9093FB018857B3
:1010A000CACDA5019401C701B6010E94490C1816CA
:1010B00094F48092090290920A02A0920B02B092DC
:1010C0000C02C0920D02D0920E02E0920F02F0923A
:1010D000100210E079CEA70196016D857E858F857F
:1010E00098890E944E0C6093190270931A028093A3
:1010F0001B0290931C0229813A814B815C81C701BC
:10110000B6010E944E0C60931D0270931E028093E4
:101110001F029093200280901D0290901E02A090CA
:101120001F02B09020022091190230911A024091C2
:101130001B0250911C0260916602709167028091BF
:101140006802909169020E943A0A6B017C01C09288
:101150006602D0926702E0926802F09269022091E2
:101160006A0230916B0240916C0250916D02C50190
:10117000B4010E943A0A60936A0270936B028093F2
:101180006C0290936D02C0925A02D0925B02E09280
:101190005C02F0925D0260935E0270935F02809346
:1011A00060029093610228E0E1E1F2E0AAE7B2E098
:1011B00001900D922A95E1F780907A0290907B023F
:1011C000A0907C02B0907D0280926E0290926F029D
:1011D000A0927002B092710200917E0210917F0283
:1011E0002091800230918102009372021093730269
:1011F0002093740230937502C0922102D092220291
:10120000E0922302F092240260932502709326025A
:1012100080932702909328028092290290922A02BA
:10122000A0922B02B0922C0200932D0210932E025A
:1012300020932F023093300201E212E0D801CD90CA
:10124000DD90ED90FD908D01A7019601C701B601DB
:101250000E94C30C882309F452C08EE291E00E94E0
:1012600030028AE391E00E943002B2E009331B07AA
:1012700029F70E94E1004B015C0184E6C82ED12CC5
:10128000E12CF12C0E94E100681979098A099B0977
:10129000683E734081059105A8F3E1E0CE1AD108BC
:1012A000E108F108F8EE8F0EF3E09F1EA11CB11CBF
:1012B000C114D104E104F10429F780E090E0892B06
:1012C00009F454CC0E947101882309F44FCC0E9488
:1012D00000004CCCAC019B0160E070E080E89FE333
:1012E0000E94390AA50194010E944E0C60931902D4
:1012F00070931A0280931B0290931C02F7CD460153
:101300005701E894B7F82FEF3FEF4FE75FE7C501CC
:10131000B4010E94C30C81110DC02FEF3FEF4FE7C6
:101320005FE7C501B4010E94A60A18161CF482E307
:1013300091E095CF2FEF3FEF4FE75FE4C701B60194
:101340000E94490C18161CF486E391E088CF2FEF19
:101350003FEF4FE75FECC701B6010E94A60A87FD89
:10136000F3CF20E030E0A901C701B6010E94A60A30
:1013700087FF09C06DE283E491E00E94A701F7FABC
:10138000F094F7F8F0942AE037ED43EA5BE3C70105
:10139000B6010E943A0A4B015C010E94290B6B01C5
:1013A0007C010E94580B9B01AC01C501B4010E9455
:1013B000390A4B015C014AE0C701B6010E943D02B7
:1013C0006EE283E491E00E94A70120E030E040E279
:1013D00051E4C501B4010E944E0C4B015C010E9416
:1013E000290B6B01F12CE12C4AE0C701B6010E94E8
:1013F0003D02C701B6010E94580B9B01AC01C5011B
:10140000B4010E94390A20E030E040E251E40E9439
:101410004E0C0E94290B90E080E04AE00E943D02C1
:1014200020CFA1E21A2EAA1BBB1BFD010DC0AA1FD3
:10143000BB1FEE1FFF1FA217B307E407F50720F03D
:10144000A21BB30BE40BF50B661F771F881F991FB8
:101450001A9469F760957095809590959B01AC0101
:10146000BD01CF010895EE0FFF1F0590F491E02D0F
:1014700009945058BB27AA270E94510A0C94FB0BD1
:101480000E94C20B38F00E94C90B20F039F49F3F34
:1014900019F426F40C94BF0B0EF4E095E7FB0C94C2
:1014A000B90BE92F0E94200C58F3BA176207730793
:1014B0008407950720F079F4A6F50C94420C0EF4FD
:1014C000E0950B2EBA2FA02D0B01B90190010C0154
:1014D000CA01A0011124FF27591B99F0593F50F46C
:1014E000503E68F11A16F040A22F232F342F4427C4
:1014F000585FF3CF469537952795A795F0405395BC
:10150000C9F77EF41F16BA0B620B730B840BBAF08B
:101510009150A1F0FF0FBB1F661F771F881FC2F7F6
:101520000EC0BA0F621F731F841F48F4879577950A
:101530006795B795F7959E3F08F0B0CF9395880FC4
:1015400008F09927EE0F9795879508950E94950BBF
:1015500008F481E008950E94D20BE3950C940C0CE2
:101560000E94C40A0C94FB0B0E94C90B58F00E9405
:10157000C20B40F029F45F3F29F00C94B90B5111D4
:101580000C94430C0C94BF0B0E94200C68F399231D
:10159000B1F3552391F3951B550BBB27AA2762176F
:1015A0007307840738F09F5F5F4F220F331F441F7C
:1015B000AA1FA9F335D00E2E3AF0E0E832D09150B0
:1015C0005040E695001CCAF72BD0FE2F29D0660F9D
:1015D000771F881FBB1F261737074807AB07B0E8E0
:1015E00009F0BB0B802DBF01FF2793585F4F3AF0E6
:1015F0009E3F510578F00C94B90B0C94430C5F3F5F
:10160000E4F3983ED4F3869577956795B795F7956B
:101610009F5FC9F7880F911D9695879597F9089553
:10162000E1E0660F771F881FBB1F621773078407EF
:10163000BA0720F0621B730B840BBA0BEE1F88F7FE
:10164000E09508950E94290B6894B1110C94430C05
:1016500008950E94280C88F09F5798F0B92F992779
:10166000B751B0F0E1F0660F771F881F991F1AF08D
:10167000BA95C9F714C0B13091F00E94420CB1E0A4
:1016800008950C94420C672F782F8827B85F39F0A3
:10169000B93FCCF3869577956795B395D9F73EF426
:1016A00090958095709561957F4F8F4F9F4F0895CE
:1016B000E89409C097FB3EF49095809570956195EC
:1016C0007F4F8F4F9F4F9923A9F0F92F96E9BB27A2
:1016D0009395F695879577956795B795F111F8CF1E
:1016E000FAF4BB0F11F460FF1BC06F5F7F4F8F4F89
:1016F0009F4F16C0882311F096E911C0772321F07F
:101700009EE8872F762F05C0662371F096E8862F16
:1017100070E060E02AF09A95660F771F881FDAF76D
:10172000880F9695879597F90895990F0008550F9A
:10173000AA0BE0E8FEEF16161706E807F907C0F057
:1017400012161306E407F50798F0621B730B840B5F
:10175000950B39F40A2661F0232B242B252B21F439
:1017600008950A2609F4A140A6958FEF811D811DD9
:10177000089597F99F6780E870E060E008959FEF13
:1017800080EC089500240A94161617061806090618
:10179000089500240A9412161306140605060895E7
:1017A0000C94BF0B0E94280CD8F3E894E0E0BB2710
:1017B0009F57F0F02AED3FE049EC06C0EE0FBB0F5B
:1017C000661F771F881F28F0B23A620773078407E5
:1017D00028F0B25A620B730B840BE3959A9572F75B
:1017E000803830F49A95BB0F661F771F881FD2F799
:1017F00090480C94CA0C092E0394000C11F4882311
:1018000052F0BB0F40F4BF2B11F460FF04C06F5FB8
:101810007F4F8F4F9F4F0895EF93E0FF07C0A2EADD
:101820002AED3FE049EC5FEB0E94510A0E94FB0B5E
:101830000F90039401FC9058E8E6F0E00C94D60C6D
:1018400057FD9058440F551F59F05F3F71F0479571
:10185000880F97FB991F61F09F3F79F08795089556
:10186000121613061406551FF2CF4695F1DF08C075
:10187000161617061806991FF1CF86957105610592
:1018800008940895E894BB2766277727CB0197F93A
:1018900008950E94950B08F48FEF08950E94610C43
:1018A0000C94FB0B0E94C20B38F00E94C90B20F075
:1018B000952311F00C94B90B0C94BF0B11240C94CC
:1018C000430C0E94200C70F3959FC1F3950F50E0DC
:1018D000551F629FF001729FBB27F00DB11D639FE2
:1018E000AA27F00DB11DAA1F649F6627B00DA11D88
:1018F000661F829F2227B00DA11D621F739FB00D2E
:10190000A11D621F839FA00D611D221F749F33279D
:10191000A00D611D231F849F600D211D822F762F36
:101920006A2F11249F5750409AF0F1F088234AF013
:10193000EE0FFF1FBB1F661F771F881F915050407F
:10194000A9F79E3F510580F00C94B90B0C94430C01
:101950005F3FE4F3983ED4F3869577956795B79506
:10196000F795E7959F5FC1F7FE2B880F911D969520
:10197000879597F908959F930E94D20B0F9007FCCB
:10198000EE5F0C940C0C0E94950B880B990B08953C
:101990009F3F31F0915020F4879577956795B795E3
:1019A000880F911D9695879597F908959F938F932A
:1019B0007F936F93FF93EF939B01AC010E944E0CBA
:1019C000EF91FF910E94EA0C2F913F914F915F910F
:1019D0000C944E0CDF93CF931F930F93FF92EF92D3
:1019E000DF927B018C01689406C0DA2EEF010E9421
:1019F000610CFE01E894A591259135914591559191
:101A0000A6F3EF010E94510AFE019701A801DA94A2
:101A100069F7DF90EF90FF900F911F91CF91DF91C9
:061A20000895F894FFCFC9
:101A260006010601000000000000804100000000E1
:101A36000000004000001A430209030A00000000EB
:101A4600A70107013401F4016501430157016E61E5
:0E1A56006E00696E66006F7666000D0A000075
:00000001FF
